:100000000C94C2020C94ED280C94C6280C949F28E2
:100010000C9478280C94EA020C94EA020C9451286F
:100020000C94EA020C94EA020C9466250C94D525F3
:100030000C94EA020C94EA020C94EA020C94EA0290
:100040000C94EA020C94EA020C94EA020C94EA0280
:100050000C94EA020C94EA020C94EA020C9407282D
:100060000C94EA020C94EA020C94EA020C94EA0260
:100070000C94EA020C94EA020C94EA020C94EA0250
:100080000C94EA020C94EA020C94EA020C94EA0240
:100090000C94EA020C94EA020C94EA020C94EA0230
:1000A0000C94EA020C94EA020C94EA0200000000AC
:1000B0000000000000000000000000002A002B00EB
:1000C0002800000000000000000000000000000008
:1000D0000000000000000000000000000000000020
:1000E0000000000000000000000000002C001E02C4
:1000F00034022002210222022402340026022702B6
:1001000025022E0236002D003700380027001E0081
:100110001F002000210022002300240025002600CB
:100120003302330036022E00370238021F02040267
:10013000050206020702080209020A020B020C026B
:100140000D020E020F02100211021202130214021B
:10015000150216021702180219021A021B021C02CB
:100160001D022F003100300023022D023500040053
:10017000050006000700080009000A000B000C003B
:100180000D000E000F0010001100120013001400EB
:10019000150016001700180019001A001B001C009B
:1001A0001D002F0231023002350200000000000065
:1001B000000000000000000000000000000000003F
:1001C000000000000000000000000000000000002F
:1001D000000000000000000000000000000000001F
:1001E000000000000000000000000000000000000F
:1001F00000000000000000000000000000000000FF
:1002000000000000000000000000000000000000EE
:1002100000000000000000000000000000000000DE
:1002200000000000000000000000000000000000CE
:1002300000000000000000000000000000000000BE
:1002400000000000000000000000000000000000AE
:10025000000000000000000000000000000000009E
:10026000000000000000000000000000000000008E
:10027000000000000000000000000000000000007E
:10028000000000000000000000000000000000006E
:10029000000000000000000000000000000000005E
:1002A0000000000000000000000000004572726FB6
:1002B00072206F70656E696E67207468652066696C
:1002C0006C650046726F6D3A20000000000025004A
:1002D00028002B002E0031000000000200090F0052
:1002E00000030401000C00000000000000000000FA
:1002F00000000000000000080B00020202000009DC
:100300000400000102020000052400100105240180
:1003100001010424020605240600010705810310DB
:10032000004009040100020A000000070502024023
:1003300000000705830240000004030904120100C5
:1003400002EF020140412336800001010203014116
:10035000726475696E6F204C4C430041726475691C
:100360006E6F204C656F6E6172646F006465656AC4
:100370004D6F6465203D20006465656A6D6F64653E
:100380003D006465656A53656E7369746976697466
:10039000793D004B6E6F62427574746F6E486F6C7E
:1003A000643D00427574746F6E35486F6C643D0037
:1003B000427574746F6E34486F6C643D004275749E
:1003C000746F6E33486F6C643D00427574746F6E69
:1003D00032486F6C643D00427574746F6E31486FC3
:1003E0006C643D004B6E6F62427574746F6E3D00BD
:1003F000427574746F6E353D00427574746F6E345F
:100400003D00427574746F6E333D00427574746FB5
:100410006E323D00427574746F6E313D004B6E6FED
:10042000624343573D004B6E6F6243573D00636F1D
:100430006E6669672E74787400696E697469616CA0
:10044000697A6174696F6E20646F6E652E00696EE3
:10045000697469616C697A6174696F6E206661693B
:100460006C65642100696E697469616C697A617494
:10047000696F6E206661696C65642100496E6974FC
:1004800069616C697A696E672053442063617264A4
:100490002E2E2E0000000000240027002A002D0030
:1004A000300077007C3C3E5E2B3D3F2F5B5D3B2C5C
:1004B0002A225C0005010902A10185010509190133
:1004C00029081500250195087501810205010930EB
:1004D000093109381581257F750895038106C00506
:1004E000010906A1018502050719E029E715002584
:1004F00001750195088102050C9501750815002606
:10050000FF00190029FF81000507950675081500F1
:1005100026E700190029E78100C0050C0901A101A7
:100520008504150026FF0319002AFF0395047510A2
:100530008100C0040802011040804010204080402B
:100540008008020401804020100201108010204029
:100550004020000000002300260029002C002F006E
:100560000404040404030405020202020403020258
:10057000020206060606060604040202020404003D
:100580002F29842D11241FBECFEFDAE0DEBFCDBFAF
:1005900025E0AAEDB1E001C01D92A43EB207E1F74B
:1005A00011E0A0E0B1E0ECE1F1E602C005900D92AF
:1005B000AA3DB107D9F712E0C1ECD2E004C02197FF
:1005C000FE010E94482EC03CD107C9F70E94062BAD
:1005D0000C9481300C94000096E0899FD001112486
:1005E000AF58BA4F90967C936E935F9791E0919637
:1005F0009C939197E091DE05F091DF059091DD05E8
:10060000992339F0309751F0811108C080918D0500
:100610000994309719F05C968C91FACF0895FC01FB
:1006200080911A02882311F13FB7F89482E08093F9
:10063000E9002091F200822F90E01816190614F4B8
:1006400081E090E0882339F0289844E6409319022D
:100650004091F1004083222339F02091F2002111D2
:1006600003C02BE62093E8003FBF08958FEF9FEF74
:1006700008950895409112025091130220911002A2
:100680003091110242175307B4F49091E80095702D
:10069000E1F39091E80092FD19C08093F100809100
:1006A00012029091130201968F739927892B19F4E6
:1006B0008EEF8093E80080911202909113020196D0
:1006C000909313028093120281E0089580E00895D0
:1006D000EF92FF920F931F93CF93DF93F82E192F72
:1006E000E62E042F81E0860F880F0E943A0383E0F4
:1006F0000E943A03CF2DD12FEC0EFD2EF11CCE150A
:10070000DF05B9F007FF13C0FE0184910E943A0390
:10071000182F80E00E943A03812321968111EFCFA8
:10072000DF91CF911F910F91FF90EF9008958881F5
:10073000EDCF81E0F5CFDF92EF92FF920F931F9301
:10074000CF93DF93D82E8A01EB017B01E40EF51ED7
:10075000CE15DF0559F0D7FE12C0FE0184910E942C
:100760003A0321968111F4CF0FEF1FEFC801DF91FB
:10077000CF911F910F91FF90EF90DF9008958881A6
:10078000EECF2FB7F89487708093E9009091E8003E
:10079000892F807295FF04C09091F20080E4891B3C
:1007A0002FBF0895615030F02091F100FC012083AB
:1007B0000196F8CF289884E6809319020895AF92A5
:1007C000BF92CF92DF92EF92FF920F931F93CF933E
:1007D000DF936C017B018B01040F151FEB015E01A0
:1007E000AE18BF08C017D10759F06991D601ED9135
:1007F000FC910190F081E02DC6010995892B79F7D4
:10080000C501DF91CF911F910F91FF90EF90DF9085
:10081000CF90BF90AF9008958091080281110DC0D4
:1008200082E08093040284E0809305021092070224
:100830001092060281E08093080284E092E008951D
:100840000F931F93CF93DF931F92CDB7DEB782E054
:10085000898342E450E067EF72E080E80E949B03E6
:100860000E940C04DC0112960D911C9101151105DA
:1008700089F0D801ED91FC910280F381E02DBE0159
:100880006F5F7F4FC801099597FD04C0F80100858F
:100890001185ECCF89810F90DF91CF911F910F913E
:1008A0000895CF93DF931F92CDB7DEB76983DC0144
:1008B000ED91FC910280F381E02D41E050E0BE011A
:1008C0006F5F7F4F09950F90DF91CF9108950F9340
:1008D0001F93CF93DF938C01D0E0C0E0F801EC0FC1
:1008E000FD1F6491662341F08FE194E00E94510462
:1008F000892B11F02196F2CFCE01DF91CF911F917C
:100900000F91089583E08093E9008091F20088239D
:1009100019F08AE38093E800089583E00E94C10300
:1009200090E00895CF93DF931F92CDB7DEB7FC011F
:100930008485958597FD08C02FEF3FEF3587248785
:100940000F90DF91CF910895CE0101960E940F0381
:10095000019719F4898190E0F3CF8FEF9FEFF0CFEB
:100960000F931F93CF93DF931F92CDB7DEB78C0108
:10097000FC018485958597FF0BC0CE0101960E94EE
:100980000F03019771F4898190E0F80195878487BE
:10099000F801848595850F90DF91CF911F910F917C
:1009A00008958FEF9FEFF1CFFC018485958597FD2A
:1009B0000BC09FB7F89482E08093E9008091F20029
:1009C0009FBF90E0019608959FB7F89482E08093CE
:1009D000E9008091F2009FBF90E0089581508F3030
:1009E00008F047C0E82FF0E0E850FB4F0C94482E89
:1009F0001505190507050D051105390539053905D1
:100A00001C05220526052A05300539053405809187
:100A100080008F77809380000895809180008F7D83
:100A2000F9CF80918000877FF5CF84B58F7784BD23
:100A3000089584B58F7DFBCF809190008F77809350
:100A400090000895809190008F7DF9CF8091900063
:100A5000877FF5CF8091C0008F778093C000089585
:100A60008091C0008F7DF9CF8091C200877F8093F5
:100A7000C2000895CF93DF93282F30E0F901E852A8
:100A8000FD4F8491F901ED5CFA4FD491F901E05AE0
:100A9000FA4FC491CC23A1F081110E94EE04EC2FF7
:100AA000F0E0EE0FFF1FEE5AFA4FA591B491EC91D2
:100AB000ED2381E090E009F480E0DF91CF9108958B
:100AC00080E090E0FACF862F0C943A051F93CF93E5
:100AD000DF93282F30E0F901E852FD4F8491F901AE
:100AE000ED5CFA4FD491F901E05AFA4FC491CC234E
:100AF000A9F0162F81110E94EE04EC2FF0E0EE0F0A
:100B0000FF1FE653FD4FA591B4918FB7F894EC9178
:100B1000111108C0D095DE23DC938FBFDF91CF91F8
:100B20001F910895DE2BF8CF862F642F0C94660555
:100B3000CF93DF9390E0FC01ED5CFA4F2491805A53
:100B40009A4FFC0184918823C9F090E0880F991F87
:100B5000FC01EC56FB4FA591B491FC01E653FD4F0F
:100B6000C591D49161110DC09FB7F8948C912095D7
:100B700082238C938881282328839FBFDF91CF9184
:100B80000895623051F49FB7F8943C91822F80957C
:100B900083238C93E8812E2BEFCF8FB7F894EC91C1
:100BA0002E2B2C938FBFEACF862F642F0C949805A1
:100BB0003FB7F8948091000290910102A091020247
:100BC000B091030226B5A89B05C02F3F19F00196EE
:100BD000A11DB11D3FBFBA2FA92F982F8827BC0197
:100BE000CD01620F711D811D911D42E0660F771FBF
:100BF000881F991F4A95D1F708958F929F92AF92BF
:100C0000BF92CF92DF92EF92FF924B015C010E9464
:100C1000D8056B017C010E94D8056C197D098E09ED
:100C20009F09683E734081059105A8F321E0821A6F
:100C30009108A108B10888EEC80E83E0D81EE11C17
:100C4000F11C81149104A104B10429F7FF90EF90E5
:100C5000DF90CF90BF90AF909F908F9008957F923C
:100C60008F929F92AF92BF92CF92DF92EF92FF92BC
:100C70000F931F93CF93DF93C82E8B017A0180913E
:100C80001A02811110C08FEF9FEFDF91CF911F915A
:100C90000F91FF90EF90DF90CF90BF90AF909F901B
:100CA0008F907F9008958091160280FF05C08091FB
:100CB000E00082608093E000CE2DDF2DD12C8AEF02
:100CC000B82E8C2D8770982E8C2D8072882E8C2DAE
:100CD0008074782E9AE3A92E209719F4DD2009F468
:100CE00052C08C2D0E94C10381110AC0BA94BB204E
:100CF00051F261E070E080E090E00E94FD05ECCFF1
:100D00008C171D0611F00CF08C2F9FB7F894909261
:100D1000E9002091E80025FD02C09FBFDDCF282F0C
:100D200030E0C21BD30B882029F08150A0F0109234
:100D3000F100FBCFF801C7FC0AC0815050F041918F
:100D40004093F100FACF44914093F10031968150E5
:100D5000D0F7020F131FDD2021F0A092E800D12C64
:100D6000DCCF8091E80085FD07C0A092E800DD247B
:100D7000D394209791F2F3CF209779F6772069F2F8
:100D8000A092E800CACF5D9884E680931502C7015F
:100D90007CCFCF93DF93EC0180911201882331F057
:100DA00083E00E942F061816190634F081E090E0C7
:100DB0009B838A8380E090E0DF91CF9108952FB7E5
:100DC000F8946091FC017091FD018091FE01909179
:100DD000FF012FBF08950F931F93CF93DF93C82F69
:100DE000D62F86E0C89FF0011124EF58FA4F11A2C8
:100DF000878D90A181309105F1F058F082309105F6
:100E0000F1F1039709F440C0DF91CF911F910F9149
:100E100008956623C9F361E070E08C2F0E94EC0214
:100E20000E94DF066093C9057093CA058093CB05C5
:100E30009093CC05E9CF0E94DF060091C90510917F
:100E4000CA052091CB053091CC05AB01BC01401BFC
:100E5000510B620B730B8091DB059091DC05B0E0C8
:100E6000A0E084179507A607B70748F462E070E092
:100E70008C2FDF91CF911F910F910C94EC0263E0C6
:100E800070E0D111C1CFF4CF70E060E0F1CF0895F0
:100E90008FB7F8948091F6018FBF089561E0FC014F
:100EA00084810E9466058091F50181111092F501FF
:100EB00008958EBD00000DB407FEFDCF8EB50895D8
:100EC0008FEF0C9459070F931F93CF93DF93EC018F
:100ED0000E94DF068B010E9460078F3F69F00E942D
:100EE000DF06601B710B6C177D07A8F380E0DF91B4
:100EF000CF911F910F91089581E0F9CF8CBD9DBDD9
:100F00000895CF93DF93EC018091F501811109C021
:100F100081E08093F50180916F04909170040E94AC
:100F20007E0760E08C81DF91CF910C9466058F92F3
:100F30009F92AF92BF92FF920F931F93CF93DF9335
:100F4000EC01F62E49015A018E81882389F08F81A8
:100F500098859C012F5F3F4F38872F8382309240C6
:100F600018F40E946007F3CFCE010E944E071E8244
:100F7000CE010E9481078CE291E00E9463078F2DD1
:100F800080640E94590708E110E0D501C401002ED9
:100F900004C0B695A795979587950A94D2F70E94B5
:100FA000590708501109083F8FEF180771F785E9B5
:100FB000FF2021F028E087E8F2128FEF0E94590706
:100FC00010E00E9460078A8787FF04C01F3F11F06E
:100FD0001F5FF7CFDF91CF911F910F91FF90BF90CF
:100FE000AF909F908F900895AF92BF92CF92DF9273
:100FF000EF92FF920F931F93CF93DF93EC01690160
:10100000C801820F931F8130924050F58E81882352
:1010100079F088819981AA81BB8184179507A607F9
:10102000B70731F48F819885C816D90608F042C0F9
:10103000488359836A837B838B85833039F089E0C9
:10104000440F551F661F771F8A95D1F79A01AB0190
:1010500061E1CE010E949707882389F083E08D83A8
:10106000CE010E944E0780E0DF91CF911F910F913A
:10107000FF90EF90DF90CF90BF90AF9008950E94C7
:10108000DF065B010E9460078A878F3F69F40E9438
:10109000DF066A197B096D327140A0F38FE08D8302
:1010A000CE010E944E07DCCF8E3F89F418861F8246
:1010B00081E08E838F8198858C159D0550F40E9468
:1010C00060078F819885019698878F83F3CF8DE095
:1010D000E6CF6701E00EF11E0E946007F6018193E2
:1010E0006F01EE15FF05C1F78F819885080F191F55
:1010F00018870F838985882319F001151240A0F005
:101100008E81882389F08F8198859C012F5F3F4FC6
:1011100038872F838230924018F40E946007F3CF03
:10112000CE010E944E071E8281E09ECFCF92DF92B9
:10113000EF92FF920F93CF93DF93EC01690182E16D
:10114000411551056105710599F08B85833039F0A2
:1011500089E0440F551F661F771F8A95D1F79A01C2
:10116000AB0168E1CE010E949707882319F084E063
:101170008D832DC08EEF0E94590776018EEFD81A0D
:10118000F70181917F010E945907EC14FD04C1F71A
:101190008FEF0E9459078FEF0E9459070E94600746
:1011A0008A878F71853071F4011116C0CE010E94BB
:1011B0004E0781E0DF91CF910F91FF90EF90DF908C
:1011C000CF90089581E18D83CE010E944E07CE011C
:1011D0000E944E0780E0EECF88E592E00E94630710
:1011E000811102C085E1C4CF20E030E0A9016DE0AB
:1011F000CE010E949707882311F084E1B9CF0E94A5
:1012000060078111FACFD2CF0F934091F70150912F
:10121000F8016091F9017091FA01411551056105DC
:10122000710599F0082F2FE132E080911C02909116
:101230001D020E949608882349F01092F70110922F
:10124000F8011092F9011092FA0181E00F910895CE
:101250000F93CF93C82F80911E02811105C0C1E06A
:101260008C2FCF910F910895409115015091160147
:1012700060911701709118010C2F2FE132E08091DD
:101280001C0290911D020E949608811102C0C0E0CC
:10129000E7CFCC2321F381E00E9404098823B9F32E
:1012A00010921E02DDCF8F929F92AF92BF92EF926B
:1012B000FF920F931F93CF934B015C01C42F80913A
:1012C000150190911601A0911701B0911801881590
:1012D0009905AA05BB0551F181E00E9428098111F9
:1012E0000BC080E0CF911F910F91FF90EF90BF90C6
:1012F000AF909F908F9008958FE1E82E82E0F82EB6
:1013000000E012E030E020E0B501A40180911C0271
:1013100090911D020E94F407882319F38092150111
:1013200090921601A0921701B092180140911E02EE
:101330004C2B40931E0281E0D5CF8F929F92AF92AB
:10134000BF92CF92DF92EF92FF92CF9321E734E0EA
:1013500030931D0220931C02882309F46DC040E0E5
:1013600060E070E0CB010E94530981110BC080E066
:10137000CF91FF90EF90DF90CF90BF90AF909F9074
:101380008F9008958091DD038F7789F78091E9032D
:101390009091EA03A091EB03B091EC0384369105A0
:1013A000A105B10520F3C090E503D090E603E090DD
:1013B000E703F090E803C114D104E104F104B9F2A9
:1013C00040E0C701B6010E945309882381F2809151
:1013D0002A0290912B028115924049F6A0912F028A
:1013E000AA2329F260912D0270912E0261157105D8
:1013F00009F4BDCF20912C02222309F4B8CFA09389
:101400008F042093810490E080E030E0E1E0F0E0A0
:10141000C82FAF01082E02C0440F551F0A94E2F7EF
:101420002417350769F041E0480F0196893091058E
:1014300079F740938A049BCFC12CD12C7601C0CF81
:1014400080938A04209135023091360250E040E0CA
:101450002115310541F4209143023091440240911D
:1014600045025091460220938204309383044093B6
:1014700084045093850446015701860E971EA11CD3
:10148000B11C8092900490929104A0929204B09228
:101490009304E0913002F0913102F0939604E093CE
:1014A0009504B0E00E94F72DDC01CB01880D991D59
:1014B000AA1DBB1D8093970490939804A093990450
:1014C000B0939A0425E0EE0FFF1F2A95E1F7E15053
:1014D000FE4FEF2FFF27E6958E0F9F1FA11DB11D19
:1014E00080938B0490938C04A0938D04B0938E040E
:1014F0008090320290903302B12CA12C811491047F
:1015000041F480903F0290904002A0904102B09040
:101510004202C81AD90AEA0AFB0AC80CD91CEA1CFA
:10152000FB1C04C0F694E794D794C794CA95D2F7ED
:10153000C0928604D0928704E0928804F0928904D5
:1015400085EFC8168FE0D806E104F10428F48CE09A
:101550008093940481E00CCF80E125EFC2162FEF39
:10156000D206E104F104A0F380914B0290914C0269
:10157000A0914D02B0914E028093970490939804ED
:10158000A0939904B0939A0480E2E2CF4F925F92C5
:101590006F927F928F929F92AF92BF92CF92DF9283
:1015A000EF92FF920F931F93CF93DF93EC014230A2
:1015B00051056105710590F480E0DF91CF911F9195
:1015C0000F91FF90EF90DF90CF90BF90AF909F90E2
:1015D0008F907F906F905F904F90089589859A8546
:1015E000AB85BC850196A11DB11D84179507A60783
:1015F000B70710F3CB88DC88ED88FE888F898031AF
:1016000009F042C0BB27A72F962F852F480159010B
:101610002A013B01C80ED91EEA1EFB1E809115014E
:1016200090911601A0911701B0911801C816D90622
:10163000EA06FB0699F58F898031C1F5B301A20155
:10164000552766277727440F551F415E5D4FFA01E6
:101650009182808280911E02816080931E028A891D
:10166000823080F08D819E81AF81B8858C0D9D1D6B
:10167000AE1DBF1D8093F7019093F801A093F9016F
:10168000B093FA0181E099CFDB01CA01E7E0B6959A
:10169000A79597958795EA95D1F7B8CF40E0C70110
:1016A000B6010E9453098111C6CF86CFB301A201B2
:1016B0004F77552766277727440F551F440F551F2F
:1016C000415E5D4FFA0180829182A282B382C2CFD5
:1016D0008F929F92AF92BF92CF92DF92EF92FF9242
:1016E0000F931F93CF93DF93FC0181859285A38590
:1016F000B4850196A11DB11D84179507A607B707EC
:1017000070F480E0DF91CF911F910F91FF90EF90E7
:10171000DF90CF90BF90AF909F908F900895838877
:101720009488A588B6888789803189F5BB27A72F3B
:10173000962F852FE9016A017B018F01BC01CD0144
:10174000680D791D8A1D9B1D8090150190901601D2
:10175000A0901701B090180186169706A806B90642
:1017600001F5F8018789803111F5DD24EE24FF248D
:10177000F601EE0FFF1FE15EFD4F80819181B0E029
:10178000A0E088839983AA83BB8381E0BBCFDB0180
:10179000CA01C7E0B695A79597958795CA95D1F7E1
:1017A000C9CF40E00E9453098111DBCFAACFE89452
:1017B000C7F8DD24EE24FF24F601EE0FFF1FEE0F25
:1017C000FF1FE15EFD4F80819181A281B381BF70D7
:1017D000D8CF4F925F926F927F92AF92BF92CF928B
:1017E000DF92EF92FF920F931F93CF93DF9300D07E
:1017F00000D0CDB7DEB78C0149835A836B837C83DD
:101800005901C12CD12C7601412C82E0582E612C3B
:10181000712C49815A816B817C819E012F5F3F4FE2
:10182000C8010E94680B882339F1F8018585A3015E
:10183000920104C0220F331F441F551F8A95D2F70F
:10184000DA01C901C80ED91EEA1EFB1E49815A8160
:101850006B817C818789803111F188EF9FEFAFEF39
:10186000BFE0481759076A077B0798F2F501C08265
:10187000D182E282F38281E00F900F900F900F905F
:10188000DF91CF911F910F91FF90EF90DF90CF905C
:10189000BF90AF907F906F905F904F90089588EFCA
:1018A0009FEFA0E0B0E0DDCFCF93DF93FC01258177
:1018B000222321F080E0DF91CF910895EC01809107
:1018C0009404803159F582E08583178A108E118E39
:1018D000128E8091950490919604B0E0A0E025E0EE
:1018E000880F991FAA1FBB1F2A95D1F7838B948B52
:1018F000A58BB68B8DE794E09C8F8B8F81E08C83DA
:101900001E821F82188619861A861B861C861D86D3
:101910001E861F86188A198A1A8ACDCF803251F600
:1019200083E08583409197045091980460919904D5
:1019300070919A04478B508F618F728F9F012D5E3B
:101940003F4F8DE794E00E94E90B8111D3CFB2CFD6
:101950008F929F92AF92BF92CF92DF92EF92FF92BF
:101960000F931F93CF93DF93EC018D8181110EC0F4
:1019700080E0DF91CF911F910F91FF90EF90DF906A
:10198000CF90BF90AF909F908F9008950B891C8946
:101990002D893E89041715072607370748F34A01A2
:1019A0005B01823031F48A869B86AC86BD8681E0FD
:1019B000E0CF81149104A104B10449F41E821F8276
:1019C000188619861A861B861C861D86F0CF0A8506
:1019D0001B852C853D85EB8DFC8D858590E00996DA
:1019E000B901A8014150510961097109082E04C0CB
:1019F00076956795579547950A94D2F775016401D6
:101A0000E1E0CE1AD108E108F10804C0F694E794A9
:101A1000D794C7948A95D2F7C416D506E606F7067A
:101A200020F0012B022B032B11F58F89988DA98DA6
:101A3000BA8D8E839F83A887B9878E010A5F1F4F57
:101A4000C114D104E104F10409F4ADCF4E815F81EA
:101A50006885798598018B8D9C8D0E94680B91E03B
:101A6000C91AD108E108F1088111EACF81CFC41A5F
:101A7000D50AE60AF70AE1CF3F924F925F926F9242
:101A80007F928F929F92AF92BF92CF92DF92EF920E
:101A9000FF920F931F93CF93DF93CDB7DEB72C97B1
:101AA0000FB6F894DEBF0FBECDBF5C01DC015B96C4
:101AB0008D909C905C9716964D905D906D907C906B
:101AC0001997411451046104710409F468C0BFEF0F
:101AD0004B1A5B0A6B0A7B0A312CF40181859285D3
:101AE000A385B4859C01AD012F5F3F4F4F4F5F4FE2
:101AF00029873A874B875C87730162011D821E82AA
:101B00001F821886F40181859285A385B4852D8175
:101B10003E814F815885281739074A075B0708F02F
:101B200056C089859A85AB85BC858C159D05AE050B
:101B3000BF0550F482E0C82ED12CE12CF12C92E0AC
:101B4000492E512C612C712C9E012F5F3F4FB70104
:101B5000A601C4010E94680B8823C9F189819A817A
:101B6000AB81BC81892B8A2B8B2B09F12601370194
:101B70009FEF491A590A690A790A2D813E814F81DE
:101B800058852F5F3F4F4F4F5F4F2D833E834F83CD
:101B900058873FEFC31AD30AE30AF30AB3CFF4011D
:101BA00040805180628073803324339496CFC41474
:101BB000D504E604F70409F70FEF1FEF2FEF3FE01E
:101BC000B701A601C4010E94C60A811119C080E0B4
:101BD0002C960FB6F894DEBF0FBECDBFDF91CF912C
:101BE0001F910F91FF90EF90DF90CF90BF90AF903B
:101BF0009F908F907F906F905F904F903F9008954F
:101C0000D50116964D915D916D917C911997411575
:101C100051056105710539F097018601C4010E94E3
:101C2000C60A8823A1F2D5011696CD92DD92ED92D7
:101C3000FC921997332051F0D701C6010196A11DDE
:101C4000B11DF40180839183A283B383F501878959
:101C5000908DA18DB28D892B8A2B8B2B39F48481A9
:101C6000C78AD08EE18EF28E80688483F5018481EC
:101C70008062848381E0ACCF1F93CF93DF93FC011C
:101C800025812223D1F1162FEC01848187FF2AC000
:101C9000668577858089918941E00E945309882370
:101CA00061F1EA8980E2E89FF0011124E15EFD4FD5
:101CB000309719F18D81823040F48B899C89AD89F0
:101CC000BE89848F958FA68FB78F8F89988D938FBC
:101CD000828F8F89988DA98DBA8DB58BA48B8C81BD
:101CE0008F778C83111103C08C818F7E8C83812F21
:101CF000DF91CF911F910C94280980E0DF91CF9163
:101D00001F910895FF920F931F93CF93DF93EC01E0
:101D10008D81813041F090E080E0DF91CF911F9183
:101D20000F91FF9008958C8181FFF5CF82FD1BC03C
:101D300000911C0210911D02C8010E9481070E949F
:101D40006007F82EC8010E944E078FEFF812E3CF0C
:101D50008C8185FF1BC060E0CE010E943C0E8C810F
:101D60008F7D8C83D8CF4B895C896D897E898A85EC
:101D70009B85AC85BD8584179507A607B707C1F27B
:101D8000CE010E94A80C8111D3CFC5CF4091F7019D
:101D90005091F8016091F9017091FA01452B462BA1
:101DA000472B21F080E00E940409B5CF80618C832D
:101DB0002A853B85317080E092E0821B930BADCF8A
:101DC000CF93DF93EC0161E00E943C0E882311F079
:101DD0001D8281E0DF91CF910895CF92DF92EF9243
:101DE000FF921F93CF93DF938091A004882321F06B
:101DF0008BE994E00E94E00E10927C0410927A0429
:101E000010927704109276048AE0809375040E9401
:101E1000DF06EB0161E0809175040E94980561E0A6
:101E2000809175040E9466051FB7F89480911B028B
:101E3000811127C0E1E7F5E08491E4E4F5E09491B5
:101E4000E82FF0E0EE0FFF1FEC56FB4FA591B49189
:101E5000EC91E92321F461E081E10E94660561E0F3
:101E600081E10E9498058CB580618CBD8CB5806441
:101E70008CBD61E08FE00E94980561E080E10E94E6
:101E8000980580911B028F5F80931B021FBF82E524
:101E900080936F041092700480916F04909170048D
:101EA0000E947E071AE08FEF0E9459071150D9F760
:101EB00081E794E00E94810720E030E0A90160E022
:101EC00081E794E00E949707182F80937B0481306C
:101ED00081F00E94DF066C1B7D0B613D774060F353
:101EE00081E08093760481E794E00E944E0790E0C1
:101EF00078C02AEA31E040E050E068E081E794E011
:101F00000E94970782FF2AC010937C0480917C0472
:101F1000C12CD12C7601823029F4C12CD12CE12C9A
:101F200080E4F82E20E030E0A90167E381E794E047
:101F30000E949707A701960169E281E794E00E9459
:101F4000970780937B048823C1F00E94DF066C1BF7
:101F50007D0B613D774030F388E0C3CF14E00E94F1
:101F6000600780937B041150D1F78A3A11F082E028
:101F7000B8CF82E080937C04C9CF80917C0482300A
:101F8000D1F420E030E0A9016AE381E794E00E9407
:101F90009707882311F086E0A4CF0E946007807C19
:101FA000803C19F483E080937C040E9460070E94C7
:101FB00060070E94600781E794E00E944E0780E579
:101FC00080936F041092700481E00E949D09882321
:101FD00089F08BE994E00E94540C91E0882309F485
:101FE00086CF892FDF91CF911F91FF90EF90DF90E7
:101FF000CF90089580E00E949D09882309F477CF4F
:10200000E8CF2F923F924F925F926F927F928F9282
:102010009F92AF92BF92CF92DF92EF92FF920F9377
:102020001F93CF93DF9300D000D01F92CDB7DEB7C0
:102030007C015B01342E5D83DC0115968C91159734
:10204000813009F0CEC014962C9021FECAC022FC2B
:10205000B4C0C32CDD8022947FE027222094B22DCF
:10206000B1702B2ED7011A964D915D916D917C9197
:102070001D97C114D10409F428C15B968D919C91E0
:102080005C97FC0174807A948A019B0169E0369523
:102090002795179507956A95D1F770228A011170D7
:1020A000711020C001151105E9F416964D915D914E
:1020B0006D917C911997411551056105710509F0E4
:1020C00099C057968D919D910D90BC91A02D009730
:1020D000A105B10509F0B0C0C7010E943C0D8823DD
:1020E00009F47FC080E092E0801B910B46018C15C3
:1020F0009D0508F44C01D7015B964D915C915C976E
:1021000016968D919D910D90BC91A02D0297A109DD
:10211000B109FA01258504C0880F991FAA1FBB1FAA
:102120002A95D2F74685578560897189840F951F56
:10213000A61FB71F9C01AD01270D311D411D511D6B
:1021400029013A01811432E0930609F07BC08091A5
:10215000150190911601A0911701B09118018415F5
:102160009505A605B70559F48FEF9FEFDC01809325
:10217000150190931601A0931701B0931801022D39
:102180009501B301A20180911C0290911D020E9451
:102190009608882331F19EEFB91AC818D908F701BB
:1021A00082859385A485B585880D991DA11DB11DD6
:1021B00082879387A487B58755CFF70143895489D0
:1021C0006589768982859385A485B58548175907E1
:1021D0006A077B0709F43DCFC7010E94A80C811153
:1021E00038CF81E090E0D70113969C938E9312979D
:1021F00080E007C09E012F5F3F4F0E94680B811156
:1022000002C090E079C089819A81AB81BC81F701DD
:10221000238D348DF901278948EF5FEF60E070E08E
:10222000203121F048EF5FEF6FEF7FE084179507D3
:10223000A607B70708F050CFF70186839783A087DA
:10224000B18750CF0115110599F5D7011A964D9117
:102250005D916D917C911D9753968D919D910D90FF
:10226000BC91A02D481759076A077B0708F181E048
:102270000E942809882309F4B4CF40921501509296
:102280001601609217017092180180911E02816000
:1022900080931E02C801815E9D4FD5019C01280DCF
:1022A000391DFC012E173F0759F04D914193FACF8C
:1022B00041E0C301B2010E9453098111EBCF91CFDC
:1022C000281B390BA20EB31E68CFF70183899489AE
:1022D000A589B68984179507A607B70738F48481BE
:1022E000438B548B658B768B80688483F701848164
:1022F00083FD1AC0832D9D810F900F900F900F903A
:102300000F90DF91CF911F910F91FF90EF90DF9091
:10231000CF90BF90AF909F908F907F906F905F9085
:102320004F903F902F90089561E0C7010E943C0EAE
:10233000882309F456CFDECFCF93DF931F92CDB71A
:10234000DEB7698341E050E0BE016F5F7F4F0E94BE
:1023500001100F90DF91CF910895FC01DB011296DF
:102360008D919C911397938382838AE691E0918368
:10237000808314968C911497848315968C9115976D
:10238000858316964D915D916D917C911997468349
:102390005783608771871A964D915D916D917C91FD
:1023A0001D9742875387648775871E964D915D916F
:1023B0006D917C91519746875787608B718B5296B0
:1023C0008C915297828B53964D915D916D917C913A
:1023D0005697438B548B658B768B57964D915D91B9
:1023E0006D917C915A97478B508F618F728F5B965E
:1023F0008D919C91948F838F0895FC01818D928D96
:10240000009719F061E00C943C0E0895DC01599698
:10241000ED91FC913097B9F083899489A589B689AB
:102420004285538564857585841B950BA60BB70B78
:10243000811520E89207A105B10538F08FEF9FE7DD
:10244000A0E0B0E0089590E080E00895DC015996A6
:102450008D919C91009739F0DC01ED91FC91048005
:10246000F581E02D099490E080E00895CF93DF930B
:10247000EC01E98DFA8D309749F481E090E09B837F
:102480008A8390E080E0DF91CF91089513821282D9
:10249000898D9A8D0E940110E98DFA8D22813381F8
:1024A000232B59F7F0CFCF93DF931F92CDB7DEB731
:1024B0006983DC01ED91FC910280F381E02D41E024
:1024C00050E0BE016F5F7F4F09950F90DF91CF9174
:1024D00008952F923F924F925F926F927F928F92C8
:1024E0009F92AF92BF92CF92DF92EF92FF920F93A3
:1024F0001F93CF93DF9300D01F92CDB7DEB7FC01BF
:102500008581811118C08FEF9FEF0F900F900F9072
:10251000DF91CF911F910F91FF90EF90DF90CF90BF
:10252000BF90AF909F908F907F906F905F904F90F3
:102530003F902F900895848180FFE5CF438954898F
:102540006589768982859385A485B585312C212C72
:10255000481759076A077B0719F022242394312C66
:102560006F012101CE0101963C01DF011696BB836C
:10257000AA834114510409F4C5C0F601428553856C
:10258000648575854A01F1E09F22D6015B968D91A5
:102590009C915C978A019B01E9E0369527951795F8
:1025A0000795EA95D1F71596EC91E230E9F5FC0133
:1025B000628D738D848D958D600F711F821F931FA7
:1025C000A12C22E0B22EA818B9084A145B0408F422
:1025D0005201F601248126FD04C0A114F2E0BF06D9
:1025E00071F400911501109116012091170130919D
:1025F0001801061717072807390709F05EC040E0E1
:102600000E945309882309F47ECFC401815E9D4F47
:10261000D3019C012A0D3B1DFC012E173F0709F435
:102620006CC041914D93F9CFDC011496BC90BA94E3
:10263000B0228114910479F4B1100DC0452B462BC2
:10264000472B69F5F6018789908DA18DB28D868320
:102650009783A087B187D6015B96ED91FC915C973B
:1026600016966D917D918D919C911997625071098B
:1026700081099109258504C0660F771F881F991F5E
:102680002A95D2F70685178520893189600F711F39
:10269000821F931F6B0D711D811D911D91CFD6015E
:1026A00016964D915D916D917C9119972A813B8190
:1026B0000E94680B8111CFCF26CF73018501940151
:1026C000AB01BC0180911C0290911D020E94F40795
:1026D000882309F418CF6A0C7B1CF6018285938548
:1026E000A485B5858A0D9B1DA11DB11D8287938789
:1026F000A487B5874A185B083CCF281B390B620EAC
:10270000731EEBCF2A94232809F0FDCE898190E037
:10271000FCCEFC01818D928D009711F00C94691212
:102720008FEF9FEF08950F931F93CF93DF93EC01EB
:10273000898D9A8D10E000E0009799F00E9469124F
:102740008C010F3F100769F0898D9A8DFC0142853D
:1027500053856485758541505109610971090E944D
:10276000A80CC801DF91CF911F910F910895DC0152
:10277000FB0112962C9112978481958128171906D6
:1027800041F491818081813A31F49D7F81E09130E3
:1027900009F080E008958132E1F79B3029F48281CD
:1027A0001F968C9381E008959A3099F78281509614
:1027B0008C93F8CFAF92BF92CF92DF92EF92FF92BD
:1027C0000F931F93CF93DF931F92CDB7DEB77C019A
:1027D00069836A01590141E050E0BE016F5F7F4F9C
:1027E000FC0183810E942F068C0197FD0BC0F7012D
:1027F0008381A501B60180640E942F06080F191F6E
:1028000097FD8C01C8010F90DF91CF911F910F911F
:10281000FF90EF90DF90CF90BF90AF900895DC01D4
:10282000FB0188E4808389E4818384E482831D96AC
:102830009C911D979F709F5B93831D968D919C919A
:1028400024E0969587952A95E1F78F708F5B8483B6
:1028500085E00895EF92FF920F931F93CF93DF933C
:10286000FB012081213871F52381223259F5DC01E9
:1028700012964C91248135814217130619F5EC010B
:102880000B851C85F12CE12C0115110589F0F8014F
:10289000448155816281738180E80E949B038F3F50
:1028A000980749F0E80EF91ED8010D911C91ECCF64
:1028B00081E08F87C701DF91CF911F910F91FF902A
:1028C000EF90089590E080E0F6CFCF93DF93CDB7FF
:1028D000DEB769970FB6F894DEBF0FBECDBFFC011F
:1028E000DB018C918F5F8C939E012D5F3F4F8DE0BC
:1028F000D9011D928A95E9F729E0298384E08A832A
:1029000091E09D8383E08E832A8721E22B879C8739
:102910009D879F8722E2288B27E02B8B25E02C8B3D
:102920008E8B20E430E0388F2F8B998F82818B83C0
:1029300095858685998B8A8B838180688D8B49E10B
:1029400050E0BE016F5F7F4F80E00E949B0369965D
:102950000FB6F894DEBF0FBECDBFDF91CF910895C3
:10296000CF93DF938091ED01811167C081E0809367
:10297000E0018093E10126EE31E03093E301209302
:10298000E2011092E5011092E4012AE331E0309374
:10299000DD012093DC011092E8011092E701109212
:1029A000EA011092E9018093EB018093EC0181EC44
:1029B0008093E6010E940C04FC0181819091E0016A
:1029C000482F490F5527551F483051059CF5A281C6
:1029D000B381109709F52CED31E0338322832081F8
:1029E0002093DE018093DF018091E101820F8083DB
:1029F0002091E201A22FB091E3018A2F821B891757
:102A0000C8F481813D91C82FD0E0C050DF4F38839A
:102A10008F5F8183F2CFD90118962D913C91199740
:102A200021153105C1F72CED31E019963C932E9319
:102A30001897D5CF81E08093ED018CED91E0DF9187
:102A4000CF9108950F931F93CF93DF93EB018A01EA
:102A50000E94B0149801AE0161E0DF91CF911F9107
:102A60000F910C94DA13CF93DF93EC010E94B01412
:102A7000AE014C5F5F4F28E030E062E0DF91CF9124
:102A80000C94DA1390E080E008950F931F93CF9396
:102A9000DF93EB018A010E94B0149801AE0164E05B
:102AA000DF91CF911F910F910C94DA13DC01ED911E
:102AB000FD918081ED91FD919081ED91FD916C9161
:102AC00063708E2309F064609F2309F06860E3E778
:102AD000F5E1E60FF11D659565956D936D917D911D
:102AE0008D919D91099423C01AC012C016C010C0C8
:102AF0001EC009C014C013C006C019C009C00DC053
:102B000007C00DC014C062507040804090400BC0A0
:102B1000615070408040904006C06E5F01C06F5FA2
:102B20007F4F8F4F9F4F9E938E937E936E9308950A
:102B30008091FD049091FE040C9456158091FF0441
:102B4000909100050C945615809101059091020515
:102B50000C94561580910305909104050C9456151C
:102B600080910505909106050C945615FC019C0179
:102B7000285F3F4F90E080E044814111019614822C
:102B80003196E217F307C1F7089589ED94E00E94AA
:102B9000B615892B21F089ED94E00C943315089536
:102BA000CF93DF93DC0190E2960F9830B0F4149647
:102BB0008C91149721E030E001C0220F9A95EAF73A
:102BC000442341F0282B14962C9381E090E0DF9170
:102BD000CF91089520952823F6CFFD013696442302
:102BE000D1F0CD010C96EF012991621771F3C8174E
:102BF000D907D1F790E080E02191211105C0A80FFD
:102C0000B91F16966C93E1CF019686309105A1F716
:102C100090E080E0DCCF90E080E02191621305C07D
:102C2000A80FB91F16961C92D0CF01968630910539
:102C3000A1F7EECFCF92DF92FF920F931F93CF9326
:102C4000DF938C01F42EE62FF0E0EE0FFF1FE4552A
:102C5000FF4FC590D490D801ED91FC910484F58587
:102C6000E02D6C2DC8010995EC01892B11F4F110B0
:102C700070C0D0FE0CC0D801ED91FC910484F585A4
:102C8000E02D4F2D60EEC8010995C82BD92BD1FE40
:102C90000CC0D801ED91FC910484F585E02D4F2DF9
:102CA00061EEC8010995C82BD92BD2FE0CC0D80102
:102CB000ED91FC910484F585E02D4F2D62EEC80165
:102CC0000995C82BD92BD3FE0CC0D801ED91FC91EE
:102CD0000484F585E02D4F2D63EEC8010995C82BBE
:102CE000D92BD4FE0CC0D801ED91FC910484F5855C
:102CF000E02D4F2D64EEC8010995C82BD92BD5FEC8
:102D00000CC0D801ED91FC910484F585E02D4F2D88
:102D100065EEC8010995C82BD92BD6FE0CC0D80189
:102D2000ED91FC910484F585E02D4F2D66EEC801F0
:102D30000995C82BD92BD7FE0CC0D801ED91FC9179
:102D40000484F585E02D4F2D67EEC8010995C82B49
:102D5000D92BCE01DF91CF911F910F91FF90DF9082
:102D6000CF9008950F931F93CF93DF93EC0140E032
:102D70000E941A168C01892B39F0E881F9810284AE
:102D8000F385E02DCE010995C801DF91CF911F9108
:102D90000F9108950F931F93CF93DF93EC0141E0C0
:102DA0000E941A168C01892B39F0E881F98102847E
:102DB000F385E02DCE010995C801DF91CF911F91D8
:102DC0000F910895FF920F931F93CF93DF938C0180
:102DD000F62E0E94CA16EC01892B21F06F2DC80136
:102DE0000E94B216CE01DF91CF911F910F91FF90FB
:102DF00008950F931F93CF93DF93EC0180E2689FB8
:102E0000F0011124E15EFD4F6A8B809115019091D4
:102E10001601A0911701B09118018E879F87A88B8A
:102E2000B98B0489158930E020E09801112700272B
:102E30000F8B188F298F3A8F828D938DB0E0A0E091
:102E4000AC01BD01402B512B622B732B4F8B588F44
:102E5000698F7A8F83858871A9F4848D958DA68D6D
:102E6000B78D8B8B9C8BAD8BBE8B81E08D8381E08E
:102E70008C831E821F82188619861A861B861C86E2
:102E80001D8603C0803131F080E0DF91CF911F912A
:102E90000F9108959E012D5E3F4F8B8D9C8D0E945A
:102EA000E90B882389F384E0E1CFAF92BF92CF9200
:102EB000DF92EF92FF920F931F93CF93DF93CDB7E3
:102EC000DEB72B970FB6F894DEBF0FBECDBF6C01F7
:102ED000FE013196CE010C967F0120E22193E81786
:102EE000F907E1F7DA0120E037E09D91B92E992347
:102EF000A9F19E32B9F43A3091F480E02B960FB6E6
:102F0000F894DEBF0FBECDBFDF91CF911F910F911F
:102F1000FF90EF90DF90CF90BF90AF90089528E0A2
:102F20003AE0E3CFE4EAF4E08491882321F031969B
:102F30009813FACFE2CF321700F38FED890F8E3559
:102F4000E0F68FE9890F8A3118F440EEB42EB90EFD
:102F5000F701E20FF11DB0822F5FC7CF8981803268
:102F600061F28B01FB01838D948DF601948F838F29
:102F7000FB0116821782108611861286138614862C
:102F80001586F80182859385A485B5854389548982
:102F90006589768984179507A607B70708F0ADCF2E
:102FA00025E0B695A795979587952A95D1F7F82F9F
:102FB000FF70AF2EF8018581823008F49ECFC801E2
:102FC0000E94691297FD99CFF80182859385A485A7
:102FD000B5854F96A11DB11D82879387A487B587BC
:102FE000F0E2AF9EB0011124615E7D4F6115710565
:102FF00009F483CFFB018081882309F1853E19F410
:10300000B11032C01EC04BE050E0C7010E9430300A
:10301000892B09F0B6CF6A2DC6012B960FB6F8940E
:10302000DEBF0FBECDBFDF91CF911F910F91FF90FB
:10303000EF90DF90CF90BF90AF900C94F916B11045
:103040005CCFF601A28A8091150190911601A091A2
:103050001701B091180186879787A08BB18BFB0170
:103060008081882309F449CFBB24B3948ACFCF93BE
:10307000DF93DC0114962D913C911597232B79F069
:10308000FB01CD91DC9160817181CE010E9467309E
:10309000009729F08C1B9D0BDF91CF9108958FEF46
:1030A0009FEFFACFAF92BF92CF92DF92EF92FF9253
:1030B0000F931F93CF93DF93FC0124813581FB0194
:1030C00044815581E901C41BD50B4115510541F1DE
:1030D0002115310529F12417350710F1C217D3073F
:1030E00010F0E90121975B01FC01C080D180C6018D
:1030F0000FEF1FEF7601EC0EFD1EE816F90690F0BB
:10310000F501608171810E946730009759F09C0140
:103110002C193D09C217D30708F089010196EDCF9C
:103120000FEF1FEFC801DF91CF911F910F91FF901B
:10313000EF90DF90CF90BF90AF900895FB0101908A
:103140000020E9F73197AF01461B570BDC01ED91E9
:10315000FC910280F381E02D099442E050E06AE99D
:1031600071E08FE194E00C94C906CF93DF93FC01EA
:1031700044815581608171818FE194E00E94C9068C
:10318000EC010E94AD188C0F9D1FDF91CF91089527
:10319000CF93DF930E946704EC010E94AD188C0F5F
:1031A0009D1FDF91CF910895FC018081918100974F
:1031B00011F00C949F2D60E070E0CB0108950F9307
:1031C0001F93CF93DF938C01EB01FC0180819181F0
:1031D0000097E1F06881798161157105A9F042815C
:1031E00053812C813D814217530770F00E9451306A
:1031F0008C819D81F801958384831D821C82DF91DF
:10320000CF911F910F9108950E94EA2E8881998194
:10321000F801918380838A819B81938382838C814F
:103220009D8195838483198218821B821A82E5CF3F
:10323000CF93DF93EC0188819981009711F00E9470
:10324000EA2E198218821D821C821B821A82DF914B
:10325000CF910895FC0180819181009711F00C9429
:10326000EA2E08950F931F93CF93DF93EC0188818B
:103270009981009759F02A813B812617370730F052
:1032800081E0DF91CF911F910F9108958B016F5FC6
:103290007F4F0E94732F009759F0998388831B8377
:1032A0000A832C813D81232B59F7FC011082E8CF42
:1032B00080E0E7CFEF92FF920F931F93CF93DF93BE
:1032C0006115710541F480E0DF91CF911F910F915D
:1032D000FF90EF90089541155105B1F07B01EC018D
:1032E0000C811D81040F151FB8010E94321988231B
:1032F00051F3288139818C819D81B701820F931F01
:103300000E9451301D830C8381E0DECFCF93DF9389
:10331000EC01FB0101900020E9F73197AF01461B5A
:10332000570B0E945A19811103C0CE010E9418192F
:10333000CE01DF91CF910895CF93DF93EC01FB0194
:1033400044815581608171810E945A19811103C0A5
:10335000CE010E941819CE01DF91CF910895CF932D
:10336000DF9300D0CDB7DEB769831A8241E050E029
:10337000BE016F5F7F4F0E945A190F900F90DF912F
:10338000CF910895EF92FF920F931F93CF93DF9306
:10339000EC017B018A01BA010E94321981110BC034
:1033A000CE010E941819CE01DF91CF911F910F918C
:1033B000FF90EF9008951D830C83B7018881998158
:1033C0000E945130F0CFFB01DC0111961C921E923D
:1033D00013961C921E92129715961C921E92149789
:1033E0008617970749F0608171816115710521F099
:1033F000448155810C94C2190895FC0111821082F8
:103400001382128215821482FB0101900020E9F7D9
:103410003197AF01461B570B0C94C219AF92BF9264
:10342000CF92DF92EF92FF920F931F93CF93DF9390
:103430007C016B015A0189012417350720F48B2D7B
:103440005901042F182F6CE971E0C7010E94FD1982
:10345000D6011496CD91DC91AC16BD0620F50C1763
:103460001D0708F4E801D601ED91FC911197EC0FCE
:10347000FD1F108110826D917C916A0D7B1D61157D
:103480007105E9F0FB0101900020E9F73197AF01E8
:10349000461B570BC7010E94C219F601808191811A
:1034A000C80FD91F1883C701DF91CF911F910F91CA
:1034B000FF90EF90DF90CF90BF90AF900895C7013D
:1034C0000E941819EACFEF92FF920F931F93CF93A8
:1034D000DF93EC018B01198218821B821A821D82F4
:1034E0001C82CB010E94CD2D7C01BC01CE010E942B
:1034F0003219811109C0CE01DF91CF911F910F9137
:10350000FF90EF900C941819FD82EC82B80188812D
:103510009981DF91CF911F910F91FF90EF900C94C3
:10352000C62D8F929F92AF92BF92EF92FF920F9310
:103530001F93CF93DF9300D000D000D0CDB7DEB77C
:103540008C01EDB6FEB662EA74E0CE0101960E94EF
:10355000631ABE016F5F7F4FC8010E9437185C017C
:10356000CE0101960E942A19B7FC5EC08DB69EB6A8
:10357000F801248135812150310942E050E0B80141
:10358000CE0101960E940E1AAD80BE80C501019643
:103590002DB73EB7281B390B0FB6F8943EBF0FBEB0
:1035A0002DBF0DB71EB70F5F1F4F892B29F0A11438
:1035B000B10441F4F8011082B80189ED94E00E9451
:1035C0009E1813C069817A81A501C8010E945830F4
:1035D000F801EA0DFB1D1082AA94AB2869F7F801E7
:1035E000608189ED94E00E94CA16CE0101960E9486
:1035F0002A190FB6F8949EBE0FBE8DBE0FB6F89472
:10360000FEBE0FBEEDBE26960FB6F894DEBF0FBE0F
:10361000CDBFDF91CF911F910F91FF90EF90BF90A1
:10362000AF909F908F900895C8010E94D4184B01CD
:103630005C01B7FE18C041E089ED94E00E94D0150E
:10364000892BE1F289ED94E00E94331540E0682D6A
:1036500089ED94E00E94D015892B81F289ED94E0E8
:103660000E943315CBCFF0ED8F16F7E09F06A10433
:10367000B10424F628EE821A23E0920AE5EFF4E082
:1036800090E080E0219131910196232B39F5880F4C
:10369000991FFC01ED50FB4F9182808248E050E081
:1036A00065EF74E083EF94E00E944515E3EFF4E0EA
:1036B0008BEF94E0228133818216930611F41382FA
:1036C000128232968E179F07A9F748E050E065EF07
:1036D00074E083EF94E00E94451590CF843091050B
:1036E00089F6DCCF0F931F93CF93DF93CDB7DEB76F
:1036F00062970FB6F894DEBF0FBECDBFBC01CE01FE
:103700000D960E94E3196DE971E0CE0101960E94C9
:10371000FD19BE016F5F7F4FCE010D960E945218BA
:103720008C01CE0101960E942A1917FD4DC06DE94A
:1037300071E0CE0101960E94FD19BE016F5F7F4FBF
:10374000CE010D960E9437189C0150E040E0BE016A
:10375000635F7F4FCE0107960E940E1ACE01079637
:103760000E94911ACE0107960E942A19CE01019655
:103770000E942A1909891A896DE971E0CE01019622
:103780000E94FD19BE016F5F7F4FCE010D960E9412
:103790003718AC014F5F5F4F9801BE01635F7F4FE9
:1037A000CE0107960E940E1ABE01695F7F4FCE01BF
:1037B0000D960E94DF18CE0107960E942A19CE01AD
:1037C00001960E942A199FCFBE01635F7F4FCE01F1
:1037D00001960E94E319CE0101960E94911ACE0132
:1037E00001960E942A19CE010D960E942A1962960E
:1037F0000FB6F894DEBF0FBECDBFDF91CF911F9102
:103800000F910895EF92FF920F931F93CF93DF9341
:1038100000D000D000D0CDB7DEB7182F8091900532
:10382000909191058230910509F44CC08330910547
:10383000C1F0019749F410921802612F8FE194E0D2
:103840000E9451040E94AD1826960FB6F894DEBF70
:103850000FBECDBFDF91CF911F910F91FF90EF90E1
:1038600008958091DA019091DB01892B31F56FE9A0
:1038700071E08FE194E00E949E1826E01202C001E0
:1038800011249C01275D3A4F7901C9010E94B518A6
:10389000612F89ED94E00E94B216B701CE01019626
:1038A0000E94E31961E0CE0101960E94721BCE01D5
:1038B00001960E942A190E94C5151092DB011092F0
:1038C000DA01C2CF6CEA71E08FE194E00E949E18A9
:1038D000212F110F330B235C3F4F86E0829F800125
:1038E000839F100D1124075D1A4FC8010E94B5185F
:1038F000B801CE0101960E94E31961E0CE01019664
:103900000E94721BCE0101960E942A190E94C515C1
:1039100081E090E09093DB018093DA0195CFEF9204
:10392000FF920F931F93CF93DF93EC017B018A01EA
:103930001B821A8288EE93E0A0E0B0E08C839D8326
:10394000AE83BF8386E491E0998388838DE190E024
:103950000E944E2E9A8F898F009779F02DE1F70102
:10396000DC0101900D922A95E1F74CE050E0B8019E
:10397000CE010C960E945830188EDF91CF911F9186
:103980000F91FF90EF9008952F923F924F925F9288
:103990006F927F928F929F92AF92BF92CF92DF925F
:1039A000EF92FF920F931F93CF93DF93CDB7DEB7C4
:1039B000CB59D1090FB6F894DEBF0FBECDBF6C0155
:1039C0004B01CC56DF4F59834883C459D040C6566B
:1039D000DF4F39832883CA59D0406CE971E0CE01AA
:1039E00082579F4F0E94FD19E7961FAE1EAEE797C4
:1039F00088EE93E0A0E0B0E0EB968CAF9DAFAEAF69
:103A0000BFAFEB9786E491E0E5969FAF8EAFE59769
:103A1000C457DF4F19821882CC58D040C158DF4FAD
:103A20001882CF57D040CC56DF4FE881F981C45976
:103A3000D0406080718019A218A28AE691E09F8F21
:103A40008E8F1BA21C821B829A8389831E825E0139
:103A5000FEE1AF0EB11CC5010E94540C73018E0132
:103A60000F5F1F4F1501CA56DF4F0883C659D0405C
:103A7000C956DF4F1883C759D0406FE270E0C701C5
:103A80000E944630009709F463C0F70120812F326D
:103A900071F4FFEFEF1AFF0A902F812F8101292E79
:103AA000382E922D832D1801092F182FE6CF8E194D
:103AB0008D3008F08CE0482E512CA201B701CE01C8
:103AC000885A9F4F0E945830E8E5F0E0EC0FFD1F48
:103AD000E40DF51D1082C8010E94E00EF8018581F9
:103AE000882339F11EAE1DAE8AE691E09CAF8BAF04
:103AF00021961FAE2197C856DF4F08811981C859FA
:103B0000D040060D171DF8018081811130C0BE0123
:103B1000655C7F4FCE0101960E94AD1143EB51E0F1
:103B2000BE016F5F7F4FCE01885A9F4F0E948F1C4E
:103B300045C0AE01485A5F4FB101C8010E945517F8
:103B4000882381F2E40CF51CC1010E94E00EA9CF8C
:103B5000C70186199709C856DF4F99838883C859CA
:103B6000D040B101CE01CB960E94AD11C4CF19A2B5
:103B700018A28AE691E09F8F8E8F1BA221968FADAF
:103B80002197811171C06C961FAE1EAE6C9788EEA6
:103B900093E0A0E0B0E0A0968CAF9DAFAEAFBFAF1A
:103BA000A09786E491E06A969FAF8EAF6A97E396FE
:103BB0001FAE1EAEE397A5961FAEA5976C968EAD71
:103BC0009FAD6C97E7969FAF8EAFE797A0968CADB1
:103BD0009DADAEADBFADA097EB968CAF9DAFAEAF38
:103BE000BFAFEB97A4968CAD9DADAEADBFADA49726
:103BF000EF968CAF9DAFAEAFBFAFEF97A8E5B0E04B
:103C0000AC0FBD1F1C96E3E7F0E0EC0FFD1F3C96E8
:103C100083E790E08C0F9D1F49962D912193E81723
:103C2000F907D9F7E396EEADFFADE397C457DF4F41
:103C3000F983E883CC58D040309721F085810AE0A1
:103C4000811123C18CEA92E00E946704CC56DF4FB9
:103C500088819981C459D0400E94B51869EB71E000
:103C6000C6010E94FD19E7C0A801BE01655C7F4F37
:103C7000CE014E960E945517882309F484CFCE01B9
:103C8000CB960E94E00EBE01625E7F4FCE01019690
:103C90000E94AD11A80144CF8A3009F011C1B401CE
:103CA000CE0182579F4F0E945218019609F4E3C03B
:103CB000F4014480558083EC92E00E946704B401D3
:103CC000CE0182579F4F0E9452188C01040D151D82
:103CD000CE56DF4F88819981C259D0400817190705
:103CE00090F4C257DF4FE880F980CE58D0406AE0A8
:103CF00070E0C701800F911F0E9446309C012E1971
:103D00003F09892B11F42FEF3FEFA801BE01625745
:103D10007F4FCE01CB960E940E1A9201215031099D
:103D200050E040E0B401C5010E940E1ACC56DF4FAE
:103D300068817981C459D040CA56DF4F8881C659FD
:103D4000D040C956DF4F9881C759D0400E94E3192F
:103D500065EB71E0CA56DF4F8881C659D040C9561D
:103D6000DF4F9881C759D0400E948619B5010E9443
:103D70009C1960EB71E00E948619BE01655C7F4F63
:103D80000E949C190E94B518CA56DF4F8881C659F7
:103D9000D040C956DF4F9881C759D0400E942A1998
:103DA000C5010E942A19CE01CB960E942A19C45738
:103DB000DF4F88819981CC58D040009781F00E94D4
:103DC000E00EC457DF4F88819981CC58D0400E94C3
:103DD000EA2EC457DF4F19821882CC58D040B40164
:103DE000CE0182579F4F0E945218480E591ECE5640
:103DF000DF4F88819981C259D0404816590690F406
:103E0000C257DF4F08811981CE58D0406AE070E078
:103E1000C801840D951D0E9446309C01201B310B6A
:103E2000892B11F42FEF3FEFA201BE0162577F4FA4
:103E3000C6010E940E1ACE0182579F4F0E942A1976
:103E4000C601C556DF4F0FB6F894DEBF0FBECDBF1B
:103E5000DF91CF911F910F91FF90EF90DF90CF9066
:103E6000BF90AF909F908F907F906F905F904F909A
:103E70003F902F90089550E040E06CE971E0CE0152
:103E800082579F4F0E94C219012FCE018D589F4F1C
:103E90000E940612892BD9F0CE018D589F4F0E94A7
:103EA0008913182F8F3209F0F7CE0A3049F4CE016A
:103EB0008D589F4F0E948913182F8A30C1F7E4CF85
:103EC000612FCE0182579F4F0E94AF19DDCF6AE06C
:103ED000CE0182579F4F0E94AF19C457DF4F888190
:103EE0009981CC58D040009781F00E94E00EC457D1
:103EF000DF4F88819981CC58D0400E94EA2EC45768
:103F0000DF4F19821882CC58D040F60111821082FE
:103F10001382128215821482C656DF4F688179811E
:103F2000CA59D040C6010E94DF1885CF6F927F9298
:103F30008F929F92AF92BF92CF92DF92EF92FF92B9
:103F40000F931F93CF93DF93CDB7DEB7C254D10940
:103F50000FB6F894DEBF0FBECDBF5C018B01DB0155
:103F60006D907C9011976114710439F01496ED9066
:103F7000FC906301E114F10419F5F8018481958145
:103F8000892B09F05CC06CE971E0C5010E94FD1944
:103F9000C501CE5BDF4F0FB6F894DEBF0FBECDBFBD
:103FA000DF91CF911F910F91FF90EF90DF90CF9015
:103FB000BF90AF909F908F907F906F900895640115
:103FC0004601BFEF8B1A9B0AF6018081082E000C78
:103FD000990B0E94EB2D892B91F7F1E0EF1AF10874
:103FE000E60CF71CD7018C91082E000C990B0E944F
:103FF000EB2D892B39F0EC14FD0420F0B1E0EB1A25
:10400000F108F0CFEFEFEE1AFE0AA7014C195D0997
:10401000D80115965C934E9314976C147D0420F48C
:10402000B601C3010E943D30D801ED91FC9111977A
:1040300014968D919C91E80FF91F10829ECF7E01FE
:10404000FDE3EF0EF11C6CE971E0C7010E94FD1960
:104050006DE971E0CE0101960E94FD19BE016F5F0E
:104060007F4FC8010E9452186C01CE0101960E9438
:104070002A19D7FCBEC06DE971E0CE0185960E9479
:10408000FD19BE016B5D7F4FC8010E9437189C016E
:1040900050E040E0B801CE018B960E940E1A64EC0D
:1040A00071E0CE014F960E94FD19BE01655D7F4F04
:1040B000CE014F960E949C1967EC71E00E94861910
:1040C000BC01CE01C1960E94E31969EC71E0CE01FA
:1040D00049960E94FD196DE971E0CE0101960E949A
:1040E000FD19BE016F5F7F4FC8010E9437189C0108
:1040F00050E040E0B801CE0107960E940E1ABE01C2
:10410000695F7F4FCE010D960E94E31961ED71E06A
:10411000CE010D960E948619BC01CE0143960E94E5
:10412000E3199E012F5C3F4FAE01475E5F4FBE011A
:104130006D5E7F4FCE01C7960E94C41C4BAD5CAD37
:104140006FA978ADC7010E945A19CE01C7960E9487
:104150002A19CE0143960E942A19CE010D960E947B
:104160002A19CE0107960E942A19CE0101960E94B3
:104170002A19CE0149960E942A19CE01C1960E94A1
:104180002A19CE014F960E942A19CE018B960E94C1
:104190002A19CE0185960E942A196BE2C7010E9456
:1041A000AF19D8011496CD90DC906DE971E0CE0185
:1041B00001960E94FD19BE016F5F7F4FC8010E94EA
:1041C0003718AC014F5F5F4F9601B801CE010796DB
:1041D0000E940E1ABE01695F7F4FC8010E94DF185E
:1041E000CE0107960E942A19CE0101960E942A1933
:1041F0002FCF64EC71E0CE0143960E94FD19B80107
:10420000CE0143960E949C1967EC71E00E948619CA
:10421000BC01CE0149960E94E31969EC71E0CE0120
:104220000D960E94FD19B801CE0101960E94E31976
:1042300061ED71E0CE0101960E948619BC01CE01AC
:1042400007960E94E3199E01275E3F4FAE01435F30
:104250005F4FBE01695F7F4FCE014F960E94C41C25
:104260004BA15CA16F8D78A1CE01CD960E945A1909
:10427000CE014F960E942A19CE0107960E942A1954
:10428000CE0101960E942A19CE010D960E942A198C
:10429000CE0149960E942A19CE0143960E942A19FE
:1042A000F501118210821382128215821482BE01DE
:1042B000635C7F4FC5010E94DF18CE01CD960E943E
:1042C0002A1966CECF92DF92EF92FF920F931F933F
:1042D000CF93DF93CDB7DEB762970FB6F894DEBF0A
:1042E0000FBECDBF8C017B016A016CE971E0CE018C
:1042F0000D960E94FD19B601CE0107960E94E319A2
:10430000B701CE0101960E94E3199E01235F3F4F42
:10431000AE01495F5F4FBE016F5F7F4FC8010E94D2
:10432000C41CCE0101960E942A19CE0107960E9454
:104330002A19CE010D960E942A19C80162960FB65D
:10434000F894DEBF0FBECDBFDF91CF911F910F91CB
:10435000FF90EF90DF90CF900895CF93DF93CDB78C
:10436000DEB7E6970FB6F894DEBF0FBECDBF8CE781
:1043700094E00E9467040E94ED0E81110CC085E656
:1043800094E00E94C8180E94ED0E811104C08EE4D2
:1043900094E00E94C81889E394E00E94C8186EE275
:1043A00074E0CE01C1960E94631ABE016F5C7F4F1C
:1043B000CE010D960E94E31966E274E0CE014396A9
:1043C0000E94631AAE01435F5F4FBE016D5E7F4F77
:1043D000CE0107960E946221BE01695F7F4FCE0128
:1043E00001960E94961FBE016F5F7F4F81E195E0AD
:1043F0000E94DF18CE0101960E942A19CE0107966D
:104400000E942A19CE0143960E942A19CE010D96C8
:104410000E942A19BE016F5C7F4FCE010D960E944B
:10442000E3196DE174E0CE0143960E94631AAE0178
:10443000435F5F4FBE016D5E7F4FCE0107960E94C6
:104440006221BE01695F7F4FCE0101960E94961FD7
:10445000BE016F5F7F4F87E195E00E94DF18CE01BC
:1044600001960E942A19CE0107960E942A19CE01B0
:1044700043960E942A19CE010D960E942A19BE0168
:104480006F5C7F4FCE010D960E94E31964E174E0EA
:10449000CE0143960E94631AAE01435F5F4FBE0197
:1044A0006D5E7F4FCE0107960E946221BE01695F5B
:1044B0007F4FCE0101960E94961FBE016F5F7F4F16
:1044C00089E295E00E94DF18CE0101960E942A1928
:1044D000CE0107960E942A19CE0143960E942A19FE
:1044E000CE010D960E942A19BE016F5C7F4FCE014E
:1044F0000D960E94E3196BE074E0CE0143960E9492
:10450000631AAE01435F5F4FBE016D5E7F4FCE0108
:1045100007960E946221BE01695F7F4FCE0101961E
:104520000E94961FBE016F5F7F4F8FE295E00E9451
:10453000DF18CE0101960E942A19CE0107960E942B
:104540002A19CE0143960E942A19CE010D960E9487
:104550002A19BE016F5C7F4FCE010D960E94E319B0
:1045600062E074E0CE0143960E94631AAE01435F9D
:104570005F4FBE016D5E7F4FCE0107960E946221A4
:10458000BE01695F7F4FCE0101960E94961FBE015A
:104590006F5F7F4F85E395E00E94DF18CE010196A3
:1045A0000E942A19CE0107960E942A19CE0143962D
:1045B0000E942A19CE010D960E942A19BE016F5C35
:1045C0007F4FCE010D960E94E31969EF73E0CE0193
:1045D00043960E94631AAE01435F5F4FBE016D5E5A
:1045E0007F4FCE0107960E946221BE01695F7F4F17
:1045F000CE0101960E94961FBE016F5F7F4F8BE335
:1046000095E00E94DF18CE0101960E942A19CE0182
:1046100007960E942A19CE0143960E942A19CE01BC
:104620000D960E942A19BE016F5C7F4FCE010D9638
:104630000E94E31960EF73E0CE0143960E94631A73
:10464000AE01435F5F4FBE016D5E7F4FCE010796A7
:104650000E946221BE01695F7F4FCE0101960E94D8
:10466000961FBE016F5F7F4F81E495E00E94DF18C7
:10467000CE0101960E942A19CE0107960E942A199E
:10468000CE0143960E942A19CE010D960E942A1946
:10469000BE016F5C7F4FCE010D960E94E31964EE60
:1046A00073E0CE0143960E94631AAE01435F5F4FF1
:1046B000BE016D5E7F4FCE0107960E946221BE0152
:1046C000695F7F4FCE0101960E94961FBE016F5F0A
:1046D0007F4F87E495E00E94DF18CE0101960E948B
:1046E0002A19CE0107960E942A19CE0143960E94EC
:1046F0002A19CE010D960E942A19BE016F5C7F4FC8
:10470000CE010D960E94E31967ED73E0CE0143964A
:104710000E94631AAE01435F5F4FBE016D5E7F4F23
:10472000CE0107960E946221BE01695F7F4FCE01D4
:1047300001960E94961FBE016F5F7F4F8DE495E04A
:104740000E94DF18CE0101960E942A19CE01079619
:104750000E942A19CE0143960E942A19CE010D9675
:104760000E942A19BE016F5C7F4FCE010D960E94F8
:10477000E3196AEC73E0CE0143960E94631AAE011E
:10478000435F5F4FBE016D5E7F4FCE0107960E9473
:104790006221BE01695F7F4FCE0101960E94961F84
:1047A000BE016F5F7F4F83E595E00E94DF18CE0169
:1047B00001960E942A19CE0107960E942A19CE015D
:1047C00043960E942A19CE010D960E942A19BE0115
:1047D0006F5C7F4FCE010D960E94E3196DEB73E085
:1047E000CE0143960E94631AAE01435F5F4FBE0144
:1047F0006D5E7F4FCE0107960E946221BE01695F08
:104800007F4FCE0101960E94961FBE016F5F7F4FC2
:1048100089E595E00E94DF18CE0101960E942A19D1
:10482000CE0107960E942A19CE0143960E942A19AA
:10483000CE010D960E942A19BE016F5C7F4FCE01FA
:104840000D960E94E31960EB73E0CE0143960E943F
:10485000631AAE01435F5F4FBE016D5E7F4FCE01B5
:1048600007960E946221BE01695F7F4FCE010196CB
:104870000E94961FBE016F5F7F4F8FE595E00E94FB
:10488000DF18CE0101960E942A19CE0107960E94D8
:104890002A19CE0143960E942A19CE010D960E9434
:1048A0002A19BE016F5C7F4FCE010D960E94E3195D
:1048B00063EA73E0CE0143960E94631AAE01435F40
:1048C0005F4FBE016D5E7F4FCE0107960E94622151
:1048D000BE01695F7F4FCE0101960E94961FBE0107
:1048E0006F5F7F4F85E695E00E94DF18CE0101964D
:1048F0000E942A19CE0107960E942A19CE014396DA
:104900000E942A19CE010D960E942A19BE016F5CE1
:104910007F4FCE010D960E94E31963E973E0CE014B
:1049200043960E94631AAE01435F5F4FBE016D5E06
:104930007F4FCE0107960E946221BE01695F7F4FC3
:10494000CE0101960E94961FBE016F5F7F4F8BE6DE
:1049500095E00E94DF18CE0101960E942A19CE012F
:1049600007960E942A19CE0143960E942A19CE0169
:104970000D960E942A1963ED71E0CE0107960E9400
:10498000FD19BE016F5C7F4FCE010D960E94E319A9
:1049900062E873E0CE0143960E94631A9E01295F8C
:1049A0003F4FAE01435F5F4FBE016D5E7F4FCE0153
:1049B00001960E94C41CCE0101960E94D4187093E7
:1049C000140160931301CE0101960E942A19CE01B1
:1049D00043960E942A19CE010D960E942A19CE01F3
:1049E00007960E942A19BE016F5C7F4FCE01079681
:1049F0000E94E31968E773E0CE010D960E94631AE6
:104A0000AE01495F5F4FBE01635F7F4FCE010196EC
:104A10000E94622166ED71E0CE0143960E94FD196D
:104A2000BE016D5E7F4FCE0101960E9437181816A9
:104A300019066CF1BE016F5C7F4FCE014F960E944C
:104A4000E3196CE673E0CE0185960E94631AAE010D
:104A5000415E5F4FBE016B5D7F4FCE0149960E9464
:104A6000622166ED71E0CE018B960E94FD19CE01A8
:104A70008B960E942A19CE0149960E942A19CE01CE
:104A800085960E942A19CE014F960E942A19CE01BE
:104A900043960E942A19CE0101960E942A19CE013E
:104AA0000D960E942A19CE0107960E942A19CE015E
:104AB000C1960E942A1981E090E0E6960FB6F8941C
:104AC000DEBF0FBECDBFDF91CF9108951F920F9231
:104AD0000FB60F9211248F939F938091E1009091D4
:104AE000E100937F9093E10083FF0FC01092E900F3
:104AF00091E09093EB001092EC0092E39093ED0024
:104B000010921A0298E09093F00082FF22C093E086
:104B10009093E9009091F200992319F09AE3909311
:104B2000E80090911502992341F09091150291505F
:104B300090931502911101C05D9A909119029923E9
:104B400041F090911902915090931902911101C076
:104B5000289A84FF18C08091E2008E7E8160809345
:104B6000E2008091E1008F7E8093E1008091160247
:104B70008E7E8061809316029F918F910F900FBE61
:104B80000F901F90189580FFF7CF8091E2008E7EE6
:104B900080618093E2008091E1008E7E8093E1004D
:104BA000809116028E7E8160E5CF1F920F920FB624
:104BB0000F921124CF92DF92EF92FF920F931F93E7
:104BC0002F933F934F935F936F937F938F939F9315
:104BD000AF93BF93EF93FF93CF93DF93CDB7DEB740
:104BE0006C97DEBFCDBF1092E9008091E80083FF93
:104BF00025C068E0CE0145960E94D20382EF8093E3
:104C0000E8008D8987FF39C09091E80090FFFCCFC4
:104C1000982F907609F034C19E894F89588D2F893D
:104C2000F88C911131C0803861F580911702809322
:104C3000F1001092F1008EEF8093E8006C960FB6B1
:104C4000F894DEBF0FBECDBFDF91CF91FF91EF9102
:104C5000BF91AF919F918F917F916F915F914F9194
:104C60003F912F911F910F91FF90EF90DF90CF9088
:104C70000F900FBE0F901F9018959EEF9093E80035
:104C8000C7CF1092F100D5CF913059F48111D3CF15
:104C90004130510581F6809117028D7F8093170274
:104CA000CACF933049F48111C6CF4130510519F66E
:104CB000809117028260F2CF953041F48091E80034
:104CC00080FFFCCF20682093E300B5CF963009F039
:104CD000A9C00B8D1C8D22E01092E90010921302E6
:104CE00010921202F2122EC01092110210921002B3
:104CF0000E9420041F8299E09983FA8291E09E83AA
:104D000090EA98879AEF99872091120230911302C6
:104D1000275F3F4F3C832B838D831092E9001092D5
:104D2000130210921202109311020093100249E034
:104D300050E0BE016F5F7F4F80E00E949B030E94A6
:104D4000200479CF10931102009310020E940C04EA
:104D5000DC0112960D911C910115110509F451C148
:104D6000D801ED91FC910480F581E02DBE016B5ED0
:104D70007F4FC8010995009709F03EC1F8010085F1
:104D80001185EACFF3E0FF120EC08F89882309F462
:104D900040C0823061F440E860E18BE593E00E941E
:104DA0006803811148CF81E28093EB0047CF8130C7
:104DB00029F440E86BE08FE493E0F1CF833099F77A
:104DC0000E940C04DC011296ED90FC908E010F5FA6
:104DD0001F4F6801E114F10479F0D701ED91FC91C6
:104DE0000680F781E02DB801C7010995080F111D54
:104DF000F701E084F184EECFD8011C92F601019016
:104E00000020E9F73197BF016C197D0940E0C60128
:104E1000C6CF69E373E0FB01449150E080E80E9453
:104E20009B0309CF973009F4BECF983021F481E07D
:104E30008093F10000CF993009F0FDCE837009F026
:104E4000B2CFE1E0F1E081E031E096E3219122236D
:104E500071F08093E9003093EB00DF0111972C9102
:104E60002093EC009093ED008F5F873079F78EE709
:104E70008093EA001092EA008F8980931A02DBCEB9
:104E80008B8D9C8D1092E9001092130210921202E9
:104E90009093110280931002898D811192C08E89A6
:104EA0009D89913A49F4813209F07DCF47E050E085
:104EB0006BE071E080E0B3CF913209F074CF8332C0
:104EC00069F48F89988DB0E0A0E0809307019093FA
:104ED0000801A0930901B0930A01ADCE803269F4B4
:104EE0008091E80082FFFCCF67E08BE091E00E94B8
:104EF000D2038BEF8093E8009ECE823209F09BCEE6
:104F00008F8980931201EEEFFFE7859194918B3F9B
:104F10009C4D51F1E0E0F8E080910B0190910C0183
:104F2000A0910D01B0910E01803B9440A105B10507
:104F3000F1F48091120180FD1AC0EE3F8AE0F8077B
:104F400089F587E797E7918380838091600080935C
:104F5000140288E19BE00FB6F894A8958093600056
:104F60000FBE9093600067CEEEEFFAE0D5CF808160
:104F700091818737974709F05ECEA89580916000B0
:104F80008861809360008091140280936000EE3FFE
:104F90002AE0F20789F08091FE0A9091FF0A91833E
:104FA000808349CE808191818737980751F2909311
:104FB000FF0A8093FE0AC5CF1092FF0A1092FE0AE4
:104FC0003ACE0E940C04DC0112960D911C91011541
:104FD000110509F4E8CED801ED91FC910190F08122
:104FE000E02DBE016B5E7F4FC8010995811123CE74
:104FF000F80100851185EBCF181619060CF41BCEAD
:10500000D2CEF1E0FF12BECE6DE373E004CF1F926B
:105010000F920FB60F9211242F933F938F939F936C
:10502000AF93BF938091FC019091FD01A091FE018F
:10503000B091FF013091FB0123E0230F2D3758F58C
:105040000196A11DB11D2093FB018093FC0190935B
:10505000FD01A093FE01B093FF01809100029091A9
:105060000102A0910202B09103020196A11DB11D9F
:105070008093000290930102A0930202B093030276
:10508000BF91AF919F918F913F912F910F900FBE44
:105090000F901F90189526E8230F0296A11DB11DB1
:1050A000D2CF1F920F920FB60F9211242F933F93DE
:1050B0004F935F936F937F938F939F93AF93BF9320
:1050C000EF93FF93E0912101F09122010995FF9167
:1050D000EF91BF91AF919F918F917F916F915F9170
:1050E0004F913F912F910F900FBE0F901F901895E9
:1050F0001F920F920FB60F9211242F933F934F934D
:105100005F936F937F938F939F93AF93BF93EF932F
:10511000FF93E0911F01F09120010995FF91EF911C
:10512000BF91AF919F918F917F916F915F914F91BF
:105130003F912F910F900FBE0F901F9018951F92C7
:105140000F920FB60F9211242F933F934F935F93BB
:105150006F937F938F939F93AF93BF93EF93FF933F
:10516000E0911D01F0911E010995FF91EF91BF9112
:10517000AF919F918F917F916F915F914F913F91EF
:105180002F910F900FBE0F901F9018951F920F92A6
:105190000FB60F9211242F933F934F935F936F930A
:1051A0007F938F939F93AF93BF93EF93FF93E09180
:1051B0001B01F0911C010995FF91EF91BF91AF91F7
:1051C0009F918F917F916F915F914F913F912F911F
:1051D0000F900FBE0F901F9018951F920F920FB651
:1051E0000F9211242F933F934F935F936F937F936D
:1051F0008F939F93AF93BF93EF93FF93E091190128
:10520000F0911A010995FF91EF91BF91AF919F9194
:105210008F917F916F915F914F913F912F910F905F
:105220000FBE0F901F901895FC01A385B4851097B1
:1052300071F47487638785859685DB0114962D91BB
:105240003C91820F931F968785870895DC018D918D
:105250009C9111970097D1F76D937C93ECCFCF93EE
:10526000DF93109222041092210488EE93E0A0E0D4
:10527000B0E08093230490932404A0932504B0937A
:10528000260488E591E09093200480931F048FEF1B
:105290009FEF90932C0480932B0480E580936F0400
:1052A00010927004109276041092770410927A048F
:1052B00010927C0482E090E0A0E0B0E080937D0456
:1052C00090937E04A0937F04B09380041092940482
:1052D00010929E0410929D048AE691E090939C04A3
:1052E00080939B041092A0041092CA0486E791E078
:1052F0009093C9048093C8048091C004811113C0A5
:105300001092BB041092BA0484EB94E09093BD0415
:105310008093BC048BE290E09093BF048093BE0422
:1053200081E08093C0040E94B0146AEB74E00E9494
:1053300014291092DC041092DB048CE791E0909326
:10534000DA048093D9048091D104811113C01092A2
:10535000CC041092CB048FED94E09093CE04809314
:10536000CD048BE390E09093D0048093CF0481E050
:105370008093D1040E94B0146BEC74E00E94142955
:105380008EE891E09093F4048093F3048091EB0411
:10539000811113C01092E6041092E5048AE195E0B1
:1053A0009093E8048093E70489E190E09093EA0405
:1053B0008093E90481E08093EB040E94B01465EED1
:1053C00074E00E94142910927305109277051092D0
:1053D00076051092780584E991E0909372058093A8
:1053E0007105EDE8F5E089EC95E0108214821382F6
:1053F000158236968E179F07C1F789E291E0909348
:10540000D4058093D30583E291E09093D6058093F1
:10541000D50581E08093D70586E08093D8058AE2A0
:1054200091E09093D2058093D1058AE090E090932B
:10543000DA058093D90584EF91E09093DC058093A1
:10544000DB051092DF051092DE051092CD0510925B
:10545000CE051092CF051092D0051092DD056CE9B3
:1054600071E089E295E00E94FD196CE971E08FE23C
:1054700095E00E94FD196CE971E085E395E00E94DA
:10548000FD196CE971E08BE395E00E94FD196CE970
:1054900071E081E495E00E94FD196CE971E087E418
:1054A00095E00E94FD196CE971E08DE495E00E94A1
:1054B000FD196CE971E083E595E00E94FD196CE946
:1054C00071E089E595E00E94FD196CE971E08FE5D6
:1054D00095E00E94FD196CE971E085E695E00E9477
:1054E000FD196CE971E08BE695E00E94FD1962E020
:1054F00084E00E94980562E083E00E949805E4E65B
:10550000F5E0E491F0E0EE0FFF1FEE5AFA4FA5919F
:10551000B491B0931E05A0931D05E7E3F5E0449117
:1055200040932105E3E6F5E0E491F0E0EE0FFF1F84
:10553000EE5AFA4FC591D491D0932005C0931F0520
:10554000E6E3F5E0E491E093220510922405109241
:10555000250510922605109227052BE33FE1C9018E
:105560000197F1F79C91842F892391E009F490E051
:105570008881E82309F09260909323051092280512
:105580008DE195E09093FE048093FD0488E995E118
:1055900090931A0180931901809169008C7F81603A
:1055A00080936900E89A81E0809328056CE971E0B6
:1055B00081E195E00E94FD196CE971E087E195E0D9
:1055C0000E94FD19809128058230F0F4F8948DE155
:1055D00095E00E9456158091240590912505A09193
:1055E0002605B0912705789480930D0590930E05BC
:1055F000A0930F05B09310056CE971E087E095E08A
:10560000DF91CF910C94FD19F894E5CFCF93DF9300
:1056100000D000D000D0CDB7DEB7789484B58260DA
:1056200084BD84B5816084BD85B5826085BD85B546
:10563000816085BD80916E00816080936E001092C4
:10564000810080918100826080938100809181003F
:1056500081608093810080918000816080938000D0
:10566000809191008260809391008091910081608F
:105670008093910080919000816080939000809150
:10568000C10084608093C1008091C10082608093DA
:10569000C1008091C10081608093C1008091C300EE
:1056A00081608093C3008091C00082608093C000BD
:1056B0008091C20081608093C20080917A008460F2
:1056C00080937A0080917A00826080937A00809142
:1056D0007A00816080937A0080917A00806880935C
:1056E0007A0010921A0210921702109216028091FC
:1056F000D70081608093D70080EA8093D80089B575
:10570000806189BD89B5826089BD09B400FEFDCF85
:1057100061E070E080E090E00E94FD058091D8009B
:105720008F7C80618093D8008091E000807F80939F
:10573000E0008091E1008E7E8093E1008DE0809317
:10574000E200559A209A8FEF9FEF90932C0480935C
:105750002B0460EA7FE080E090E00E94FD050E945B
:10576000AD2189ED94E00E94B61589ED94E00E9488
:1057700033151092CA0419821A821B821C8244E0DB
:1057800050E0BE016F5F7F4F88EC94E00E942215CD
:1057900082E09CE19093DF058093DE0562E084E087
:1057A0000E94980562E080E00E949805412C512CEF
:1057B0003201439440E0842E40E0942E51E0509317
:1057C000DD050E94DF060091CD051091CE052091E8
:1057D000CF053091D005AB01BC01401B510B620BD2
:1057E000730B8091D9059091DA05B0E0A0E010E04C
:1057F00084179507A607B70708F478C01092DD054F
:105800000E94DF0680912805823008F079C1F89463
:105810008DE195E00E945615C0902405D090250595
:10582000E0902605F0902705789480910D059091E1
:105830000E05A0910F05B09110050396A11DB11D95
:105840008C159D05AE05BF05ECF4C0920D05D092F8
:105850000E05E0920F05F09210058091180281115B
:1058600011C067E175E0CE0101960E94E31960E086
:10587000CE0101960E94721BCE0101960E942A1948
:105880000E94C51580910D0590910E05A0910F0500
:10589000B09110050397A109B109C816D906EA0607
:1058A000FB06ECF4C0920D05D0920E05E0920F05B8
:1058B000F092100580911802811111C061E175E02C
:1058C000CE0101960E94E31960E0CE0101960E948C
:1058D000721BCE0101960E942A190E94C5158114DF
:1058E000910409F46BCF0E94000068CF8091D70526
:1058F000181760F4E091D305F091D405E10FF11D84
:1059000062E080810E9498051F5FF0CF312C80916A
:10591000D805381608F061C0E32CF12CE091D505CC
:10592000F091D605EE0DFF1D61E080810E94980583
:10593000E091D505F091D605EE0DFF1D60E0808168
:105940000E946605D301C201032C04C0880F991F71
:10595000AA1FBB1F0A94D2F75C016C01C094D094BB
:10596000212C8091D705281608F5022D10E0E09132
:10597000D305F091D405E00FF11F80810E943A0514
:105980000C5F1F4F000F111FF801EF58FA4F892BC2
:1059900041F4808191818A299B299183808323947A
:1059A000E0CF808191818C219D21F7CFE091D505B9
:1059B000F091D605EE0DFF1D61E080810E94660525
:1059C0008091D5059091D605E80EF91E60E0F701AB
:1059D00080810E94980533949ACF01E715E0780101
:1059E000F701878D90A1892B31F4148E8FEF9FEFF3
:1059F000968F858F11A296E0E90EF11CEDEAEE1666
:105A0000E5E0FE0669F7B12C8091D705B81608F0DD
:105A100053C0A12CCB2CD12CCC0CDD1CC60187583B
:105A20009A4F6C012091D805A21608F043C0F601E8
:105A3000608171810A2C02C0769567950A94E2F71D
:105A4000B29E900111242A0D311DE1E7F5E080E0BE
:105A5000458D568D2417350709F454C08F5F36964F
:105A60008A30B1F760FF24C0E1E7F5E090E080E024
:105A7000448D411118C0E091D105F091D205E20F9B
:105A8000F31F408156E0589FF001599FF00D1124FB
:105A9000EF58FA4F448F368F258F10A2178E61E092
:105AA0000E94EB0605C0019636968A30910501F7F3
:105AB000A394B8CFB394A8CFD12CF80181A18111C0
:105AC000D82E0A5F1F4FE016F106B9F70E94DF06D5
:105AD0006093CD057093CE058093CF059093D0054C
