:100000000C9449020C943F280C9418280C94F12766
:100010000C94CA270C9471020C9471020C94A327BF
:100020000C9471020C9471020C94B8240C94272542
:100030000C9471020C9471020C9471020C94710274
:100040000C9471020C9471020C9471020C94710264
:100050000C9471020C9471020C9471020C94592747
:100060000C9471020C9471020C9471020C94710244
:100070000C9471020C9471020C9471020C94710234
:100080000C9471020C9471020C9471020C94710224
:100090000C9471020C9471020C9471020C94710214
:1000A0000C9471020C9471020C9471020000000017
:1000B0000000000000000000000000002A002B00EB
:1000C0002800000000000000000000000000000008
:1000D0000000000000000000000000000000000020
:1000E0000000000000000000000000002C001E02C4
:1000F00034022002210222022402340026022702B6
:1001000025022E0236002D003700380027001E0081
:100110001F002000210022002300240025002600CB
:100120003302330036022E00370238021F02040267
:10013000050206020702080209020A020B020C026B
:100140000D020E020F02100211021202130214021B
:10015000150216021702180219021A021B021C02CB
:100160001D022F003100300023022D023500040053
:10017000050006000700080009000A000B000C003B
:100180000D000E000F0010001100120013001400EB
:10019000150016001700180019001A001B001C009B
:1001A0001D002F0231023002350200004572726FCD
:1001B00072206F70656E696E67207468652066696D
:1001C0006C650046726F6D20636F6E6669672E7492
:1001D00078743A20006572726F72206F7070656E6D
:1001E000696E67206D617070696E672066696C6505
:1001F0000000000000250028002B002E0031000028
:1002000000000200090F0000030401000C000000C0
:100210000000000000000000000000000000080BCB
:1002200000020202010009040000010202000005B0
:1002300024001001052401010104240206052406FE
:1002400000010705810310004009040100020A00B3
:10025000000007050202400000070583024000007D
:100260000403090412010002EF0201404123368019
:1002700000010102030141726475696E6F204C4CEC
:10028000430041726475696E6F204C656F6E6172D8
:10029000646F006465656A4D6F6465203D2000648D
:1002A00065656A6D6F64653D006465656A53656E7A
:1002B00073697469766974793D004B6E6F6242753B
:1002C00074746F6E486F6C643D00427574746F6E29
:1002D00035486F6C643D00427574746F6E34486FBE
:1002E0006C643D00427574746F6E33486F6C643D8E
:1002F00000427574746F6E32486F6C643D004275D5
:1003000074746F6E31486F6C643D004B6E6F624267
:100310007574746F6E3D00427574746F6E353D0078
:10032000427574746F6E343D00427574746F6E3331
:100330003D00427574746F6E323D00427574746F87
:100340006E313D004B6E6F624343573D004B6E6F05
:100350006243573D00636F6E6669672E7478740060
:10036000696E697469616C697A6174696F6E206421
:100370006F6E652E00696E697469616C697A61746B
:10038000696F6E206661696C65642100696E6974CD
:1003900069616C697A6174696F6E206661696C6508
:1003A000642100496E697469616C697A696E6720BD
:1003B000534420636172642E2E2E0000000000243E
:1003C0000027002A002D00300077007C3C3E5E2B89
:1003D0003D3F2F5B5D3B2C2A225C0005010902A1F9
:1003E00001850105091901290815002501950875E0
:1003F00001810205010930093109381581257F7510
:100400000895038106C005010906A10185020507BB
:1004100019E029E715002501750195088102050CF1
:1004200095017508150026FF00190029FF810005B8
:100430000795067508150026E700190029E78100D1
:10044000C004080201104080401020408040800815
:100450000204018040201002011080102040402042
:10046000000000002300260029002C002F000404B7
:10047000040404030405020202020403020202024D
:1004800006060606060604040202020404006628A4
:10049000112E11241FBECFEFDAE0DEBFCDBF25E065
:1004A000A2EEB1E001C01D92A03EB207E1F711E05B
:1004B000A0E0B1E0E2EBF2E602C005900D92A23EB0
:1004C000B107D9F712E0C8E4D2E004C02197FE01D9
:1004D0000E940A2FC734D107C9F70E945A2A0C94E8
:1004E0004C310C94000096E0899FD0011124A3594F
:1004F000BA4F90967C936E935F9791E091969C9300
:100500009197E091DA05F091DB059091D905992357
:1005100039F0309751F0811108C080918905099414
:10052000309719F05C968C91FACF0895FC01809178
:100530002A02882311F13FB7F89482E08093E90002
:100540002091F200822F90E01816190614F481E031
:1005500090E0882339F0289844E64093290240919E
:10056000F1004083222339F02091F200211103C0D1
:100570002BE62093E8003FBF08958FEF9FEF08958B
:10058000089540911A0250911B0220911802309157
:10059000190242175307B4F49091E8009570E1F303
:1005A0009091E80092FD19C08093F10080911A02A9
:1005B00090911B0201968F739927892B19F48EEF66
:1005C0008093E80080911A0290911B02019690930B
:1005D0001B0280931A0281E0089580E00895EF9253
:1005E000FF920F931F93CF93DF93F82E192FE62ED0
:1005F000042F81E0860F880F0E94C10283E00E94D1
:10060000C102CF2DD12FEC0EFD2EF11CCE15DF0532
:10061000B9F007FF13C0FE0184910E94C102182F98
:1006200080E00E94C102812321968111EFCFDF91EA
:10063000CF911F910F91FF90EF9008958881EDCF9A
:1006400081E0F5CFDF92EF92FF920F931F93CF934C
:10065000DF93D82E8A01EB017B01E40EF51ECE1547
:10066000DF0559F0D7FE12C0FE0184910E94C1023D
:1006700021968111F4CF0FEF1FEFC801DF91CF91C9
:100680001F910F91FF90EF90DF9008958881EECF3A
:100690002FB7F89487708093E9009091E800892F34
:1006A000807295FF04C09091F20080E4891B2FBFF7
:1006B0000895615030F02091F100FC0120830196F3
:1006C000F8CF289884E6809329020895AF92BF92CC
:1006D000CF92DF92EF92FF920F931F93CF93DF930E
:1006E0006C017B018B01040F151FEB015E01AE183D
:1006F000BF08C017D10759F06991D601ED91FC915F
:100700000190F081E02DC6010995892B79F7C5018B
:10071000DF91CF911F910F91FF90EF90DF90CF90DD
:10072000BF90AF9008958091100281110DC082E0BA
:1007300080930C0284E080930D0210920F021092BD
:100740000E0281E0809310028CE092E008950F93F6
:100750001F93CF93DF931F92CDB7DEB782E08983DB
:1007600042E450E06EE172E080E80E9422030E94C1
:100770009303DC0112960D911C910115110589F06E
:10078000D801ED91FC910280F381E02DBE016F5FF5
:100790007F4FC801099597FD04C0F80100851185B8
:1007A000ECCF89810F90DF91CF911F910F91089528
:1007B000CF93DF931F92CDB7DEB76983DC01ED9154
:1007C000FC910280F381E02D41E050E0BE016F5FBB
:1007D0007F4F09950F90DF91CF9108950F931F934D
:1007E000CF93DF938C01D0E0C0E0F801EC0FFD1F48
:1007F0006491662341F08FE294E00E94D803892B34
:1008000011F02196F2CFCE01DF91CF911F910F9180
:10081000089583E08093E9008091F200882319F025
:100820008AE38093E800089583E00E94480390E003
:100830000895CF93DF931F92CDB7DEB7FC01848577
:10084000958597FD08C02FEF3FEF358724870F90E0
:10085000DF91CF910895CE0101960E9496020197F3
:1008600019F4898190E0F3CF8FEF9FEFF0CF0F93D2
:100870001F93CF93DF931F92CDB7DEB78C01FC019E
:100880008485958597FF0BC0CE0101960E94960244
:10089000019771F4898190E0F80195878487F801C8
:1008A000848595850F90DF91CF911F910F910895C9
:1008B0008FEF9FEFF1CFFC018485958597FD0BC0ED
:1008C0009FB7F89482E08093E9008091F2009FBF87
:1008D00090E0019608959FB7F89482E08093E90034
:1008E0008091F2009FBF90E0089581508F3008F012
:1008F00047C0E82FF0E0E158FB4F0C940A2F9C040E
:10090000A0048E0494049804C004C004C004A3048A
:10091000A904AD04B104B704C004BB0480918000F5
:100920008F77809380000895809180008F7DF9CF2C
:1009300080918000877FF5CF84B58F7784BD08953F
:1009400084B58F7DFBCF809190008F77809390004E
:100950000895809190008F7DF9CF80919000877FDE
:10096000F5CF8091C0008F778093C000089580916B
:10097000C0008F7DF9CF8091C200877F8093C20035
:100980000895CF93DF93282F30E0F901E150FE4F17
:100990008491F901EF5BFB4FD491F901E259FB4FD0
:1009A000C491CC23A1F081110E947504EC2FF0E0DA
:1009B000EE0FFF1FE05AFB4FA591B491EC91ED2390
:1009C00081E090E009F480E0DF91CF91089580E02C
:1009D00090E0FACF862F0C94C1041F93CF93DF933E
:1009E000282F30E0F901E150FE4F8491F901EF5BCF
:1009F000FB4FD491F901E259FB4FC491CC23A9F0EC
:100A0000162F81110E947504EC2FF0E0EE0FFF1FEE
:100A1000EF50FE4FA591B4918FB7F894EC9111115E
:100A200008C0D095DE23DC938FBFDF91CF911F915B
:100A30000895DE2BF8CF862F642F0C94ED04CF930E
:100A4000DF9390E0FC01EF5BFB4F249182599B4FB9
:100A5000FC0184918823C9F090E0880F991FFC0164
:100A6000E554FC4FA591B491FC01EF50FE4FC591A8
:100A7000D49161110DC09FB7F8948C912095822379
:100A80008C938881282328839FBFDF91CF9108957D
:100A9000623051F49FB7F8943C91822F8095832364
:100AA0008C93E8812E2BEFCF8FB7F894EC912E2BFF
:100AB0002C938FBFEACF862F642F0C941F053FB76E
:100AC000F8948091080290910902A0910A02B091D5
:100AD0000B0226B5A89B05C02F3F19F00196A11D5A
:100AE000B11D3FBFBA2FA92F982F8827BC01CD0178
:100AF000620F711D811D911D42E0660F771F881FD7
:100B0000991F4A95D1F708958F929F92AF92BF9205
:100B1000CF92DF92EF92FF924B015C010E945F0542
:100B20006B017C010E945F056C197D098E099F098C
:100B3000683E734081059105A8F321E0821A91086F
:100B4000A108B10888EEC80E83E0D81EE11CF11C94
:100B500081149104A104B10429F7FF90EF90DF9074
:100B6000CF90BF90AF909F908F9008957F928F927B
:100B70009F92AF92BF92CF92DF92EF92FF920F932C
:100B80001F93CF93DF93C82E8B017A0180912A02A5
:100B9000811110C08FEF9FEFDF91CF911F910F91C7
:100BA000FF90EF90DF90CF90BF90AF909F908F908D
:100BB0007F90089580911E0280FF05C08091E00023
:100BC00082608093E000CE2DDF2DD12C8AEFB82EED
:100BD0008C2D8770982E8C2D8072882E8C2D807491
:100BE000782E9AE3A92E209719F4DD2009F452C03B
:100BF0008C2D0E94480381110AC0BA94BB2051F287
:100C000061E070E080E090E00E948405ECCF8C17FA
:100C10001D0611F00CF08C2F9FB7F8949092E9000C
:100C20002091E80025FD02C09FBFDDCF282F30E0D6
:100C3000C21BD30B882029F08150A0F01092F10044
:100C4000FBCFF801C7FC0AC0815050F0419140939E
:100C5000F100FACF44914093F10031968150D0F7E2
:100C6000020F131FDD2021F0A092E800D12CDCCF71
:100C70008091E80085FD07C0A092E800DD24D394B0
:100C8000209791F2F3CF209779F6772069F2A0921E
:100C9000E800CACF5D9884E680931D02C7017CCF2F
:100CA000CF93DF93EC0180911201882331F083E030
:100CB0000E94B6051816190634F081E090E09B8377
:100CC0008A8380E090E0DF91CF9108952FB7F89468
:100CD00060910402709105028091060290910702D2
:100CE0002FBF08950F931F93CF93DF93C82FD62F55
:100CF00086E0C89FF0011124E359FA4F11A2878DB5
:100D000090A181309105F1F058F082309105F1F118
:100D1000039709F440C0DF91CF911F910F9108957F
:100D20006623C9F361E070E08C2F0E9473020E9479
:100D300066066093C5057093C6058093C7059093BA
:100D4000C805E9CF0E9466060091C5051091C60549
:100D50002091C7053091C805AB01BC01401B510B68
:100D6000620B730B8091D7059091D805B0E0A0E09D
:100D700084179507A607B70748F462E070E08C2F48
:100D8000DF91CF911F910F910C94730263E070E09B
:100D9000D111C1CFF4CF70E060E0F1CF08958FB7EB
:100DA000F8948091FE018FBF089561E0FC01848179
:100DB0000E94ED048091FD0181111092FD010895C2
:100DC0008EBD00000DB407FEFDCF8EB508958FEFE8
:100DD0000C94E0060F931F93CF93DF93EC010E94D6
:100DE00066068B010E94E7068F3F69F00E94660647
:100DF000601B710B6C177D07A8F380E0DF91CF912A
:100E00001F910F91089581E0F9CF8CBD9DBD08958C
:100E1000CF93DF93EC018091FD01811109C081E046
:100E20008093FD0180917F04909180040E940507CA
:100E300060E08C81DF91CF910C94ED048F929F92B2
:100E4000AF92BF92FF920F931F93CF93DF93EC016A
:100E5000F62E49015A018E81882389F08F81988569
:100E60009C012F5F3F4F38872F838230924018F4C8
:100E70000E94E706F3CFCE010E94D5061E82CE0166
:100E80000E9408078CE291E00E94EA068F2D8064A0
:100E90000E94E00608E110E0D501C401002E04C064
:100EA000B695A795979587950A94D2F70E94E00684
:100EB00008501109083F8FEF180771F785E9FF20E7
:100EC00021F028E087E8F2128FEF0E94E00610E0A0
:100ED0000E94E7068A8787FF04C01F3F11F01F5F4B
:100EE000F7CFDF91CF911F910F91FF90BF90AF90FF
:100EF0009F908F900895AF92BF92CF92DF92EF9222
:100F0000FF920F931F93CF93DF93EC016901C80108
:100F1000820F931F8130924050F58E81882379F0A3
:100F200088819981AA81BB8184179507A607B70795
:100F300031F48F819885C816D90608F042C04883DD
:100F400059836A837B838B85833039F089E0440F32
:100F5000551F661F771F8A95D1F79A01AB0161E192
:100F6000CE010E941E07882389F083E08D83CE0185
:100F70000E94D50680E0DF91CF911F910F91FF90E5
:100F8000EF90DF90CF90BF90AF9008950E946606DB
:100F90005B010E94E7068A878F3F69F40E9466061C
:100FA0006A197B096D327140A0F38FE08D83CE0109
:100FB0000E94D506DCCF8E3F89F418861F8281E01F
:100FC0008E838F8198858C159D0550F40E94E706CD
:100FD0008F819885019698878F83F3CF8DE0E6CF38
:100FE0006701E00EF11E0E94E706F60181936F0192
:100FF000EE15FF05C1F78F819885080F191F188717
:101000000F838985882319F001151240A0F08E8185
:10101000882389F08F8198859C012F5F3F4F388707
:101020002F838230924018F40E94E706F3CFCE015E
:101030000E94D5061E8281E09ECFCF92DF92EF9272
:10104000FF920F93CF93DF93EC01690182E1411589
:1010500051056105710599F08B85833039F089E080
:10106000440F551F661F771F8A95D1F79A01AB0170
:1010700068E1CE010E941E07882319F084E08D8369
:101080002DC08EEF0E94E00676018EEFD81AF70190
:1010900081917F010E94E006EC14FD04C1F78FEFFF
:1010A0000E94E0068FEF0E94E0060E94E7068A8712
:1010B0008F71853071F4011116C0CE010E94D506E2
:1010C00081E0DF91CF910F91FF90EF90DF90CF9073
:1010D000089581E18D83CE010E94D506CE010E9444
:1010E000D50680E0EECF88E592E00E94EA06811105
:1010F00002C085E1C4CF20E030E0A9016DE0CE015F
:101100000E941E07882311F084E1B9CF0E94E706F0
:101110008111FACFD2CF0F934091FF01509100027D
:10112000609101027091020241155105610571053E
:1011300099F0082F2FE232E080912C0290912D023D
:101140000E941D08882349F01092FF0110920002AE
:10115000109201021092020281E00F9108950F9304
:10116000CF93C82F80912E02811105C0C1E08C2F32
:10117000CF910F91089540912501509126016091E2
:101180002701709128010C2F2FE232E080912C0270
:1011900090912D020E941D08811102C0C0E0E7CF8E
:1011A000CC2321F381E00E948B088823B9F31092AD
:1011B0002E02DDCF8F929F92AF92BF92EF92FF925D
:1011C0000F931F93CF934B015C01C42F8091250196
:1011D00090912601A0912701B091280188159905C9
:1011E000AA05BB0551F181E00E94AF0881110BC037
:1011F00080E0CF911F910F91FF90EF90BF90AF9043
:101200009F908F9008958FE2E82E82E0F82E00E004
:1012100012E030E020E0B501A40180912C02909111
:101220002D020E947B07882319F38092250190925A
:101230002601A0922701B092280140912E024C2B4A
:1012400040932E0281E0D5CF8F929F92AF92BF92B2
:10125000CF92DF92EF92FF92CF9321E834E0309368
:101260002D0220932C02882309F46DC040E060E039
:1012700070E0CB010E94DA0881110BC080E0CF91B1
:10128000FF90EF90DF90CF90BF90AF909F908F90A6
:1012900008958091ED038F7789F78091F9039091FC
:1012A000FA03A091FB03B091FC0384369105A105DC
:1012B000B10520F3C090F503D090F603E090F7035A
:1012C000F090F803C114D104E104F104B9F240E054
:1012D000C701B6010E94DA08882381F280913A02A0
:1012E00090913B028115924049F6A0913F02AA23BA
:1012F00029F260913D0270913E026115710509F479
:10130000BDCF20913C02222309F4B8CFA0939F04C3
:101310002093910490E080E030E0E1E0F0E0C82F1D
:10132000AF01082E02C0440F551F0A94E2F724179C
:10133000350769F041E0480F01968930910579F74A
:1013400040939A049BCFC12CD12C7601C0CF8093BF
:101350009A04209145023091460250E040E0211568
:10136000310541F4209153023091540240915502CD
:101370005091560220939204309393044093940426
:101380005093950446015701860E971EA11CB11C6F
:101390008092A0049092A104A092A204B092A3040F
:1013A000E0914002F0914102F093A604E093A5047D
:1013B000B0E00E94B92EDC01CB01880D991DAA1D59
:1013C000BB1D8093A7049093A804A093A904B09395
:1013D000AA0425E0EE0FFF1F2A95E1F7E150FE4F2A
:1013E000EF2FFF27E6958E0F9F1FA11DB11D809344
:1013F0009B0490939C04A0939D04B0939E048090C2
:10140000420290904302B12CA12C8114910441F42A
:1014100080904F0290905002A0905102B0905202E2
:10142000C81AD90AEA0AFB0AC80CD91CEA1CFB1C18
:1014300004C0F694E794D794C794CA95D2F7C092A3
:101440009604D0929704E0929804F092990485EF64
:10145000C8168FE0D806E104F10428F48CE08093EC
:10146000A40481E00CCF80E125EFC2162FEFD20655
:10147000E104F104A0F380915B0290915C02A091E1
:101480005D02B0915E028093A7049093A804A0939C
:10149000A904B093AA0480E2E2CF4F925F926F92C8
:1014A0007F928F929F92AF92BF92CF92DF92EF92F4
:1014B000FF920F931F93CF93DF93EC0142305105BE
:1014C0006105710590F480E0DF91CF911F910F913C
:1014D000FF90EF90DF90CF90BF90AF909F908F9054
:1014E0007F906F905F904F90089589859A85AB8526
:1014F000BC850196A11DB11D84179507A607B707E6
:1015000010F3CB88DC88ED88FE888F89803109F064
:1015100042C0BB27A72F962F852F480159012A01CA
:101520003B01C80ED91EEA1EFB1E80912501909139
:101530002601A0912701B0912801C816D906EA0614
:10154000FB0699F58F898031C1F5B301A2015527BA
:1015500066277727440F551F415D5D4FFA01918241
:10156000808280912E02816080932E028A8982304F
:1015700080F08D819E81AF81B8858C0D9D1DAE1D43
:10158000BF1D8093FF0190930002A0930102B093CE
:10159000020281E099CFDB01CA01E7E0B695A79589
:1015A00097958795EA95D1F7B8CF40E0C701B60186
:1015B0000E94DA088111C6CF86CFB301A2014F770E
:1015C000552766277727440F551F440F551F415D48
:1015D0005D4FFA0180829182A282B382C2CF8F9244
:1015E0009F92AF92BF92CF92DF92EF92FF920F93B2
:1015F0001F93CF93DF93FC0181859285A385B485EA
:101600000196A11DB11D84179507A607B70770F4B1
:1016100080E0DF91CF911F910F91FF90EF90DF90CD
:10162000CF90BF90AF909F908F90089583889488BB
:10163000A588B6888789803189F5BB27A72F962F83
:10164000852FE9016A017B018F01BC01CD01680D85
:10165000791D8A1D9B1D8090250190902601A090E8
:101660002701B090280186169706A806B90601F54D
:10167000F8018789803111F5DD24EE24FF24F6017D
:10168000EE0FFF1FE15DFD4F80819181B0E0A0E092
:1016900088839983AA83BB8381E0BBCFDB01CA0126
:1016A000C7E0B695A79597958795CA95D1F7C9CF05
:1016B00040E00E94DA088111DBCFAACFE894C7F896
:1016C000DD24EE24FF24F601EE0FFF1FEE0FFF1FB7
:1016D000E15DFD4F80819181A281B381BF70D8CF40
:1016E0004F925F926F927F92AF92BF92CF92DF92B2
:1016F000EF92FF920F931F93CF93DF9300D000D010
:10170000CDB7DEB78C0149835A836B837C83590143
:10171000C12CD12C7601412C82E0582E612C712CE9
:1017200049815A816B817C819E012F5F3F4FC801A7
:101730000E94EF0A882339F1F8018585A3019201FF
:1017400004C0220F331F441F551F8A95D2F7DA01B8
:10175000C901C80ED91EEA1EFB1E49815A816B8140
:101760007C818789803111F188EF9FEFAFEFBFE077
:10177000481759076A077B0798F2F501C082D182A2
:10178000E282F38281E00F900F900F900F90DF9133
:10179000CF911F910F91FF90EF90DF90CF90BF906E
:1017A000AF907F906F905F904F90089588EF9FEF7C
:1017B000A0E0B0E0DDCFCF93DF93FC0125812223B1
:1017C00021F080E0DF91CF910895EC018091A40495
:1017D000803159F582E08583178A108E118E128E22
:1017E0008091A5049091A604B0E0A0E025E0880FC8
:1017F000991FAA1FBB1F2A95D1F7838B948BA58BAA
:10180000B68B8DE894E09C8F8B8F81E08C831E8259
:101810001F82188619861A861B861C861D861E86C0
:101820001F86188A198A1A8ACDCF803251F683E032
:1018300085834091A7045091A8046091A9047091F8
:10184000AA04478B508F618F728F9F012D5E3F4F8F
:101850008DE894E00E94700B8111D3CFB2CF8F92AC
:101860009F92AF92BF92CF92DF92EF92FF920F932F
:101870001F93CF93DF93EC018D8181110EC080E027
:10188000DF91CF911F910F91FF90EF90DF90CF905C
:10189000BF90AF909F908F9008950B891C892D89E0
:1018A0003E89041715072607370748F34A015B01ED
:1018B000823031F48A869B86AC86BD8681E0E0CF9B
:1018C00081149104A104B10449F41E821F82188678
:1018D00019861A861B861C861D86F0CF0A851B85F5
:1018E0002C853D85EB8DFC8D858590E00996B901B1
:1018F000A8014150510961097109082E04C076956B
:101900006795579547950A94D2F775016401E1E010
:10191000CE1AD108E108F10804C0F694E794D794F0
:10192000C7948A95D2F7C416D506E606F70620F0C6
:10193000012B022B032B11F58F89988DA98DBA8D60
:101940008E839F83A887B9878E010A5F1F4FC114BA
:10195000D104E104F10409F4ADCF4E815F816885C3
:10196000798598018B8D9C8D0E94EF0A91E0C91AB0
:10197000D108E108F1088111EACF81CFC41AD50A54
:10198000E60AF70AE1CF3F924F925F926F927F9201
:101990008F929F92AF92BF92CF92DF92EF92FF927F
:1019A0000F931F93CF93DF93CDB7DEB72C970FB66E
:1019B000F894DEBF0FBECDBF5C01DC015B968D905D
:1019C0009C905C9716964D905D906D907C901997C9
:1019D000411451046104710409F468C0BFEF4B1A4B
:1019E0005B0A6B0A7B0A312CF40181859285A38501
:1019F000B4859C01AD012F5F3F4F4F4F5F4F29874B
:101A00003A874B875C87730162011D821E821F82A9
:101A10001886F40181859285A385B4852D813E8148
:101A20004F815885281739074A075B0708F056C0C9
:101A300089859A85AB85BC858C159D05AE05BF054E
:101A400050F482E0C82ED12CE12CF12C92E0492EEA
:101A5000512C612C712C9E012F5F3F4FB701A601C5
:101A6000C4010E94EF0A8823C9F189819A81AB8160
:101A7000BC81892B8A2B8B2B09F1260137019FEF23
:101A8000491A590A690A790A2D813E814F81588580
:101A90002F5F3F4F4F4F5F4F2D833E834F835887BC
:101AA0003FEFC31AD30AE30AF30AB3CFF40140802D
:101AB0005180628073803324339496CFC414D5044C
:101AC000E604F70409F70FEF1FEF2FEF3FE0B70130
:101AD000A601C4010E944D0A811119C080E02C9614
:101AE0000FB6F894DEBF0FBECDBFDF91CF911F912F
:101AF0000F91FF90EF90DF90CF90BF90AF909F90AD
:101B00008F907F906F905F904F903F900895D50198
:101B100016964D915D916D917C91199741155105E6
:101B20006105710539F097018601C4010E944D0AD3
:101B30008823A1F2D5011696CD92DD92ED92FC920A
:101B40001997332051F0D701C6010196A11DB11D8F
:101B5000F40180839183A283B383F5018789908DFB
:101B6000A18DB28D892B8A2B8B2B39F48481C78A66
:101B7000D08EE18EF28E80688483F501848180624C
:101B8000848381E0ACCF1F93CF93DF93FC01258149
:101B90002223D1F1162FEC01848187FF2AC06685AC
:101BA00077858089918941E00E94DA08882361F174
:101BB000EA8980E2E89FF0011124E15DFD4F309752
:101BC00019F18D81823040F48B899C89AD89BE8961
:101BD000848F958FA68FB78F8F89988D938F828FE3
:101BE0008F89988DA98DBA8DB58BA48B8C818F77B9
:101BF0008C83111103C08C818F7E8C83812FDF91A8
:101C0000CF911F910C94AF0880E0DF91CF911F918D
:101C10000895FF920F931F93CF93DF93EC018D8173
:101C2000813041F090E080E0DF91CF911F910F91E2
:101C3000FF9008958C8181FFF5CF82FD1BC000913C
:101C40002C0210912D02C8010E9408070E94E7068D
:101C5000F82EC8010E94D5068FEFF812E3CF8C81D1
:101C600085FF1BC060E0CE010E94C30D8C818F7D7B
:101C70008C83D8CF4B895C896D897E898A859B85C9
:101C8000AC85BD8584179507A607B707C1F2CE01BD
:101C90000E942F0C8111D3CFC5CF4091FF015091ED
:101CA00000026091010270910202452B462B472BE6
:101CB00021F080E00E948B08B5CF80618C832A855B
:101CC0003B85317080E092E0821B930BADCFCF93C8
:101CD000DF93EC0161E00E94C30D882311F01D82A7
:101CE00081E0DF91CF910895CF92DF92EF92FF9242
:101CF0001F93CF93DF938091B004882321F08BEA68
:101D000094E00E94670E10928C0410928A04109244
:101D10008704109286048AE0809385040E946606F8
:101D2000EB0161E0809185040E941F0561E08091D4
:101D300085040E94ED041FB7F89480912B02811155
:101D400027C0EFE7F4E08491E2E5F4E09491E82F16
:101D5000F0E0EE0FFF1FE554FC4FA591B491EC911C
:101D6000E92321F461E081E10E94ED0461E081E179
:101D70000E941F058CB580618CBD8CB580648CBDC4
:101D800061E08FE00E941F0561E080E10E941F0575
:101D900080912B028F5F80932B021FBF82E580937F
:101DA0007F041092800480917F04909180040E94AF
:101DB00005071AE08FEF0E94E0061150D9F781E87D
:101DC00094E00E94080720E030E0A90160E081E88B
:101DD00094E00E941E07182F80938B04813081F0BD
:101DE0000E9466066C1B7D0B613D774060F381E0CD
:101DF0008093860481E894E00E94D50690E078C044
:101E00002AEA31E040E050E068E081E894E00E9496
:101E10001E0782FF2AC010938C0480918C04C12C71
:101E2000D12C7601823029F4C12CD12CE12C80E414
:101E3000F82E20E030E0A90167E381E894E00E94F9
:101E40001E07A701960169E281E894E00E941E073F
:101E500080938B048823C1F00E9466066C1B7D0B67
:101E6000613D774030F388E0C3CF14E00E94E7067D
:101E700080938B041150D1F78A3A11F082E0B8CFE9
:101E800082E080938C04C9CF80918C048230D1F49D
:101E900020E030E0A9016AE381E894E00E941E0797
:101EA000882311F086E0A4CF0E94E706807C803C66
:101EB00019F483E080938C040E94E7060E94E706F1
:101EC0000E94E70681E894E00E94D50680E58093B1
:101ED0007F041092800481E00E942409882389F005
:101EE0008BEA94E00E94DB0B91E0882309F486CF13
:101EF000892FDF91CF911F91FF90EF90DF90CF90CE
:101F0000089580E00E942409882309F477CFE8CF60
:101F10002F923F924F925F926F927F928F929F92F9
:101F2000AF92BF92CF92DF92EF92FF920F931F93E7
:101F3000CF93DF9300D000D01F92CDB7DEB77C01E6
:101F40005B01342E5D83DC0115968C9115978130F1
:101F500009F0CEC014962C9021FECAC022FCB4C059
:101F6000C32CDD8022947FE027222094B22DB17013
:101F70002B2ED7011A964D915D916D917C911D97F5
:101F8000C114D10409F428C15B968D919C915C9792
:101F9000FC0174807A948A019B0169E0369527954B
:101FA000179507956A95D1F770228A011170711003
:101FB00020C001151105E9F416964D915D916D91C2
:101FC0007C911997411551056105710509F099C07A
:101FD00057968D919D910D90BC91A02D0097A105D4
:101FE000B10509F0B0C0C7010E94C30C882309F4F1
:101FF0007FC080E092E0801B910B46018C159D050F
:1020000008F44C01D7015B964D915C915C97169654
:102010008D919D910D90BC91A02D0297A109B109C0
:10202000FA01258504C0880F991FAA1FBB1F2A9596
:10203000D2F74685578560897189840F951FA61F41
:10204000B71F9C01AD01270D311D411D511D2901F7
:102050003A01811432E0930609F07BC0809125019A
:1020600090912601A0912701B09128018415950532
:10207000A605B70559F48FEF9FEFDC01809325018A
:1020800090932601A0932701B0932801022D95017A
:10209000B301A20180912C0290912D020E941D0893
:1020A000882331F19EEFB91AC818D908F701828543
:1020B0009385A485B585880D991DA11DB11D8287C5
:1020C0009387A487B58755CFF701438954896589DC
:1020D000768982859385A485B585481759076A074F
:1020E0007B0709F43DCFC7010E942F0C811138CF27
:1020F00081E090E0D70113969C938E93129780E035
:1021000007C09E012F5F3F4F0E94EF0A811102C05E
:1021100090E079C089819A81AB81BC81F701238DE0
:10212000348DF901278948EF5FEF60E070E02031DE
:1021300021F048EF5FEF6FEF7FE084179507A60768
:10214000B70708F050CFF70186839783A087B18740
:1021500050CF0115110599F5D7011A964D915D9152
:102160006D917C911D9753968D919D910D90BC9191
:10217000A02D481759076A077B0708F181E00E94E4
:10218000AF08882309F4B4CF40922501509226016C
:10219000609227017092280180912E0281608093C5
:1021A0002E02C801815D9D4FD5019C01280D391D6E
:1021B000FC012E173F0759F04D914193FACF41E0B2
:1021C000C301B2010E94DA088111EBCF91CF281B25
:1021D000390BA20EB31E68CFF70183899489A589B4
:1021E000B68984179507A607B70738F48481438B0F
:1021F000548B658B768B80688483F701848183FDA3
:102200001AC0832D9D810F900F900F900F900F900B
:10221000DF91CF911F910F91FF90EF90DF90CF90C2
:10222000BF90AF909F908F907F906F905F904F90F6
:102230003F902F90089561E0C7010E94C30D88234D
:1022400009F456CFDECFCF93DF931F92CDB7DEB721
:10225000698341E050E0BE016F5F7F4F0E94880FAD
:102260000F90DF91CF910895FC01DB0112968D91C3
:102270009C911397938382838AE791E09183808373
:1022800014968C911497848315968C911597858359
:1022900016964D915D916D917C9119974683578368
:1022A000608771871A964D915D916D917C911D9714
:1022B00042875387648775871E964D915D916D9116
:1022C0007C91519746875787608B718B52968C9182
:1022D0005297828B53964D915D916D917C9156975B
:1022E000438B548B658B768B57964D915D916D9199
:1022F0007C915A97478B508F618F728F5B968D912F
:102300009C91948F838F0895FC01818D928D00970D
:1023100019F061E00C94C30D0895DC015996ED911C
:10232000FC913097B9F083899489A589B689428553
:10233000538564857585841B950BA60BB70B81159A
:1023400020E89207A105B10538F08FEF9FE7A0E0E4
:10235000B0E0089590E080E00895DC0159968D91F9
:102360009C91009739F0DC01ED91FC910480F5819E
:10237000E02D099490E080E00895CF93DF93EC0185
:10238000E98DFA8D309749F481E090E09B838A8350
:1023900090E080E0DF91CF91089513821282898DC1
:1023A0009A8D0E94880FE98DFA8D22813381232B2B
:1023B00059F7F0CFCF93DF931F92CDB7DEB7698384
:1023C000DC01ED91FC910280F381E02D41E050E0D1
:1023D000BE016F5F7F4F09950F90DF91CF910895F8
:1023E0002F923F924F925F926F927F928F929F9225
:1023F000AF92BF92CF92DF92EF92FF920F931F9313
:10240000CF93DF9300D01F92CDB7DEB7FC0185815B
:10241000811118C08FEF9FEF0F900F900F90DF91F9
:10242000CF911F910F91FF90EF90DF90CF90BF90D1
:10243000AF909F908F907F906F905F904F903F9064
:102440002F900895848180FFE5CF43895489658961
:10245000768982859385A485B585312C212C4817F2
:1024600059076A077B0719F022242394312C6F0146
:102470002101CE0101963C01DF011696BB83AA83A0
:102480004114510409F4C5C0F601428553856485A1
:1024900075854A01F1E09F22D6015B968D919C9152
:1024A0005C978A019B01E9E036952795179507957A
:1024B000EA95D1F71596EC91E230E9F5FC01628DD1
:1024C000738D848D958D600F711F821F931FA12CBA
:1024D00022E0B22EA818B9084A145B0408F452018D
:1024E000F601248126FD04C0A114F2E0BF0671F4B8
:1024F000009125011091260120912701309128019A
:10250000061717072807390709F05EC040E00E9448
:10251000DA08882309F47ECFC401815D9D4FD30181
:102520009C012A0D3B1DFC012E173F0709F46CC0CE
:1025300041914D93F9CFDC011496BC90BA94B0222E
:102540008114910479F4B1100DC0452B462B472B13
:1025500069F5F6018789908DA18DB28D8683978369
:10256000A087B187D6015B96ED91FC915C9716969A
:102570006D917D918D919C9119976250710981099E
:102580009109258504C0660F771F881F991F2A951A
:10259000D2F70685178520893189600F711F821F48
:1025A000931F6B0D711D811D911D91CFD601169644
:1025B0004D915D916D917C9119972A813B810E948B
:1025C000EF0A8111CFCF26CF730185019401AB01B2
:1025D000BC0180912C0290912D020E947B078823E0
:1025E00009F418CF6A0C7B1CF60182859385A485BB
:1025F000B5858A0D9B1DA11DB11D82879387A48778
:10260000B5874A185B083CCF281B390B620E731E36
:10261000EBCF2A94232809F0FDCE898190E0FCCEEF
:10262000FC01818D928D009711F00C94F0118FEFC9
:102630009FEF08950F931F93CF93DF93EC01898D44
:102640009A8D10E000E0009799F00E94F0118C0143
:102650000F3F100769F0898D9A8DFC0142855385E3
:102660006485758541505109610971090E942F0CDB
:10267000C801DF91CF911F910F910895DC01FB01FB
:1026800012962C911297848195812817190641F48E
:1026900091818081813A31F49D7F81E0913009F010
:1026A00080E008958132E1F79B3029F482811F9602
:1026B0008C9381E008959A3099F7828150968C939B
:1026C000F8CFAF92BF92CF92DF92EF92FF920F932B
:1026D0001F93CF93DF931F92CDB7DEB77C01698341
:1026E0006A01590141E050E0BE016F5F7F4FFC017C
:1026F00083810E94B6058C0197FD0BC0F701838191
:10270000A501B60180640E94B605080F191F97FD48
:102710008C01C8010F90DF91CF911F910F91FF9015
:10272000EF90DF90CF90BF90AF900895DC01FB0158
:1027300088E4808389E4818384E482831D969C916C
:102740001D979F709F5B93831D968D919C9124E0B4
:10275000969587952A95E1F78F708F5B848385E046
:102760000895EF92FF920F931F93CF93DF93FB0196
:102770002081213871F52381223259F5DC0112962E
:102780004C91248135814217130619F5EC010B8514
:102790001C85F12CE12C0115110589F0F80144810B
:1027A00055816281738180E80E9422038F3F9807E0
:1027B00049F0E80EF91ED8010D911C91ECCF81E093
:1027C0008F87C701DF91CF911F910F91FF90EF90FD
:1027D000089590E080E0F6CFCF93DF93CDB7DEB7DA
:1027E00069970FB6F894DEBF0FBECDBFFC01DB01C9
:1027F0008C918F5F8C939E012D5F3F4F8DE0D901AF
:102800001D928A95E9F729E0298384E08A8391E083
:102810009D8383E08E832A8721E22B879C879D8777
:102820009F8722E2288B27E02B8B25E02C8B8E8B39
:1028300020E430E0388F2F8B998F82818B839585B0
:102840008685998B8A8B838180688D8B49E150E0E6
:10285000BE016F5F7F4F80E00E94220369960FB632
:10286000F894DEBF0FBECDBFDF91CF910895CF9317
:10287000DF938091F501811167C081E08093E801C9
:102880008093E9012EEE31E03093EB012093EA01D1
:102890001092ED011092EC012AE431E03093E50151
:1028A0002093E4011092F0011092EF011092F201D6
:1028B0001092F1018093F3018093F40181EC8093F5
:1028C000EE010E949303FC0181819091E801482F61
:1028D000490F5527551F483051059CF5A281B381FA
:1028E000109709F524EE31E0338322832081209371
:1028F000E6018093E7018091E901820F80832091B6
:10290000EA01A22FB091EB018A2F821B8917C8F42C
:1029100081813D91C82FD0E0C050DF4F38838F5F59
:102920008183F2CFD90118962D913C9119972115E9
:102930003105C1F724EE31E019963C932E93189798
:10294000D5CF81E08093F50184EE91E0DF91CF91C6
:1029500008950F931F93CF93DF93EB018A010E9499
:1029600037149801AE0161E0DF91CF911F910F9173
:102970000C946113CF93DF93EC010E943714AE01E6
:102980004C5F5F4F28E030E062E0DF91CF910C9424
:10299000611390E080E00895CF93DF93FB012281E3
:1029A0003381DC0113963C932E9312974481558119
:1029B0006681778114964D935D936D937C93179701
:1029C000408551856285738518964D935D936D930F
:1029D0007C931B971C96EF012C969C01275E3F4F22
:1029E00049914D93A217B307D9F7218D328DFC0180
:1029F000328F218FDF91CF910895DC01ED91FD9110
:102A00008081ED91FD919081ED91FD916C916370CC
:102A10008E2309F064609F2309F06860EAE1F5E124
:102A2000E60FF11D659565956D936D917D918D9185
:102A30009D91099423C01AC012C016C010C01EC0B8
:102A400009C014C013C006C019C009C00DC007C01A
:102A50000DC014C062507040804090400BC0615067
:102A600070408040904006C06E5F01C06F5F7F4F36
:102A70008F4F9F4F9E938E937E936E930895809178
:102A8000F5049091F6040C94FD148091F704909154
:102A9000F8040C94FD148091F9049091FA040C94BC
:102AA000FD148091FB049091FC040C94FD14809122
:102AB000FD049091FE040C94FD14FC019C01285F20
:102AC0003F4F90E080E0448141110196148231969D
:102AD000E217F307C1F7089589EE94E00E945D15AF
:102AE000892B21F089EE94E00C94BA140895CF93C9
:102AF000DF93DC0190E2960F9830B0F414968C913D
:102B0000149721E030E001C0220F9A95EAF74423A0
:102B100041F0282B14962C9381E090E0DF91CF9127
:102B2000089520952823F6CFFD0136964423D1F051
:102B3000CD010C96EF012991621771F3C817D907DF
:102B4000D1F790E080E02191211105C0A80FB91FB5
:102B500016966C93E1CF019686309105A1F790E02F
:102B600080E0DCCF90E080E02191621305C0A80FE7
:102B7000B91F16961C92D0CF019686309105A1F709
:102B8000EECFCF92DF92FF920F931F93CF93DF93FD
:102B900067FF10C021E030E0FC013383228310E0A6
:102BA00000E0C801DF91CF911F910F91FF90DF905E
:102BB000CF900895F42EEC01E62FF0E0EE0FFF1F0A
:102BC000E455FF4FC590D490E881F9810484F585E0
:102BD000E02D6C2DCE0109958C01892B11F4F1109B
:102BE000E0CFD0FE0BC0E881F9810484F585E02DAB
:102BF0004F2D60EECE010995082B192BD1FE0BC08D
:102C0000E881F9810484F585E02D4F2D61EECE0138
:102C10000995082B192BD2FE0BC0E881F981048499
:102C2000F585E02D4F2D62EECE010995082B192B6D
:102C3000D3FE0BC0E881F9810484F585E02D4F2D8A
:102C400063EECE010995082B192BD4FE0BC0E88149
:102C5000F9810484F585E02D4F2D64EECE010995B0
:102C6000082B192BD5FE0BC0E881F9810484F5856A
:102C7000E02D4F2D65EECE010995082B192BD6FEC0
:102C80000BC0E881F9810484F585E02D4F2D66EEB7
:102C9000CE010995082B192BD7FE83CFE881F98146
:102CA0000484F585E02D4F2D67EECE010995082BA4
:102CB000192B77CF0F931F93CF93DF93EC0140E055
:102CC0000E94C1158C01892B39F0E881F9810284B9
:102CD000F385E02DCE010995C801DF91CF911F91B9
:102CE0000F9108950F931F93CF93DF93EC0141E071
:102CF0000E94C1158C01892B39F0E881F981028489
:102D0000F385E02DCE010995C801DF91CF911F9188
:102D10000F910895FF920F931F93CF93DF938C0130
:102D2000F62E0E947216EC01892B21F06F2DC8013E
:102D30000E945A16CE01DF91CF911F910F91FF9003
:102D400008950F931F93CF93DF93EC0180E2689F68
:102D5000F0011124E15DFD4F6A8B80912501909176
:102D60002601A0912701B09128018E879F87A88B0B
:102D7000B98B0489158930E020E0980111270027DC
:102D80000F8B188F298F3A8F828D938DB0E0A0E042
:102D9000AC01BD01402B512B622B732B4F8B588FF5
:102DA000698F7A8F83858871A9F4848D958DA68D1E
:102DB000B78D8B8B9C8BAD8BBE8B81E08D8381E03F
:102DC0008C831E821F82188619861A861B861C8693
:102DD0001D8603C0803131F080E0DF91CF911F91DB
:102DE0000F9108959E012D5E3F4F8B8D9C8D0E940B
:102DF000700B882389F384E0E1CF6115710579F0C8
:102E0000FB0101900020E9F73197AF01461B570BFA
:102E1000DC01ED91FC910280F381E02D099490E0BA
:102E200080E0089542E050E064EA71E08FE294E0CF
:102E30000C945006CF93DF93FC014481558160814F
:102E400071818FE294E00E945006EC010E941217FB
:102E50008C0F9D1FDF91CF910895CF93DF930E9438
:102E6000EE03EC010E9412178C0F9D1FDF91CF9192
:102E70000895AF92BF92CF92DF92EF92FF920F939D
:102E80001F93CF93DF93CDB7DEB72B970FB6F89490
:102E9000DEBF0FBECDBF6C01FE013196CE010C9698
:102EA0007F0120E22193E817F907E1F7DA0120E03A
:102EB00037E09D91B92E9923A9F19E32B9F43A30A9
:102EC00091F480E02B960FB6F894DEBF0FBECDBF15
:102ED000DF91CF911F910F91FF90EF90DF90CF90F6
:102EE000BF90AF90089528E03AE0E3CFEBECF3E039
:102EF0008491882321F031969813FACFE2CF3217CC
:102F000000F38FED890F8E35E0F68FE9890F8A3156
:102F100018F440EEB42EB90EF701E20FF11DB082A5
:102F20002F5FC7CF8981803261F28B01FB01838DD6
:102F3000948DF601948F838FFB0116821782108681
:102F400011861286138614861586F801828593856C
:102F5000A485B58543895489658976898417950741
:102F6000A607B70708F0ADCF25E0B695A7959795CA
:102F700087952A95D1F7F82FFF70AF2EF80185813C
:102F8000823008F49ECFC8010E94F01197FD99CFBE
:102F9000F80182859385A485B5854F96A11DB11D45
:102FA00082879387A487B587F0E2AF9EB001112492
:102FB000615D7D4F6115710509F483CFFB0180814F
:102FC000882309F1853E19F4B11032C01EC04BE0D0
:102FD00050E0C7010E94F230892B09F0B6CF6A2D6C
:102FE000C6012B960FB6F894DEBF0FBECDBFDF91A2
:102FF000CF911F910F91FF90EF90DF90CF90BF90F6
:10300000AF900C94A116B1105CCFF601A28A80910A
:10301000250190912601A0912701B0912801868772
:103020009787A08BB18BFB018081882309F449CF5E
:10303000BB24B3948ACFAF92BF92CF92DF92EF922C
:10304000FF920F931F93CF93DF93FC01248135816F
:10305000FB0144815581E901C41BD50B4115510584
:1030600041F12115310529F12417350710F1C21757
:10307000D30710F0E90121975B01FC01C080D180EA
:10308000C6010FEF1FEF7601EC0EFD1EE816F906E4
:1030900090F0F501608171810E943231009759F002
:1030A0009C012C193D09C217D30708F0890101962C
:1030B000EDCF0FEF1FEFC801DF91CF911F910F915F
:1030C000FF90EF90DF90CF90BF90AF900895CF9397
:1030D000DF93DC0114962D913C911597232B79F009
:1030E000FB01CD91DC9160817181CE010E94323172
:1030F000009729F08C1B9D0BDF91CF9108958FEFE6
:103100009FEFFACFCF93DF93EC01A881B981EB0158
:10311000E881F9811097F1F03097B1F4EC018C81DE
:103120009D81892BC9F08C9190E00BC0DB01149636
:103130008D919C91892B81F0808190E09195819572
:103140009109DF91CF910895BF01CD01DF91CF911A
:103150000C941331309751F790E080E0F2CF0F9349
:103160001F93CF93DF938C01EB01FC018081918150
:103170000097E1F06881798161157105A9F04281BC
:1031800053812C813D814217530770F00E941C31FE
:103190008C819D81F801958384831D821C82DF913F
:1031A000CF911F910F9108950E94AC2F8881998132
:1031B000F801918380838A819B81938382838C81B0
:1031C0009D8195838483198218821B821A82E5CFA0
:1031D000CF93DF93EC0188819981009711F00E94D1
:1031E000AC2F198218821D821C821B821A82DF91E9
:1031F000CF910895FC01808191810C94AC2FCF93E5
:10320000DF93EC01898D9A8D009741F00E94670E43
:10321000898D9A8D0E94AC2F1A8E198EDF91CF91D5
:1032200008950F931F93CF93DF93EC0188819981C9
:10323000009759F02A813B812617370730F081E04B
:10324000DF91CF911F910F9108958B016F5F7F4F99
:103250000E943530009759F0998388831B830A8335
:103260002C813D81232B59F7FC011082E8CF80E0AF
:10327000E7CFEF92FF920F931F93CF93DF936115E8
:10328000710541F480E0DF91CF911F910F91FF9084
:10329000EF90089541155105B1F07B01EC010C81CF
:1032A0001D81040F151FB8010E941119882351F3C5
:1032B000288139818C819D81B701820F931F0E94E3
:1032C0001C311D830C8381E0DECFCF93DF9300D0D0
:1032D000CDB7DEB769831A8241E050E0BE016F5F6F
:1032E0007F4F0E9439190F900F90DF91CF91089571
:1032F000FB0144815581608171810C943919EF92F1
:10330000FF920F931F93CF93DF93EC017B018A0110
:10331000BA010E94111981110BC0CE010E94E81858
:10332000CE01DF91CF911F910F91FF90EF90089503
:103330001D830C83B701888199810E941C31F0CFD5
:10334000FB0101900020E9F73197AF01461B570BB5
:103350000C947F19FB01DC0111961C921E921396AE
:103360001C921E92129715961C921E921497861705
:10337000970749F0608171816115710521F04481E1
:1033800055810C947F190895FC01118210821382DB
:10339000128215821482FB0101900020E9F7319717
:1033A000AF01461B570B0C947F19AF92BF92CF927F
:1033B000DF92EF92FF920F931F93CF93DF936C01F5
:1033C0005B017A0189012417350720F48F2D7901DB
:1033D000042F182F66EA71E0C6010E94C419D501B6
:1033E0001496CD91DC91EC16FD06E0F40C171D0748
:1033F00008F4E801D501ED91FC911197EC0FFD1F48
:10340000108110826D917C916E0D7F1DC60161153A
:103410007105A1F00E94A019F50180819181C80F6A
:10342000D91F1883C601DF91CF911F910F91FF9093
:10343000EF90DF90CF90BF90AF9008950E94E81872
:10344000EBCFEF92FF920F931F93CF93DF93EC019B
:103450008B01198218821B821A821D821C82CB0169
:103460000E945A2E7C01BC01CE010E9411198111CB
:1034700009C0CE01DF91CF911F910F91FF90EF9086
:103480000C94E818FD82EC82B80188819981DF9163
:10349000CF911F910F91FF90EF900C94532EAF920C
:1034A000BF92CF92DF92EF92FF920F931F93CF9331
:1034B000DF9300D000D000D0CDB7DEB78C01CDB601
:1034C000DEB669EC73E0CE0101960E94211ABE01BE
:1034D0006F5F7F4FC8010E9467187C01CE01019683
:1034E0000E94FA18F7FC5EC0ADB6BEB6F8012481A2
:1034F00035812150310942E050E0B801CE010196FA
:103500000E94D519ED80FE80C70101962DB73EB708
:10351000281B390B0FB6F8943EBF0FBE2DBF0DB759
:103520001EB70F5F1F4F892B29F0E114F10441F4FE
:10353000F8011082B80189EE94E00E94FD1613C0D4
:1035400069817A81A701C8010E942331F801EE0D3B
:10355000FF1D1082EA94EF2869F7F801608189EE77
:1035600094E00E947216CE0101960E94FA180FB6DE
:10357000F894BEBE0FBEADBE0FB6F894DEBE0FBE51
:10358000CDBE26960FB6F894DEBF0FBECDBFDF913D
:10359000CF911F910F91FF90EF90DF90CF90BF9050
:1035A000AF900895F8018081918110E0009719F0A3
:1035B0000E942C2E162F41E0612F89EE94E00E948C
:1035C0007715892BC9F289EE94E00E94BA1440E085
:1035D000612F89EE94E00E947715892B69F289EEBC
:1035E00094E00E94BA14C8CF0F931F93CF93DF9338
:1035F000CDB7DEB762970FB6F894DEBF0FBECDBF72
:10360000BC01CE010D960E94AA1967EA71E0CE01B5
:1036100001960E94C419BE016F5F7F4FCE010D96C7
:103620000E941B188C01CE0101960E94FA1817FD0A
:103630004DC067EA71E0CE0101960E94C419BE0137
:103640006F5F7F4FCE010D960E9467189C0150E07E
:1036500040E0BE01635F7F4FCE0107960E94D519FF
:10366000CE0107960E944F1ACE0107960E94FA18C3
:10367000CE0101960E94FA1809891A8967EA71E059
:10368000CE0101960E94C419BE016F5F7F4FCE012B
:103690000D960E946718AC014F5F5F4F9801BE0105
:1036A000635F7F4FCE0107960E94D519BE01695F07
:1036B0007F4FCE010D960E94AF18CE0107960E9453
:1036C000FA18CE0101960E94FA189FCFBE01635FDF
:1036D0007F4FCE0101960E94AA19CE0101960E9449
:1036E0004F1ACE0101960E94FA18CE010D960E9443
:1036F000FA1862960FB6F894DEBF0FBECDBFDF9109
:10370000CF911F910F910895EF92FF920F931F9306
:10371000CF93DF9300D000D000D0CDB7DEB7182F05
:1037200080918C0590918D058230910509F45AC0E5
:103730008330910501F1019789F4812F012E000C4E
:10374000990B9093200180931F0110922802612F02
:103750008FE294E00E94D8030E94121726960FB6BB
:10376000F894DEBF0FBECDBFDF91CF911F910F91B7
:10377000FF90EF9008958091E2019091E301892BF1
:1037800061F569EA71E08FE294E00E94FD1626E09F
:103790001202C00111249C012B5D3A4F7901C9012D
:1037A0000E941A17612F89EE94E00E945A16B70101
:1037B000CE0101960E94AA1961E0CE0101960E94F5
:1037C000F41ACE0101960E94FA180E946C158FEF30
:1037D0009FEF9093200180931F011092E3011092BC
:1037E000E201BCCF80912101909122010197D1F497
:1037F00081E0809328028091050590910605A091B3
:103800000705B09108058093240290932502A093A8
:103810002602B093270281E090E09093E301809329
:10382000E2019CCF66EB71E08FE294E00E94FD160E
:10383000212F110F330B2A5F3F4F86E0829F8001BB
:10384000839F100D11240B5D1A4FC8010E941A1797
:10385000B801CE0101960E94AA1961E0CE0101963D
:103860000E94F41ACE0101960E94FA180E946C156B
:10387000D2CFEF92FF920F931F93CF93DF93EC0180
:103880007B018A011B821A8288EE93E0A0E0B0E0FF
:103890008C839D83AE83BF8386E591E09983888383
:1038A0008DE190E00E94102F9A8F898F009779F018
:1038B0002DE1F701DC0101900D922A95E1F74CE032
:1038C00050E0B801CE010C960E942331188EDF9192
:1038D000CF911F910F91FF90EF9008952F923F92FB
:1038E0004F925F926F927F928F929F92AF92BF9210
:1038F000CF92DF92EF92FF920F931F93CF93DF93BC
:10390000CDB7DEB7C656D1090FB6F894DEBF0FBEED
:10391000CDBF6C015B0119A218A28AE791E09F8FCD
:103920008E8F1BA21C821B829A8389831E824E016A
:103930008EE1880E911CC4010E94DB0B75018E0183
:103940000F5F1F4F240118016FE270E0C7010E9452
:103950000831009709F45CC0F70120812F3271F41F
:10396000FFEFEF1AFF0A902F812F8201492E582E68
:10397000942D852D2801092F182FE6CF8E198D3013
:1039800008F08CE0682E712CA301B701CE01885A93
:103990009F4F0E942331E8E5F0E0EC0FFD1FE60D9C
:1039A000F71D1082C8010E94670EF80185818823E7
:1039B00001F11EAE1DAE8AE791E09CAF8BAF219660
:1039C0001FAE2197A796EEADFFADA797AE0EBF1E17
:1039D000F5018081811129C0BE01655C7F4FC10165
:1039E0000E9434114DEB51E0B101C6010E94391C17
:1039F0003AC0AE01485A5F4FB201C8010E94391760
:103A00008823B9F2E60CF71CC2010E94670EB0CF02
:103A1000C7018A199B09A7969FAF8EAFA797B201DE
:103A2000CE01CB960E943411CDCF19A218A28AE7FD
:103A300091E09F8F8E8F1BA221968FAD21978111D0
:103A40002DC0F6011382128288EE93E0A0E0B0E070
:103A500084839583A683B78386E591E091838083F1
:103A6000128E118E1486C601CA59DF4F0FB6F89414
:103A7000DEBF0FBECDBFDF91CF911F910F91FF90A1
:103A8000EF90DF90CF90BF90AF909F908F907F90FE
:103A90006F905F904F903F902F900895A501BE01C9
:103AA000655C7F4FC4010E943917882351F2CE0113
:103AB000CB960E94670EB401C1010E943411A5018A
:103AC00093CFDF92EF92FF920F931F93CF93DF93E9
:103AD000CDB7DEB7C254D1090FB6F894DEBF0FBE22
:103AE000CDBF7C018B0166EA71E0CE01CD960E94CC
:103AF000C4191F8E1E8E88EE93E0A0E0B0E088A36C
:103B000099A3AAA3BBA386E591E09D8F8C8F1EAAE3
:103B10001DAA18A66FEB71E0CE0101960E946E1CE3
:103B2000BE016F5F7F4FCE014C960E94CC14EDA971
:103B3000FEA9309709F492C08581882309F48EC0CC
:103B4000CE014C960E948D11892B09F48BC0CE01B9
:103B50004C960E9410138F3239F4CE014C960E947D
:103B600010138A30D1F7ECCF8A3009F071C067ECBE
:103B700071E0CE0101960E94C419BE016F5F7F4FB4
:103B8000CE01CD960E9467189C0150E040E0BE0136
:103B9000635C7F4FCE01C7960E94D519F80124813E
:103BA00035818BAD9CAD2817390751F4BE01695C96
:103BB0007F4FC8010E948218DD24D394892B09F01D
:103BC000D12CCE01C7960E94FA18CE0101960E9410
:103BD000FA18DD20B1F1CE014C960E94FF1867EC77
:103BE00071E0CE0101960E94C419BE016F5F7F4F44
:103BF000CE01CD960E94671823962EAD3FAD239738
:103C0000AC014F5F5F4FBE01635C7F4FC7010E94F5
:103C1000D519CE0101960E94FA18CE01CD960E94C8
:103C2000FA18C701CE5BDF4F0FB6F894DEBF0FBEA8
:103C3000CDBFDF91CF911F910F91FF90EF90DF905B
:103C4000089566EA71E0CE01CD960E94A01978CF62
:103C5000682FCE01CD960E94651972CF85ED91E057
:103C60000E942D17CE014C960E94FF1869EC71E05E
:103C7000CE0101960E94C419F801448155816081EA
:103C80007181CE0101960E943919811104C0CE01C3
:103C900001960E94E81841E050E06CEC71E0CE0122
:103CA00001960E943919811104C0CE0101960E942B
:103CB000E818BE016F5F7F4FC7010E94AA19CE01AD
:103CC00001960E94FA18A9CF8F929F92AF92BF924D
:103CD000CF92DF92EF92FF920F931F93CF93DF93D8
:103CE000CDB7DEB7EC970FB6F894DEBF0FBECDBFF1
:103CF0008C016B017A01590166EA71E0CE01C79629
:103D00000E94C4191F8E1E8E88EE93E0A0E0B0E0E2
:103D100088A399A3AAA3BBA386E591E09D8F8C8F6E
:103D20001EAA1DAA18A6F70160817181CE01019615
:103D30000E946E1CBE016F5F7F4FCE014C960E94A9
:103D4000CC14EDA9FEA9309719F0858181110DC021
:103D50008CEA91E00E94EE03C7010E941A176EECF4
:103D600071E0C8010E94C4196EC08AE0E82E8AC0C2
:103D70006F2DCE01C7960E946519EAE0FE1281C040
:103D8000B601CE01C7960E941B18019609F473C0B4
:103D9000F601E480F58083EC91E00E94EE03B60129
:103DA000CE01C7960E941B185C01AE0CBF1C8BADE8
:103DB0009CADA816B90670F48FA898AC6AE070E0C4
:103DC000C4018A0D9B1D0E9408319C0128193909E4
:103DD000892B11F42FEF3FEFA501BE01695C7F4FE6
:103DE000CE0101960E94D519CE0101960E941A17A4
:103DF000CE0101960E94FA18CE014C960E94FF183F
:103E0000B601CE01C7960E941B18E80EF91E8BADB5
:103E10009CADE816F90670F4CFA8D8AC6AE070E063
:103E2000C6018E0D9F1D0E9408319C012C193D0971
:103E3000892B11F42FEF3FEFA701BE01695C7F4F83
:103E4000C8010E94D519CE01C7960E94FA18C80170
:103E5000EC960FB6F894DEBF0FBECDBFDF91CF91C9
:103E60001F910F91FF90EF90DF90CF90BF90AF9098
:103E70009F908F90089566EA71E0CE01C7960E94E8
:103E8000A019EF2CCE014C960E948D11892BA1F028
:103E9000CE014C960E941013F82EFFE28F1368CFCC
:103EA0002AE0E21265CFCE014C960E941013F82E44
:103EB0008AE0F812F8CFE5CF6AE0CE01C7960E94FB
:103EC0006519CE014C960E94FF18F80111821082EC
:103ED0001382128215821482B501C8010E94AF18A4
:103EE000B2CFCF92DF92EF92FF920F931F93CF93B7
:103EF000DF93CDB7DEB762970FB6F894DEBF0FBE83
:103F0000CDBF8C017B016A0166EA71E0CE010D969E
:103F10000E94C419B601CE0107960E94AA19B701E2
:103F2000CE0101960E94AA199E01235F3F4FAE0168
:103F3000495F5F4FBE016F5F7F4FC8010E94641EE3
:103F4000CE0101960E94FA18CE0107960E94FA1837
:103F5000CE010D960E94FA18C80162960FB6F89429
:103F6000DEBF0FBECDBFDF91CF911F910F91FF90AC
:103F7000EF90DF90CF9008956F927F928F929F92F3
:103F8000AF92BF92CF92DF92EF92FF920F931F9367
:103F9000CF93DF93CDB7DEB768970FB6F894DEBF47
:103FA0000FBECDBF5C017B01DB016D907C90119752
:103FB0006114710439F014960D911C91630101157F
:103FC000110511F5F7018481958166EA71E0892B6D
:103FD00009F054C0C5010E94C419C50168960FB606
:103FE000F894DEBF0FBECDBFDF91CF911F910F912F
:103FF000FF90EF90DF90CF90BF90AF909F908F9009
:104000007F906F90089564014601BFEF8B1A9B0A61
:10401000F6018081082E000C990B0E949D2E892BA1
:1040200091F701501109060D171DD8018C91082E2A
:10403000000C990B0E949D2E892B31F00C151D054B
:1040400018F001501109F1CF0F5F1F4FA8014C1953
:104050005D09F701558344836C147D0420F4B60197
:10406000C3010E94FF30D701ED91FC911197149686
:104070008D919C91E80FF91F1082A4CFCE01439639
:104080000E94C41967EA71E0CE0101960E94C4192A
:10409000BE016F5F7F4FC7010E941B188C01CE01CC
:1040A00001960E94FA1817FD5BC067EA71E0CE0125
:1040B00001960E94C419BE016F5F7F4FC7010E9425
:1040C00067189C0150E040E0B701CE0107960E94BE
:1040D000D519BE01695F7F4FCE010D960E94611D0B
:1040E000BE01635F7F4FCE0143960E947819CE01D7
:1040F0000D960E94FA18CE0107960E94FA18CE017A
:1041000001960E94FA186BE2CE0143960E9465194F
:10411000D70114960D911C9167EA71E0CE010196CA
:104120000E94C419BE016F5F7F4FC7010E946718CC
:10413000AC014F5F5F4F9801B701CE0107960E9417
:10414000D519BE01695F7F4FC7010E94AF18CE012C
:1041500007960E94FA18CE0101960E94FA1892CF93
:10416000B701CE0101960E94AA19BE016F5F7F4F71
:10417000CE0107960E94611DBE01695F7F4FCE018F
:1041800043960E947819CE0107960E94FA18CE0134
:1041900001960E94FA18CE0143960E941A17F50163
:1041A000118210821382128215821482BE016D5E0A
:1041B0007F4FC5010E94AF18CE0143960E94FA18A6
:1041C0000CCF1F93CF93DF93CDB7DEB7E6970FB633
:1041D000F894DEBF0FBECDBF83EA93E00E94EE03EA
:1041E0000E94740E81110CC08CE893E00E942D1780
:1041F0000E94740E811104C085E793E00E942D1780
:1042000080E693E00E942D1765E573E0CE01C1962C
:104210000E94211ABE016F5C7F4FCE010D960E9455
:10422000AA196DE473E0CE0143960E94211AAE01F3
:10423000435F5F4FBE016D5E7F4FCE0107960E94C8
:10424000711FBE01695F7F4FCE0101960E94BC1FA6
:10425000BE016F5F7F4F8DE095E00E94AF18CE01E9
:1042600001960E94FA18CE0107960E94FA18CE0114
:1042700043960E94FA18CE010D960E94FA18BE01CC
:104280006F5C7F4FCE010D960E94AA1964E473E023
:10429000CE0143960E94211AAE01435F5F4FBE01DB
:1042A0006D5E7F4FCE0107960E94711FBE01695F50
:1042B0007F4FCE0101960E94BC1FBE016F5F7F4FF2
:1042C00083E195E00E94AF18CE0101960E94FA1892
:1042D000CE0107960E94FA18CE0143960E94FA1862
:1042E000CE010D960E94FA18BE016F5C7F4FCE0181
:1042F0000D960E94AA196BE373E0CE0143960E94CB
:10430000211AAE01435F5F4FBE016D5E7F4FCE014C
:1043100007960E94711FBE01695F7F4FCE01019613
:104320000E94BC1FBE016F5F7F4F85E295E00E9437
:10433000AF18CE0101960E94FA18CE0107960E948E
:10434000FA18CE0143960E94FA18CE010D960E94EB
:10435000FA18BE016F5C7F4FCE010D960E94AA191C
:1043600062E373E0CE0143960E94211AAE01435FDF
:104370005F4FBE016D5E7F4FCE0107960E94711F99
:10438000BE01695F7F4FCE0101960E94BC1FBE0136
:104390006F5F7F4F8BE295E00E94AF18CE010196D0
:1043A0000E94FA18CE0107960E94FA18CE01439691
:1043B0000E94FA18CE010D960E94FA18BE016F5C99
:1043C0007F4FCE010D960E94AA1969E273E0CE01DB
:1043D00043960E94211AAE01435F5F4FBE016D5E9E
:1043E0007F4FCE0107960E94711FBE01695F7F4F0C
:1043F000CE0101960E94BC1FBE016F5F7F4F81E31B
:1044000095E00E94AF18CE0101960E94FA18CE01E5
:1044100007960E94FA18CE0143960E94FA18CE0120
:104420000D960E94FA18BE016F5C7F4FCE010D966B
:104430000E94AA1960E273E0CE0143960E94211AFD
:10444000AE01435F5F4FBE016D5E7F4FCE010796A9
:104450000E94711FBE01695F7F4FCE0101960E94CD
:10446000BC1FBE016F5F7F4F87E395E00E94AF18CE
:10447000CE0101960E94FA18CE0107960E94FA1802
:10448000CE0143960E94FA18CE010D960E94FA18AA
:10449000BE016F5C7F4FCE010D960E94AA1967E1A5
:1044A00073E0CE0143960E94211AAE01435F5F4F35
:1044B000BE016D5E7F4FCE0107960E94711FBE0147
:1044C000695F7F4FCE0101960E94BC1FBE016F5FE6
:1044D0007F4F8DE395E00E94AF18CE0101960E94B8
:1044E000FA18CE0107960E94FA18CE0143960E9450
:1044F000FA18CE010D960E94FA18BE016F5C7F4F2C
:10450000CE010D960E94AA196BE073E0CE0143968E
:104510000E94211AAE01435F5F4FBE016D5E7F4F67
:10452000CE0107960E94711FBE01695F7F4FCE01C9
:1045300001960E94BC1FBE016F5F7F4F83E495E030
:104540000E94AF18CE0101960E94FA18CE0107967C
:104550000E94FA18CE0143960E94FA18CE010D96D9
:104560000E94FA18BE016F5C7F4FCE010D960E942B
:10457000AA196EEF72E0CE0143960E94211AAE0195
:10458000435F5F4FBE016D5E7F4FCE0107960E9475
:10459000711FBE01695F7F4FCE0101960E94BC1F53
:1045A000BE016F5F7F4F89E495E00E94AF18CE0196
:1045B00001960E94FA18CE0107960E94FA18CE01C1
:1045C00043960E94FA18CE010D960E94FA18BE0179
:1045D0006F5C7F4FCE010D960E94AA1961EF72E0C9
:1045E000CE0143960E94211AAE01435F5F4FBE0188
:1045F0006D5E7F4FCE0107960E94711FBE01695FFD
:104600007F4FCE0101960E94BC1FBE016F5F7F4F9E
:104610008FE495E00E94AF18CE0101960E94FA182F
:10462000CE0107960E94FA18CE0143960E94FA180E
:10463000CE010D960E94FA18BE016F5C7F4FCE012D
:104640000D960E94AA1964EE72E0CE0143960E9474
:10465000211AAE01435F5F4FBE016D5E7F4FCE01F9
:1046600007960E94711FBE01695F7F4FCE010196C0
:104670000E94BC1FBE016F5F7F4F85E595E00E94E1
:10468000AF18CE0101960E94FA18CE0107960E943B
:10469000FA18CE0143960E94FA18CE010D960E9498
:1046A000FA18BE016F5C7F4FCE010D960E94AA19C9
:1046B00067ED72E0CE0143960E94211AAE01435F7E
:1046C0005F4FBE016D5E7F4FCE0107960E94711F46
:1046D000BE01695F7F4FCE0101960E94BC1FBE01E3
:1046E0006F5F7F4F8BE595E00E94AF18CE0101967A
:1046F0000E94FA18CE0107960E94FA18CE0143963E
:104700000E94FA18CE010D960E94FA18BE016F5C45
:104710007F4FCE010D960E94AA196AEC72E0CE017D
:1047200043960E94211AAE01435F5F4FBE016D5E4A
:104730007F4FCE0107960E94711FBE01695F7F4FB8
:10474000CE0101960E94BC1FBE016F5F7F4F81E6C4
:1047500095E00E94AF18CE0101960E94FA18CE0192
:1047600007960E94FA18CE0143960E94FA18CE01CD
:104770000D960E94FA18BE016F5C7F4FCE010D9618
:104780000E94AA196AEB72E0CE0143960E94211A98
:10479000AE01435F5F4FBE016D5E7F4FCE01079656
:1047A0000E94711FBE01695F7F4FCE0101960E947A
:1047B000BC1FBE016F5F7F4F87E695E00E94AF1878
:1047C000CE0101960E94FA18CE0107960E94FA18AF
:1047D000CE0143960E94FA18CE010D960E94FA1857
:1047E00069ED71E0CE0107960E94C419BE016F5CAD
:1047F0007F4FCE010D960E94AA1969EA72E0CE01A0
:1048000043960E94211A9E01295F3F4FAE01435FEC
:104810005F4FBE016D5E7F4FCE0101960E94641E08
:1048200089819A81009709F49FC00E942C2E709371
:10483000240160932301CE0101960E94FA18CE0153
:1048400043960E94FA18CE010D960E94FA18CE01E6
:1048500007960E94FA18BE016F5C7F4FCE01079643
:104860000E94AA196FE972E0CE010D960E94211AEA
:10487000AE01495F5F4FBE01635F7F4FCE0101967E
:104880000E94711F6CED71E0CE0143960E94C41925
:10489000BE016D5E7F4FCE0101960E94671811E048
:1048A00018161906CCF1BE016F5C7F4FCE014F96F2
:1048B0000E94AA1963E972E0CE0185960E94211A2E
:1048C000AE01415E5F4FBE016B5D7F4FCE014996E9
:1048D0000E94711F6CED71E0CE018B960E94C4198D
:1048E000BE01655D7F4FCE0149960E94671811E0B9
:1048F000181619060CF010E0CE018B960E94FA18DB
:10490000CE0149960E94FA18CE0185960E94FA18A7
:10491000CE014F960E94FA18CE0143960E94FA18D3
:10492000CE0101960E94FA18CE010D960E94FA1847
:10493000CE0107960E94FA18112331F081E090E031
:104940009093220180932101CE01C1960E94FA1812
:1049500081E090E0E6960FB6F894DEBF0FBECDBFC3
:10496000DF91CF911F91089560E070E0CB015FCFA0
:104970001F920F920FB60F9211248F939F938091E5
:10498000E1009091E100937F9093E10083FF0FC0DD
:104990001092E90091E09093EB001092EC0092E30A
:1049A0009093ED0010922A0298E09093F00082FF1D
:1049B00022C093E09093E9009091F200992319F0BE
:1049C0009AE39093E80090911D02992341F0909111
:1049D0001D02915090931D02911101C05D9A90911A
:1049E0002902992341F09091290291509093290234
:1049F000911101C0289A84FF18C08091E2008E7E38
:104A000081608093E2008091E1008F7E8093E100DD
:104A100080911E028E7E806180931E029F918F91F5
:104A20000F900FBE0F901F90189580FFF7CF8091C9
:104A3000E2008E7E80618093E2008091E1008E7EB4
:104A40008093E10080911E028E7E8160E5CF1F92EF
:104A50000F920FB60F921124CF92DF92EF92FF9236
:104A60000F931F932F933F934F935F936F937F9376
:104A70008F939F93AF93BF93EF93FF93CF93DF9366
:104A8000CDB7DEB76C97DEBFCDBF1092E900809145
:104A9000E80083FF25C068E0CE0145960E945903D7
:104AA00082EF8093E8008D8987FF39C09091E800FC
:104AB00090FFFCCF982F907609F034C19E894F89E2
:104AC000588D2F89F88C911131C0803861F5809113
:104AD0001F028093F1001092F1008EEF8093E800A6
:104AE0006C960FB6F894DEBF0FBECDBFDF91CF91AD
:104AF000FF91EF91BF91AF919F918F917F916F91B6
:104B00005F914F913F912F911F910F91FF90EF90E7
:104B1000DF90CF900F900FBE0F901F9018959EEFD3
:104B20009093E800C7CF1092F100D5CF913059F49F
:104B30008111D3CF4130510581F680911F028D7FC5
:104B400080931F02CACF933049F48111C6CF413000
:104B5000510519F680911F028260F2CF953041F421
:104B60008091E80080FFFCCF20682093E300B5CF60
:104B7000963009F0A9C00B8D1C8D22E01092E9003F
:104B800010921B0210921A02F2122EC010921902F9
:104B9000109218020E94A7031F8299E09983FA825B
:104BA00091E09E8390EA98879AEF998720911A0264
:104BB00030911B02275F3F4F3C832B838D831092E4
:104BC000E90010921B0210921A021093190200932E
:104BD000180249E050E0BE016F5F7F4F80E00E9405
:104BE00022030E94A70379CF1093190200931802A1
:104BF0000E949303DC0112960D911C910115110581
:104C000009F451C1D801ED91FC910480F581E02DAA
:104C1000BE016B5E7F4FC8010995009709F03EC148
:104C2000F80100851185EACFF3E0FF120EC08F89ED
:104C3000882309F440C0823061F440E860E182E8F2
:104C400092E00E94EF02811148CF81E28093EB0055
:104C500047CF813029F440E86BE086E792E0F1CF5E
:104C6000833099F70E949303DC011296ED90FC903B
:104C70008E010F5F1F4F6801E114F10479F0D70135
:104C8000ED91FC910680F781E02DB801C7010995EF
:104C9000080F111DF701E084F184EECFD8011C92BA
:104CA000F60101900020E9F73197BF016C197D09E9
:104CB00040E0C601C6CF60E672E0FB01449150E0DF
:104CC00080E80E94220309CF973009F4BECF9830C4
:104CD00021F481E08093F10000CF993009F0FDCEFE
:104CE000837009F0B2CFE1E0F1E081E031E096E3DA
:104CF0002191222371F08093E9003093EB00DF01D2
:104D000011972C912093EC009093ED008F5F8730EA
:104D100079F78EE78093EA001092EA008F898093FA
:104D20002A02DBCE8B8D9C8D1092E90010921B0223
:104D300010921A029093190280931802898D8111A2
:104D400092C08E899D89913A49F4813209F07DCFD4
:104D500047E050E06BE071E080E0B3CF913209F0C2
:104D600074CF833269F48F89988DB0E0A0E080938E
:104D7000070190930801A0930901B0930A01ADCEF9
:104D8000803269F48091E80082FFFCCF67E08BE01D
:104D900091E00E9459038BEF8093E8009ECE82320F
:104DA00009F09BCE8F8980931201EEEFFFE785918A
:104DB00094918B3F9C4D51F1E0E0F8E080910B0124
:104DC00090910C01A0910D01B0910E01803B944097
:104DD000A105B105F1F48091120180FD1AC0EE3FEA
:104DE0008AE0F80789F587E797E7918380838091C8
:104DF000600080931C0288E19BE00FB6F894A895B0
:104E0000809360000FBE9093600067CEEEEFFAE0F3
:104E1000D5CF808191818737974709F05ECEA895DD
:104E20008091600088618093600080911C02809373
:104E30006000EE3F2AE0F20789F08091FE0A90912F
:104E4000FF0A9183808349CE8081918187379807BB
:104E500051F29093FF0A8093FE0AC5CF1092FF0A89
:104E60001092FE0A3ACE0E949303DC0112960D9135
:104E70001C910115110509F4E8CED801ED91FC91C2
:104E80000190F081E02DBE016B5E7F4FC801099556
:104E9000811123CEF80100851185EBCF1816190674
:104EA0000CF41BCED2CEF1E0FF12BECE64E672E06F
:104EB00004CF1F920F920FB60F9211242F933F939E
:104EC0008F939F93AF93BF938091040290910502BB
:104ED000A0910602B09107023091030223E0230F54
:104EE0002D3758F50196A11DB11D20930302809323
:104EF000040290930502A0930602B09307028091EA
:104F0000080290910902A0910A02B0910B02019649
:104F1000A11DB11D8093080290930902A0930A027B
:104F2000B0930B02BF91AF919F918F913F912F91C1
:104F30000F900FBE0F901F90189526E8230F029632
:104F4000A11DB11DD2CF1F920F920FB60F92112447
:104F50002F933F934F935F936F937F938F939F9381
:104F6000AF93BF93EF93FF93E0913101F091320142
:104F70000995FF91EF91BF91AF919F918F917F9193
:104F80006F915F914F913F912F910F900FBE0F90B6
:104F90001F9018951F920F920FB60F9211242F9306
:104FA0003F934F935F936F937F938F939F93AF93B1
:104FB000BF93EF93FF93E0912F01F091300109959A
:104FC000FF91EF91BF91AF919F918F917F916F91E1
:104FD0005F914F913F912F910F900FBE0F901F90B7
:104FE00018951F920F920FB60F9211242F933F9393
:104FF0004F935F936F937F938F939F93AF93BF93E1
:10500000EF93FF93E0912D01F0912E010995FF910F
:10501000EF91BF91AF919F918F917F916F915F9130
:105020004F913F912F910F900FBE0F901F901895A9
:105030001F920F920FB60F9211242F933F934F930D
:105040005F936F937F938F939F93AF93BF93EF93F0
:10505000FF93E0912B01F0912C010995FF91EF91C5
:10506000BF91AF919F918F917F916F915F914F9180
:105070003F912F910F900FBE0F901F9018951F9288
:105080000F920FB60F9211242F933F934F935F937C
:105090006F937F938F939F93AF93BF93EF93FF9300
:1050A000E0912901F0912A010995FF91EF91BF91BB
:1050B000AF919F918F917F916F915F914F913F91B0
:1050C0002F910F900FBE0F901F901895CF93DF93E5
:1050D000109232041092310488EE93E0A0E0B0E028
:1050E0008093330490933404A0933504B093360432
:1050F00088E691E09093300480932F048FEF9FEF28
:1051000090933C0480933B0480E580937F0410924D
:105110008004109286041092870410928A041092E0
:105120008C0482E090E0A0E0B0E080938D04909346
:105130008E04A0938F04B09390041092A404109254
:10514000AE041092AD048AE791E09093AC04809392
:10515000AB041092B0041092DA0486E891E09093C8
:10516000D9048093D8048091D004811113C0109287
:10517000CB041092CA048BED93E09093CD048093FE
:10518000CC048BE290E09093CF048093CE0481E036
:105190008093D0040E943714FC01A385B485109736
:1051A00009F071C18AEC94E09487838785859685A0
:1051B0002091CE043091CF04820F931F968785876C
:1051C0001092EC041092EB048CE891E09093EA04C6
:1051D0008093E9048091E104811113C01092DC04F2
:1051E0001092DB0486E094E09093DE048093DD046B
:1051F0008BE390E09093E0048093DF0481E0809360
:10520000E1040E943714FC01A385B485109709F0CE
:1052100045C18BED94E094878387858596852091A1
:10522000DF043091E004820F931F968785871092E8
:105230006F051092730510927205109274058EE935
:1052400091E090936E0580936D05E9E8F5E010829A
:10525000148213821582369685E0E53CF807B9F78B
:1052600089E391E09093D0058093CF0583E391E0AB
:105270009093D2058093D10581E08093D30586E099
:105280008093D4058AE391E09093CE058093CD0579
:105290008AE090E09093D6058093D50584EF91E065
:1052A0009093D8058093D7051092DB051092DA050C
:1052B0001092C9051092CA051092CB051092CC0528
:1052C0001092D90566EA71E085E295E00E94C41962
:1052D00066EA71E08BE295E00E94C41966EA71E02B
:1052E00081E395E00E94C41966EA71E087E395E0E6
:1052F0000E94C41966EA71E08DE395E00E94C4192A
:1053000066EA71E083E495E00E94C41966EA71E000
:1053100089E495E00E94C41966EA71E08FE495E0A3
:105320000E94C41966EA71E085E595E00E94C419FF
:1053300066EA71E08BE595E00E94C41966EA71E0C7
:1053400081E695E00E94C41966EA71E087E695E07F
:105350000E94C41962E084E00E941F0562E083E0BD
:105360000E941F05E2E7F4E0E491F0E0EE0FFF1F7A
:10537000E05AFB4FA591B491B0931A05A09319057B
:10538000E5E4F4E0449140931D05E1E7F4E0E491A5
:10539000F0E0EE0FFF1FE05AFB4FC591D491D09380
:1053A0001C05C0931B05E4E4F4E0E491E0931E05C2
:1053B00010922005109221051092220510922305CB
:1053C0002BE33FE1C9010197F1F79C91842F8923D9
:1053D00091E009F490E08881E82309F092609093CD
:1053E0001F051092240589E195E09093F6048093BF
:1053F000F5048FE395E190932A0180932901809130
:1054000069008C7F816080936900E89A81E08093D5
:10541000240566EA71E08DE095E00E94C41966EA11
:1054200071E083E195E00E94C419809124058230E7
:1054300008F03EC0F89489E195E00E94FD14809147
:10544000200590912105A0912205B0912305789423
:105450008093090590930A05A0930B05B0930C0562
:105460000E94660660930505709306058093070504
:105470009093080566EA71E08FEF94E0DF91CF9199
:105480000C94C419DC018D919C9111970097D1F770
:105490008AEC94E08D939C9389CEDC018D919C9154
:1054A00011970097D1F78BED94E08D939C93B5CE37
:1054B000F894C5CFCF93DF93CDB7DEB76E970FB615
:1054C000F894DEBF0FBECDBF789484B5826084BDF2
:1054D00084B5816084BD85B5826085BD85B58160F8
:1054E00085BD80916E00816080936E001092810076
:1054F0008091810082608093810080918100816031
:1055000080938100809180008160809380008091F1
:1055100091008260809391008091910081608093DE
:105520009100809190008160809390008091C100F3
:1055300084608093C1008091C10082608093C1002B
:105540008091C10081608093C1008091C30081601F
:105550008093C3008091C00082608093C0008091DE
:10556000C20081608093C20080917A008460809341
:105570007A0080917A00826080937A0080917A002C
:10558000816080937A0080917A00806880937A00AD
:1055900010922A0210921F0210921E028091D700D0
:1055A00081608093D70080EA8093D80089B58061BC
:1055B00089BD89B5826089BD09B400FEFDCF61E077
:1055C00070E080E090E00E9484058091D8008F7C9C
:1055D00080618093D8008091E000807F8093E0001C
:1055E0008091E1008E7E8093E1008DE08093E20067
:1055F000559A209A8FEF9FEF90933C0480933B0441
:1056000060EA7FE080E090E00E9484050E94E12053
:1056100089EE94E00E945D1589EE94E00E94BA1430
:105620001092DA0419821A821B821C8244E050E034
:10563000BE016F5F7F4F88ED94E00E94A91484E85B
:105640009BE19093DB058093DA0562E084E00E94A1
:105650001F0562E080E00E941F05412C512C3201A1
:10566000439446E0842E81E08093D9050E9466062B
:105670000091C9051091CA052091CB053091CC0548
:10568000AB01BC01401B510B620B730B8091D50524
:105690009091D605B0E0A0E010E084179507A6072A
:1056A000B70708F45CC11092D9050E9466066093A2
:1056B0000505709306058093070590930805809172
:1056C0002405823008F056C2F89489E195E00E94E2
:1056D000FD14C0902005D0902105E0902205F090A7
:1056E000230578948091090590910A05A0910B05F6
:1056F000B0910C050396A11DB11D8C159D05AE053D
:10570000BF05ECF4C0920905D0920A05E0920B05A2
:10571000F0920C058091280281112EC263E175E0A0
:10572000CE0101960E94AA1960E0CE0101960E9466
:10573000F41ACE0101960E94FA180E946C1580910D
:10574000090590910A05A0910B05B0910C050397EE
:10575000A109B109C816D906EA06FB06ECF4C09205
:105760000905D0920A05E0920B05F0920C05809194
:105770002802811128C26DE075E0CE0101960E94D9
:10578000AA1960E0CE0101960E94F41ACE0101969A
:105790000E94FA180E946C158091050590910605EB
:1057A000A0910705B091080540912402509125026F
:1057B0006091260270912702841B950BA60BB70BF4
:1057C000893B9B40A105B10598F080911F01909104
:1057D0002001019669F080912802882349F01092F7
:1057E0002802CC24CA94DC2CD0922001C0921F0144
:1057F00023E1E22E21E0F22EF701DF018081918189
:1058000097FF02C01182108232968D919C91811572
:10581000944034F0DF0112978FEF93E08D939C93C7
:105820009DE1C92E91E0D92ECE16DF0631F7809189
:10583000210190912201019709F087C066EA71E089
:10584000CE0149960E94C41910E000E0F701819151
:1058500091917F011C8A1B8A1E8A1D8A188E1F8ABD
:105860004AE0BE016F5F7F4F0E94632EBE016F5FF3
:105870007F4FCE0143960E94A019BE016D5E7F4FFF
:10588000CE0149960E947819CE0143960E94FA18DB
:105890000430110589F060EE71E0CE0101960E949E
:1058A000C419BE016F5F7F4FCE0149960E947819DF
:1058B000CE0101960E94FA180F5F1F4F05301105A7
:1058C00029F60E9466060091200210912102209183
:1058D0002202309123026B017C01C01AD10AE20A34
:1058E000F30A970186010B3011052105310548F1B6
:1058F00060932002709321028093220290932302EE
:105900002D8D3E8D80910305909104052817390750
:1059100041F46FEF74E0CE0149960E948218892B02
:1059200021F0CE0149960E941A17698D7A8D611572
:10593000710509F46FC14D8D5E8D8FEF94E00E946B
:105940007F19CE0149960E94FA1880E0E82E80E087
:10595000F82EEF2809F487CE0E94000082CE8091B5
:10596000D305181760F4E091CF05F091D005E10F51
:10597000F11D62E080810E941F051F5FF0CF912C16
:105980008091D405981608F061C0E92CF12CE091C3
:10599000D105F091D205EE0DFF1D61E080810E94DE
:1059A0001F05E091D105F091D205EE0DFF1D60E0DD
:1059B00080810E94ED04D301C201092C04C0880F2C
:1059C000991FAA1FBB1F0A94D2F75C016C01C094F7
:1059D000D094312C8091D305381608F5032D10E0B2
:1059E000E091CF05F091D005E00FF11F80810E947A
:1059F000C1040C5F1F4F000F111FF801E359FA4F4C
:105A0000892B41F4808191818A299B29918380830C
:105A10003394E0CF808191818C219D21F7CFE0915B
:105A2000D105F091D205EE0DFF1D61E080810E944D
:105A3000ED048091D1059091D205E80EF91E60E049
:105A4000F70180810E941F0593949ACF2DE6E22EE4
:105A500025E0F22E8701F801878D90A1892B39F47A
:105A6000148ECC24CA94DC2CD68EC58E11A20A5F6B
:105A70001F4F25E0093A120771F7D12C8091D30509
:105A8000D81608F052C0C12CAD2CB12CAA0CBB1CEE
:105A9000C5018B589A4F5C012091D405C21608F0BD
:105AA00042C0F501608171810C2C02C0769567952A
:105AB0000A94E2F7D29E900111242C0D311DEDE6DF
:105AC000F5E080E0458D568D2417350709F4A7C011
:105AD0008F5F36968A30B1F760FF23C0EDE6F5E0C0
