:100000000C9455020C94B1280C948A280C94632803
:100010000C943C280C947D020C947D020C941528C1
:100020000C947D020C947D020C942A250C94992545
:100030000C947D020C947D020C947D020C947D0244
:100040000C947D020C947D020C947D020C947D0234
:100050000C947D020C947D020C947D020C94CB27B1
:100060000C947D020C947D020C947D020C947D0214
:100070000C947D020C947D020C947D020C947D0204
:100080000C947D020C947D020C947D020C947D02F4
:100090000C947D020C947D020C947D020C947D02E4
:1000A0000C947D020C947D020C947D0200000000F3
:1000B0000000000000000000000000002A002B00EB
:1000C0002800000000000000000000000000000008
:1000D0000000000000000000000000000000000020
:1000E0000000000000000000000000002C001E02C4
:1000F00034022002210222022402340026022702B6
:1001000025022E0236002D003700380027001E0081
:100110001F002000210022002300240025002600CB
:100120003302330036022E00370238021F02040267
:10013000050206020702080209020A020B020C026B
:100140000D020E020F02100211021202130214021B
:10015000150216021702180219021A021B021C02CB
:100160001D022F003100300023022D023500040053
:10017000050006000700080009000A000B000C003B
:100180000D000E000F0010001100120013001400EB
:10019000150016001700180019001A001B001C009B
:1001A0001D002F0231023002350200004572726FCD
:1001B00072206F70656E696E67207468652066696D
:1001C0006C650046726F6D20636F6E6669672E7492
:1001D00078743A20006572726F72206F7070656E6D
:1001E000696E67206D617070696E672066696C6505
:1001F0000000000000250028002B002E0031000028
:1002000000000200090F0000030401000C000000C0
:100210000000000000000000000000000000080BCB
:1002200000020202010009040000010202000005B0
:1002300024001001052401010104240206052406FE
:1002400000010705810310004009040100020A00B3
:10025000000007050202400000070583024000007D
:100260000403090412010002EF0201404123368019
:1002700000010102030141726475696E6F204C4CEC
:10028000430041726475696E6F204C656F6E6172D8
:10029000646F006465656A4D6F6465203D2000648D
:1002A00065656A6D6F64653D006465656A53656E7A
:1002B00073697469766974793D004B6E6F6242753B
:1002C00074746F6E486F6C643D00427574746F6E29
:1002D00035486F6C643D00427574746F6E34486FBE
:1002E0006C643D00427574746F6E33486F6C643D8E
:1002F00000427574746F6E32486F6C643D004275D5
:1003000074746F6E31486F6C643D004B6E6F624267
:100310007574746F6E3D00427574746F6E353D0078
:10032000427574746F6E343D00427574746F6E3331
:100330003D00427574746F6E323D00427574746F87
:100340006E313D004B6E6F624343573D004B6E6F05
:100350006243573D00636F6E6669672E7478740060
:10036000696E697469616C697A6174696F6E206421
:100370006F6E652E00696E697469616C697A61746B
:10038000696F6E206661696C65642100696E6974CD
:1003900069616C697A6174696F6E206661696C6508
:1003A000642100496E697469616C697A696E6720BD
:1003B000534420636172642E2E2E0000000000243E
:1003C0000027002A002D00300077007C3C3E5E2B89
:1003D0003D3F2F5B5D3B2C2A225C0005010902A1F9
:1003E00001850105091901290815002501950875E0
:1003F00001810205010930093109381581257F7510
:100400000895038106C005010906A10185020507BB
:1004100019E029E715002501750195088102050CF1
:1004200095017508150026FF00190029FF810005B8
:100430000795067508150026E700190029E78100D1
:10044000C0050C0901A1018504150026FF03190050
:100450002AFF03950475108100C0040802011040B2
:10046000804010204080408008020401804020101D
:1004700002011080102040402000000000230026D0
:100480000029002C002F00040404040403040502C6
:10049000020202040302020202060606060606041F
:1004A000040202020404F328972E11241FBECFEF8A
:1004B000DAE0DEBFCDBF26E0A2E0B2E001C01D92CF
:1004C000AA31B207E1F712E0A0E0B1E0EEEBF3E60B
:1004D00002C005900D92A230B107D9F712E0C4E531
:1004E000D2E004C02197FE010E94902FC335D107AE
:1004F000C9F70E94D22A0C94D2310C94000096E0E5
:10050000899FD0011124A955BA4F90967C936E9380
:100510005F9791E091969C939197E0911406F091EA
:10052000150690911306992339F0309751F08111F7
:1005300008C08091C3050994309719F05C968C919E
:10054000FACF0895FC0180914A02882311F13FB748
:10055000F89482E08093E9002091F200822F90E0ED
:100560001816190614F481E090E0882339F02898D1
:1005700044E6409349024091F1004083222339F040
:100580002091F200211103C02BE62093E8003FBF29
:1005900008958FEF9FEF0895089540913A0250918A
:1005A0003B02209138023091390242175307B4F4CC
:1005B0009091E8009570E1F39091E80092FD19C0E8
:1005C0008093F10080913A0290913B0201968F73E3
:1005D0009927892B19F48EEF8093E80080913A02D5
:1005E00090913B02019690933B0280933A0281E006
:1005F000089580E00895EF92FF920F931F93CF9399
:10060000DF93F82E192FE62E042F81E0860F880F36
:100610000E94CD0283E00E94CD02CF2DD12FEC0E9F
:10062000FD2EF11CCE15DF05B9F007FF13C0FE014A
:1006300084910E94CD02182F80E00E94CD02812378
:1006400021968111EFCFDF91CF911F910F91FF90F4
:10065000EF9008958881EDCF81E0F5CFDF92EF92A2
:10066000FF920F931F93CF93DF93D82E8A01EB0154
:100670007B01E40EF51ECE15DF0559F0D7FE12C042
:10068000FE0184910E94CD0221968111F4CF0FEFDB
:100690001FEFC801DF91CF911F910F91FF90EF9055
:1006A000DF9008958881EECF2FB7F89487708093FC
:1006B000E9009091E800892F807295FF04C0909125
:1006C000F20080E4891B2FBF0895615030F0209123
:1006D000F100FC0120830196F8CF289884E68093EE
:1006E00049020895AF92BF92CF92DF92EF92FF92AC
:1006F0000F931F93CF93DF936C017B018B01040F4A
:10070000151FEB015E01AE18BF08C017D10759F0E5
:100710006991D601ED91FC910190F081E02DC60127
:100720000995892B79F7C501DF91CF911F910F9121
:10073000FF90EF90DF90CF90BF90AF9008958091A1
:10074000300281110DC082E080932C0284E08093FE
:100750002D0210922F0210922E0281E0809330021F
:100760008CE292E008950F931F93CF93DF931F9233
:10077000CDB7DEB782E0898342E450E06EE172E0FB
:1007800080E80E942E030E949F03DC0112960D91C7
:100790001C910115110589F0D801ED91FC910280A1
:1007A000F381E02DBE016F5F7F4FC801099597FD72
:1007B00004C0F80100851185ECCF89810F90DF918D
:1007C000CF911F910F910895CF93DF931F92CDB7D3
:1007D000DEB76983DC01ED91FC910280F381E02DAD
:1007E00041E050E0BE016F5F7F4F09950F90DF91B0
:1007F000CF9108950F931F93CF93DF938C01D0E097
:10080000C0E0F801EC0FFD1F6491662341F081E523
:1008100094E00E94E403892B11F02196F2CFCE01DF
:10082000DF91CF911F910F91089583E08093E900AC
:100830008091F200882319F08AE38093E8000895FC
:1008400083E00E94540390E00895CF93DF931F92BA
:10085000CDB7DEB7FC018485958597FD08C02FEFE5
:100860003FEF358724870F90DF91CF910895CE0118
:1008700001960E94A202019719F4898190E0F3CFBA
:100880008FEF9FEFF0CF0F931F93CF93DF931F92C4
:10089000CDB7DEB78C01FC018485958597FF0BC031
:1008A000CE0101960E94A202019771F4898190E025
:1008B000F80195878487F801848595850F90DF91ED
:1008C000CF911F910F9108958FEF9FEFF1CFFC0112
:1008D0008485958597FD0BC09FB7F89482E080933F
:1008E000E9008091F2009FBF90E0019608959FB7C4
:1008F000F89482E08093E9008091F2009FBF90E03D
:10090000089581508F3008F047C0E82FF0E0E55798
:10091000FB4F0C94902FA804AC049A04A004A404E8
:10092000CC04CC04CC04AF04B504B904BD04C304A6
:10093000CC04C704809180008F7780938000089555
:10094000809180008F7DF9CF80918000877FF5CFE7
:1009500084B58F7784BD089584B58F7DFBCF80915A
:1009600090008F77809390000895809190008F7D04
:10097000F9CF80919000877FF5CF8091C0008F776D
:100980008093C00008958091C0008F7DF9CF809141
:10099000C200877F8093C2000895CF93DF93282FF2
:1009A00030E0F901E150FE4F8491F901E65AFB4F26
:1009B000D491F901E957FB4FC491CC23A1F08111E7
:1009C0000E948104EC2FF0E0EE0FFF1FE758FB4F71
:1009D000A591B491EC91ED2381E090E009F480E0E1
:1009E000DF91CF91089580E090E0FACF862F0C94AC
:1009F000CD041F93CF93DF93282F30E0F901E1500E
:100A0000FE4F8491F901E65AFB4FD491F901E95761
:100A1000FB4FC491CC23A9F0162F81110E948104B1
:100A2000EC2FF0E0EE0FFF1FEF50FE4FA591B491B9
:100A30008FB7F894EC91111108C0D095DE23DC93A8
:100A40008FBFDF91CF911F910895DE2BF8CF862FB6
:100A5000642F0C94F904CF93DF9390E0FC01E65AE5
:100A6000FB4F249189579B4FFC0184918823C9F047
:100A700090E0880F991FFC01E554FC4FA591B491BB
:100A8000FC01EF50FE4FC591D49161110DC09FB78D
:100A9000F8948C91209582238C9388812823288335
:100AA0009FBFDF91CF910895623051F49FB7F894C2
:100AB0003C91822F809583238C93E8812E2BEFCF5E
:100AC0008FB7F894EC912E2B2C938FBFEACF862F03
:100AD000642F0C942B053FB7F894809128029091D5
:100AE0002902A0912A02B0912B0226B5A89B05C02D
:100AF0002F3F19F00196A11DB11D3FBFBA2FA92F9D
:100B0000982F8827BC01CD01620F711D811D911D99
:100B100042E0660F771F881F991F4A95D1F7089505
:100B20008F929F92AF92BF92CF92DF92EF92FF92FD
:100B30004B015C010E946B056B017C010E946B05FF
:100B40006C197D098E099F09683E734081059105E6
:100B5000A8F321E0821A9108A108B10888EEC80E16
:100B600083E0D81EE11CF11C81149104A104B1049E
:100B700029F7FF90EF90DF90CF90BF90AF909F90BC
:100B80008F9008957F928F929F92AF92BF92CF9253
:100B9000DF92EF92FF920F931F93CF93DF93C82EB4
:100BA0008B017A0180914A02811110C08FEF9FEF73
:100BB000DF91CF911F910F91FF90EF90DF90CF9039
:100BC000BF90AF909F908F907F90089580913E024C
:100BD00080FF05C08091E00082608093E000CE2D10
:100BE000DF2DD12C8AEFB82E8C2D8770982E8C2D6E
:100BF0008072882E8C2D8074782E9AE3A92E2097EF
:100C000019F4DD2009F452C08C2D0E945403811187
:100C10000AC0BA94BB2051F261E070E080E090E03D
:100C20000E949005ECCF8C171D0611F00CF08C2F54
:100C30009FB7F8949092E9002091E80025FD02C04A
:100C40009FBFDDCF282F30E0C21BD30B882029F0B7
:100C50008150A0F01092F100FBCFF801C7FC0AC050
:100C6000815050F041914093F100FACF449140936C
:100C7000F10031968150D0F7020F131FDD2021F0D3
:100C8000A092E800D12CDCCF8091E80085FD07C060
:100C9000A092E800DD24D394209791F2F3CF20971F
:100CA00079F6772069F2A092E800CACF5D9884E6D1
:100CB00080933D02C7017CCFCF93DF93EC018091FD
:100CC0001201882331F083E00E94C205181619062C
:100CD00034F081E090E09B838A8380E090E0DF91B4
:100CE000CF9108952FB7F894609124027091250256
:100CF00080912602909127022FBF08950F931F9392
:100D0000CF93DF93C82FD62F86E0C89FF001112420
:100D1000E955FA4F11A2878D90A181309105F1F02C
:100D200058F082309105F1F1039709F440C0DF914A
:100D3000CF911F910F9108956623C9F361E070E090
:100D40008C2F0E947F020E9472066093FF057093B1
:100D500000068093010690930206E9CF0E94720676
:100D60000091FF05109100062091010630910206C6
:100D7000AB01BC01401B510B620B730B8091110640
:100D800090911206B0E0A0E084179507A607B70778
:100D900048F462E070E08C2FDF91CF911F910F91AA
:100DA0000C947F0263E070E0D111C1CFF4CF70E00A
:100DB00060E0F1CF08958FB7F89480911E028FBF45
:100DC000089561E0FC0184810E94F90480911D0274
:100DD000811110921D0208958EBD00000DB407FE12
:100DE000FDCF8EB508958FEF0C94EC060F931F93F3
:100DF000CF93DF93EC010E9472068B010E94F306F1
:100E00008F3F69F00E947206601B710B6C177D07A3
:100E1000A8F380E0DF91CF911F910F91089581E0B9
:100E2000F9CF8CBD9DBD0895CF93DF93EC018091E8
:100E30001D02811109C081E080931D028091A104EF
:100E40009091A2040E94110760E08C81DF91CF9104
:100E50000C94F9048F929F92AF92BF92FF920F93DE
:100E60001F93CF93DF93EC01F62E49015A018E8137
:100E7000882389F08F8198859C012F5F3F4F3887A9
:100E80002F838230924018F40E94F306F3CFCE01F4
:100E90000E94E1061E82CE010E9414078CE291E0BE
:100EA0000E94F6068F2D80640E94EC0608E110E097
:100EB000D501C401002E04C0B695A79597958795D6
:100EC0000A94D2F70E94EC0608501109083F8FEFF0
:100ED000180771F785E9FF2021F028E087E8F21272
:100EE0008FEF0E94EC0610E00E94F3068A8787FFCE
:100EF00004C01F3F11F01F5FF7CFDF91CF911F910B
:100F00000F91FF90BF90AF909F908F900895AF92F8
:100F1000BF92CF92DF92EF92FF920F931F93CF93E6
:100F2000DF93EC016901C801820F931F8130924069
:100F300050F58E81882379F088819981AA81BB81BF
:100F400084179507A607B70731F48F819885C816CF
:100F5000D90608F042C0488359836A837B838B8516
:100F6000833039F089E0440F551F661F771F8A953B
:100F7000D1F79A01AB0161E1CE010E942A078823D3
:100F800089F083E08D83CE010E94E10680E0DF914D
:100F9000CF911F910F91FF90EF90DF90CF90BF9076
:100FA000AF9008950E9472065B010E94F3068A8743
:100FB0008F3F69F40E9472066A197B096D32714095
:100FC000A0F38FE08D83CE010E94E106DCCF8E3F3F
:100FD00089F418861F8281E08E838F8198858C1515
:100FE0009D0550F40E94F3068F819885019698879D
:100FF0008F83F3CF8DE0E6CF6701E00EF11E0E94F4
:10100000F306F60181936F01EE15FF05C1F78F819D
:101010009885080F191F18870F838985882319F071
:1010200001151240A0F08E81882389F08F81988568
:101030009C012F5F3F4F38872F838230924018F4F6
:101040000E94F306F3CFCE010E94E1061E8281E0EA
:101050009ECFCF92DF92EF92FF920F93CF93DF93C9
:10106000EC01690182E1411551056105710599F0B5
:101070008B85833039F089E0440F551F661F771F39
:101080008A95D1F79A01AB0168E1CE010E942A0747
:10109000882319F084E08D832DC08EEF0E94EC062A
:1010A00076018EEFD81AF70181917F010E94EC063C
:1010B000EC14FD04C1F78FEF0E94EC068FEF0E9445
:1010C000EC060E94F3068A878F71853071F4011156
:1010D00016C0CE010E94E10681E0DF91CF910F9111
:1010E000FF90EF90DF90CF90089581E18D83CE0146
:1010F0000E94E106CE010E94E10680E0EECF88E585
:1011000092E00E94F606811102C085E1C4CF20E082
:1011100030E0A9016DE0CE010E942A07882311F07A
:1011200084E1B9CF0E94F3068111FACFD2CF0F9399
:1011300040911F0250912002609121027091220281
:10114000411551056105710599F0082F21E532E03F
:1011500080914E0290914F020E942908882349F005
:1011600010921F021092200210922102109222026D
:1011700081E00F9108950F93CF93C82F8091500273
:10118000811105C0C1E08C2FCF910F91089540913E
:1011900023015091240160912501709126010C2FAB
:1011A00021E532E080914E0290914F020E94290881
:1011B000811102C0C0E0E7CFCC2321F381E00E947F
:1011C00097088823B9F310925002DDCF8F929F9237
:1011D000AF92BF92EF92FF920F931F93CF934B0169
:1011E0005C01C42F8091230190912401A0912501DD
:1011F000B091260188159905AA05BB0551F181E03A
:101200000E94BB0881110BC080E0CF911F910F910C
:10121000FF90EF90BF90AF909F908F90089581E5E1
:10122000E82E82E0F82E00E012E030E020E0B50188
:10123000A40180914E0290914F020E94870788235B
:1012400019F38092230190922401A0922501B0927B
:101250002601409150024C2B4093500281E0D5CFA3
:101260008F929F92AF92BF92CF92DF92EF92FF92B6
:10127000CF9323EA34E030934F0220934E02882329
:1012800009F46DC040E060E070E0CB010E94E60828
:1012900081110BC080E0CF91FF90EF90DF90CF9055
:1012A000BF90AF909F908F90089580910F048F779B
:1012B00089F780911B0490911C04A0911D04B091AA
:1012C0001E0484369105A105B10520F3C0901704D2
:1012D000D0901804E0901904F0901A04C114D104BD
:1012E000E104F104B9F240E0C701B6010E94E6084A
:1012F000882381F280915C0290915D028115924079
:1013000049F6A0916102AA2329F260915F027091CF
:1013100060026115710509F4BDCF20915E022223A0
:1013200009F4B8CFA093C1042093B30490E080E007
:1013300030E0E1E0F0E0C82FAF01082E02C0440F1A
:10134000551F0A94E2F72417350769F041E0480F6A
:1013500001968930910579F74093BC049BCFC12C4D
:10136000D12C7601C0CF8093BC04209167023091CC
:10137000680250E040E02115310541F420917502EA
:101380003091760240917702509178022093B40414
:101390003093B5044093B6045093B7044601570107
:1013A000860E971EA11CB11C8092C2049092C304A9
:1013B000A092C404B092C504E0916202F09163026D
:1013C000F093C804E093C704B0E00E943F2FDC0113
:1013D000CB01880D991DAA1DBB1D8093C904909354
:1013E000CA04A093CB04B093CC0425E0EE0FFF1FFA
:1013F0002A95E1F7E150FE4FEF2FFF27E6958E0F7C
:101400009F1FA11DB11D8093BD049093BE04A093A6
:10141000BF04B093C0048090640290906502B12C28
:10142000A12C8114910441F4809071029090720279
:10143000A0907302B0907402C81AD90AEA0AFB0A93
:10144000C80CD91CEA1CFB1C04C0F694E794D79482
:10145000C794CA95D2F7C092B804D092B904E0926A
:10146000BA04F092BB0485EFC8168FE0D806E104F9
:10147000F10428F48CE08093C60481E00CCF80E175
:1014800025EFC2162FEFD206E104F104A0F38091FC
:101490007D0290917E02A0917F02B09180028093A4
:1014A000C9049093CA04A093CB04B093CC0480E207
:1014B000E2CF4F925F926F927F928F929F92AF9204
:1014C000BF92CF92DF92EF92FF920F931F93CF9331
:1014D000DF93EC01423051056105710590F480E025
:1014E000DF91CF911F910F91FF90EF90DF90CF9000
:1014F000BF90AF909F908F907F906F905F904F9034
:10150000089589859A85AB85BC850196A11DB11D7D
:1015100084179507A607B70710F3CB88DC88ED88FA
:10152000FE888F89803109F042C0BB27A72F962FF4
:10153000852F480159012A013B01C80ED91EEA1E18
:10154000FB1E8091230190912401A0912501B0916F
:101550002601C816D906EA06FB0699F58F8980315F
:10156000C1F5B301A201552766277727440F551F00
:101570004F5A5D4FFA0191828082809150028160C2
:10158000809350028A89823080F08D819E81AF8164
:10159000B8858C0D9D1DAE1DBF1D80931F029093BD
:1015A0002002A0932102B093220281E099CFDB01B7
:1015B000CA01E7E0B695A79597958795EA95D1F783
:1015C000B8CF40E0C701B6010E94E6088111C6CF3E
:1015D00086CFB301A2014F77552766277727440F9F
:1015E000551F440F551F4F5A5D4FFA01808291825B
:1015F000A282B382C2CF8F929F92AF92BF92CF92BC
:10160000DF92EF92FF920F931F93CF93DF93FC0132
:1016100081859285A385B4850196A11DB11D84178E
:101620009507A607B70770F480E0DF91CF911F916F
:101630000F91FF90EF90DF90CF90BF90AF909F9071
:101640008F90089583889488A588B688878980318B
:1016500089F5BB27A72F962F852FE9016A017B010A
:101660008F01BC01CD01680D791D8A1D9B1D8090E5
:10167000230190902401A0902501B09026018616A8
:101680009706A806B90601F5F8018789803111F59A
:10169000DD24EE24FF24F601EE0FFF1FEF5AFD4F6D
:1016A00080819181B0E0A0E088839983AA83BB8385
:1016B00081E0BBCFDB01CA01C7E0B695A79597953E
:1016C0008795CA95D1F7C9CF40E00E94E6088111FD
:1016D000DBCFAACFE894C7F8DD24EE24FF24F6017F
:1016E000EE0FFF1FEE0FFF1FEF5AFD4F808191811C
:1016F000A281B381BF70D8CF4F925F926F927F92D9
:10170000AF92BF92CF92DF92EF92FF920F931F930F
:10171000CF93DF9300D000D0CDB7DEB78C014983E3
:101720005A836B837C835901C12CD12C7601412CC7
:1017300082E0582E612C712C49815A816B817C8109
:101740009E012F5F3F4FC8010E94FB0A882339F199
:10175000F8018585A301920104C0220F331F441FA5
:10176000551F8A95D2F7DA01C901C80ED91EEA1EA3
:10177000FB1E49815A816B817C818789803111F1FF
:1017800088EF9FEFAFEFBFE0481759076A077B0765
:1017900098F2F501C082D182E282F38281E00F905B
:1017A0000F900F900F90DF91CF911F910F91FF90AD
:1017B000EF90DF90CF90BF90AF907F906F905F9051
:1017C0004F90089588EF9FEFA0E0B0E0DDCFCF937A
:1017D000DF93FC012581222321F080E0DF91CF916E
:1017E0000895EC018091C604803159F582E085832B
:1017F000178A108E118E128E8091C7049091C804A2
:10180000B0E0A0E025E0880F991FAA1FBB1F2A9512
:10181000D1F7838B948BA58BB68B8FEA94E09C8F4A
:101820008B8F81E08C831E821F82188619861A8610
:101830001B861C861D861E861F86188A198A1A8A90
:10184000CDCF803251F683E085834091C904509119
:10185000CA046091CB047091CC04478B508F618F88
:10186000728F9F012D5E3F4F8FEA94E00E947C0BA8
:101870008111D3CFB2CF8F929F92AF92BF92CF926E
:10188000DF92EF92FF920F931F93CF93DF93EC01C0
:101890008D8181110EC080E0DF91CF911F910F915A
:1018A000FF90EF90DF90CF90BF90AF909F908F9080
:1018B00008950B891C892D893E8904171507260771
:1018C000370748F34A015B01823031F48A869B86F0
:1018D000AC86BD8681E0E0CF81149104A104B104FF
:1018E00049F41E821F82188619861A861B861C865A
:1018F0001D86F0CF0A851B852C853D85EB8DFC8DE3
:10190000858590E00996B901A80141505109610906
:101910007109082E04C076956795579547950A94E6
:10192000D2F775016401E1E0CE1AD108E108F108AF
:1019300004C0F694E794D794C7948A95D2F7C41656
:10194000D506E606F70620F0012B022B032B11F536
:101950008F89988DA98DBA8D8E839F83A887B9872B
:101960008E010A5F1F4FC114D104E104F10409F490
:10197000ADCF4E815F816885798598018B8D9C8D77
:101980000E94FB0A91E0C91AD108E108F10881110F
:10199000EACF81CFC41AD50AE60AF70AE1CF3F920F
:1019A0004F925F926F927F928F929F92AF92BF926F
:1019B000CF92DF92EF92FF920F931F93CF93DF931B
:1019C000CDB7DEB72C970FB6F894DEBF0FBECDBFF4
:1019D0005C01DC015B968D909C905C9716964D9017
:1019E0005D906D907C9019974114510461047104CD
:1019F00009F468C0BFEF4B1A5B0A6B0A7B0A312CF3
:101A0000F40181859285A385B4859C01AD012F5F8A
:101A10003F4F4F4F5F4F29873A874B875C87730152
:101A200062011D821E821F821886F40181859285C3
:101A3000A385B4852D813E814F81588528173907AC
:101A40004A075B0708F056C089859A85AB85BC8537
:101A50008C159D05AE05BF0550F482E0C82ED12C33
:101A6000E12CF12C92E0492E512C612C712C9E011D
:101A70002F5F3F4FB701A601C4010E94FB0A8823D4
:101A8000C9F189819A81AB81BC81892B8A2B8B2BEF
:101A900009F1260137019FEF491A590A690A790AA3
:101AA0002D813E814F8158852F5F3F4F4F4F5F4FB4
:101AB0002D833E834F8358873FEFC31AD30AE30A2F
:101AC000F30AB3CFF40140805180628073803324E5
:101AD000339496CFC414D504E604F70409F70FEF46
:101AE0001FEF2FEF3FE0B701A601C4010E94590A82
:101AF000811119C080E02C960FB6F894DEBF0FBE9E
:101B0000CDBFDF91CF911F910F91FF90EF90DF90AC
:101B1000CF90BF90AF909F908F907F906F905F908D
:101B20004F903F900895D50116964D915D916D911E
:101B30007C911997411551056105710539F097019F
:101B40008601C4010E94590A8823A1F2D501169684
:101B5000CD92DD92ED92FC921997332051F0D7018E
:101B6000C6010196A11DB11DF40180839183A2835A
:101B7000B383F5018789908DA18DB28D892B8A2B36
:101B80008B2B39F48481C78AD08EE18EF28E8068E7
:101B90008483F50184818062848381E0ACCF1F93CC
:101BA000CF93DF93FC0125812223D1F1162FEC0185
:101BB000848187FF2AC0668577858089918941E085
:101BC0000E94E608882361F1EA8980E2E89FF0013B
:101BD0001124EF5AFD4F309719F18D81823040F476
:101BE0008B899C89AD89BE89848F958FA68FB78F8D
:101BF0008F89988D938F828F8F89988DA98DBA8DBB
:101C0000B58BA48B8C818F778C83111103C08C8151
:101C10008F7E8C83812FDF91CF911F910C94BB0815
:101C200080E0DF91CF911F910895FF920F931F9352
:101C3000CF93DF93EC018D81813041F090E080E023
:101C4000DF91CF911F910F91FF9008958C8181FFBB
:101C5000F5CF82FD1BC000914E0210914F02C801CA
:101C60000E9414070E94F306F82EC8010E94E106A4
:101C70008FEFF812E3CF8C8185FF1BC060E0CE01AF
:101C80000E94CF0D8C818F7D8C83D8CF4B895C894E
:101C90006D897E898A859B85AC85BD85841795076E
:101CA000A607B707C1F2CE010E943B0C8111D3CF2A
:101CB000C5CF40911F025091200260912102709186
:101CC0002202452B462B472B21F080E00E949708EB
:101CD000B5CF80618C832A853B85317080E092E0AE
:101CE000821B930BADCFCF93DF93EC0161E00E9499
:101CF000CF0D882311F01D8281E0DF91CF910895EF
:101D0000CF92DF92EF92FF921F93CF93DF93809158
:101D1000D204882321F08DEC94E00E94730E10927F
:101D2000AE041092AC041092A9041092A8048AE0A8
:101D30008093A7040E947206EB0161E08091A704E2
:101D40000E942B0561E08091A7040E94F9041FB74F
:101D5000F89480914D02811127C0E8E9F4E0849164
:101D6000EBE6F4E09491E82FF0E0EE0FFF1FE5546E
:101D7000FC4FA591B491EC91E92321F461E081E15C
:101D80000E94F90461E081E10E942B058CB580611D
:101D90008CBD8CB580648CBD61E08FE00E942B050A
:101DA00061E080E10E942B0580914D028F5F80935E
:101DB0004D021FBF82E58093A1041092A20480917E
:101DC000A1049091A2040E9411071AE08FEF0E94D3
:101DD000EC061150D9F783EA94E00E94140720E042
:101DE00030E0A90160E083EA94E00E942A07182FFE
:101DF0008093AD04813081F00E9472066C1B7D0BD4
:101E0000613D774060F381E08093A80483EA94E029
:101E10000E94E10690E078C02AEA31E040E050E01C
:101E200068E083EA94E00E942A0782FF2AC01093A8
:101E3000AE048091AE04C12CD12C7601823029F4FD
:101E4000C12CD12CE12C80E4F82E20E030E0A90157
:101E500067E383EA94E00E942A07A701960169E2FA
:101E600083EA94E00E942A078093AD048823C1F09E
:101E70000E9472066C1B7D0B613D774030F388E059
:101E8000C3CF14E00E94F3068093AD041150D1F744
:101E90008A3A11F082E0B8CF82E08093AE04C9CFD5
:101EA0008091AE048230D1F420E030E0A9016AE3F1
:101EB00083EA94E00E942A07882311F086E0A4CFE9
:101EC0000E94F306807C803C19F483E08093AE048A
:101ED0000E94F3060E94F3060E94F30683EA94E050
:101EE0000E94E10680E58093A1041092A20481E0A3
:101EF0000E943009882389F08DEC94E00E94E70B62
:101F000091E0882309F486CF892FDF91CF911F912B
:101F1000FF90EF90DF90CF90089580E00E9430090D
:101F2000882309F477CFE8CF2F923F924F925F92A8
:101F30006F927F928F929F92AF92BF92CF92DF92D9
:101F4000EF92FF920F931F93CF93DF9300D000D0B7
:101F50001F92CDB7DEB77C015B01342E5D83DC01BF
:101F600015968C911597813009F0CEC014962C905F
:101F700021FECAC022FCB4C0C32CDD8022947FE0C5
:101F800027222094B22DB1702B2ED7011A964D9195
:101F90005D916D917C911D97C114D10409F428C104
:101FA0005B968D919C915C97FC0174807A948A0178
:101FB0009B0169E036952795179507956A95D1F7A6
:101FC00070228A011170711020C001151105E9F409
:101FD00016964D915D916D917C9119974115510522
:101FE0006105710509F099C057968D919D910D90ED
:101FF000BC91A02D0097A105B10509F0B0C0C701A3
:102000000E94CF0C882309F47FC080E092E0801BFF
:10201000910B46018C159D0508F44C01D7015B9688
:102020004D915C915C9716968D919D910D90BC9110
:10203000A02D0297A109B109FA01258504C0880FD6
:10204000991FAA1FBB1F2A95D2F74685578560891D
:102050007189840F951FA61FB71F9C01AD01270D25
:10206000311D411D511D29013A01811432E09306B1
:1020700009F07BC08091230190912401A09125015A
:10208000B091260184159505A605B70559F48FEF83
:102090009FEFDC018093230190932401A0932501FD
:1020A000B0932601022D9501B301A20180914E0249
:1020B00090914F020E942908882331F19EEFB91AAE
:1020C000C818D908F70182859385A485B585880D40
:1020D000991DA11DB11D82879387A487B58755CF10
:1020E000F701438954896589768982859385A4851A
:1020F000B585481759076A077B0709F43DCFC70123
:102100000E943B0C811138CF81E090E0D7011396FB
:102110009C938E93129780E007C09E012F5F3F4FE4
:102120000E94FB0A811102C090E079C089819A81E6
:10213000AB81BC81F701238D348DF901278948EFEC
:102140005FEF60E070E0203121F048EF5FEF6FEF6C
:102150007FE084179507A607B70708F050CFF7016F
:1021600086839783A087B18750CF0115110599F514
:10217000D7011A964D915D916D917C911D97539663
:102180008D919D910D90BC91A02D481759076A071C
:102190007B0708F181E00E94BB08882309F4B4CFD3
:1021A00040922301509224016092250170922601F1
:1021B00080915002816080935002C8018F5A9D4FD8
:1021C000D5019C01280D391DFC012E173F0759F040
:1021D0004D914193FACF41E0C301B2010E94E6085C
:1021E0008111EBCF91CF281B390BA20EB31E68CF04
:1021F000F70183899489A589B68984179507A6076D
:10220000B70738F48481438B548B658B768B806859
:102210008483F701848183FD1AC0832D9D810F90F3
:102220000F900F900F900F90DF91CF911F910F9112
:10223000FF90EF90DF90CF90BF90AF909F908F90E6
:102240007F906F905F904F903F902F90089561E046
:10225000C7010E94CF0D882309F456CFDECFCF935C
:10226000DF931F92CDB7DEB7698341E050E0BE0136
:102270006F5F7F4F0E94940F0F90DF91CF91089571
:10228000FC01DB0112968D919C91139793838283BD
:1022900088E791E09183808314968C9114978483CE
:1022A00015968C911597858316964D915D916D913C
:1022B0007C91199746835783608771871A964D9151
:1022C0005D916D917C911D974287538764877587D7
:1022D0001E964D915D916D917C91519746875787E0
:1022E000608B718B52968C915297828B53964D9145
:1022F0005D916D917C915697438B548B658B768B5A
:1023000057964D915D916D917C915A97478B508F67
:10231000618F728F5B968D919C91948F838F0895BE
:10232000FC01818D928D009719F061E00C94CF0D26
:102330000895DC015996ED91FC913097B9F08389AD
:102340009489A589B6894285538564857585841BE2
:10235000950BA60BB70B811520E89207A105B105D7
:1023600038F08FEF9FE7A0E0B0E0089590E080E0C4
:102370000895DC0159968D919C91009739F0DC010C
:10238000ED91FC910480F581E02D099490E080E0CE
:102390000895CF93DF93EC01E98DFA8D309749F4DE
:1023A00081E090E09B838A8390E080E0DF91CF9191
:1023B000089513821282898D9A8D0E94940FE98D5F
:1023C000FA8D22813381232B59F7F0CFCF93DF93FE
:1023D0001F92CDB7DEB76983DC01ED91FC910280DD
:1023E000F381E02D41E050E0BE016F5F7F4F099522
:1023F0000F90DF91CF9108952F923F924F925F926D
:102400006F927F928F929F92AF92BF92CF92DF9204
:10241000EF92FF920F931F93CF93DF9300D01F9201
:10242000CDB7DEB7FC018581811118C08FEF9FEF1A
:102430000F900F900F90DF91CF911F910F91FF9010
:10244000EF90DF90CF90BF90AF909F908F907F9054
:102450006F905F904F903F902F900895848180FF00
:10246000E5CF438954896589768982859385A485DA
:10247000B585312C212C481759076A077B0719F0BD
:1024800022242394312C6F012101CE0101963C01BD
:10249000DF011696BB83AA834114510409F4C5C019
:1024A000F60142855385648575854A01F1E09F22D6
:1024B000D6015B968D919C915C978A019B01E9E026
:1024C0003695279517950795EA95D1F71596EC91CE
:1024D000E230E9F5FC01628D738D848D958D600F7E
:1024E000711F821F931FA12C22E0B22EA818B908D9
:1024F0004A145B0408F45201F601248126FD04C04D
:10250000A114F2E0BF0671F400912301109124019F
:102510002091250130912601061717072807390752
:1025200009F05EC040E00E94E608882309F47ECFEF
:10253000C4018F5A9D4FD3019C012A0D3B1DFC0104
:102540002E173F0709F46CC041914D93F9CFDC0180
:102550001496BC90BA94B0228114910479F4B1100D
:102560000DC0452B462B472B69F5F6018789908DC9
:10257000A18DB28D86839783A087B187D6015B96A4
:10258000ED91FC915C9716966D917D918D919C914A
:1025900019976250710981099109258504C0660F58
:1025A000771F881F991F2A95D2F7068517852089DE
:1025B0003189600F711F821F931F6B0D711D811D6B
:1025C000911D91CFD60116964D915D916D917C91A3
:1025D00019972A813B810E94FB0A8111CFCF26CF18
:1025E000730185019401AB01BC0180914E02909171
:1025F0004F020E948707882309F418CF6A0C7B1CBE
:10260000F60182859385A485B5858A0D9B1DA11D44
:10261000B11D82879387A487B5874A185B083CCF92
:10262000281B390B620E731EEBCF2A94232809F066
:10263000FDCE898190E0FCCEFC01818D928D0097CA
:1026400011F00C94FC118FEF9FEF08950F931F93DF
:10265000CF93DF93EC01898D9A8D10E000E0009715
:1026600099F00E94FC118C010F3F100769F0898DD1
:102670009A8DFC01428553856485758541505109C9
:10268000610971090E943B0CC801DF91CF911F9134
:102690000F910895DC01FB0112962C911297848111
:1026A00095812817190641F491818081813A31F48E
:1026B0009D7F81E0913009F080E008958132E1F75B
:1026C0009B3029F482811F968C9381E008959A3083
:1026D00099F7828150968C93F8CFAF92BF92CF92A8
:1026E000DF92EF92FF920F931F93CF93DF931F928E
:1026F000CDB7DEB77C0169836A01590141E050E042
:10270000BE016F5F7F4FFC0183810E94C2058C0177
:1027100097FD0BC0F7018381A501B60180640E947B
:10272000C205080F191F97FD8C01C8010F90DF919A
:10273000CF911F910F91FF90EF90DF90CF90BF90BE
:10274000AF900895DC01FB0188E4808389E48183F4
:1027500084E482831D969C911D979F709F5B938359
:102760001D968D919C9124E0969587952A95E1F789
:102770008F708F5B848385E00895EF92FF920F93B3
:102780001F93CF93DF93FB012081213871F52381C3
:10279000223259F5DC0112964C9124813581421781
:1027A000130619F5EC010B851C85F12CE12C0115A4
:1027B000110589F0F801448155816281738180E8B7
:1027C0000E942E038F3F980749F0E80EF91ED801AA
:1027D0000D911C91ECCF81E08F87C701DF91CF91E4
:1027E0001F910F91FF90EF90089590E080E0F6CF59
:1027F000CF93DF93CDB7DEB769970FB6F894DEBFFE
:102800000FBECDBFFC01DB018C918F5F8C939E01CD
:102810002D5F3F4F8DE0D9011D928A95E9F729E0A0
:10282000298384E08A8391E09D8383E08E832A87D5
:1028300021E22B879C879D879F8722E2288B27E0B8
:102840002B8B25E02C8B8E8B20E430E0388F2F8B68
:10285000998F82818B8395858685998B8A8B8381DD
:1028600080688D8B49E150E0BE016F5F7F4F80E053
:102870000E942E0369960FB6F894DEBF0FBECDBF3F
:10288000DF91CF910895CF93DF938091150281114D
:1028900067C081E080930802809309022EE032E055
:1028A00030930B0220930A0210920D0210920C0238
:1028B00028E431E0309305022093040210921002C4
:1028C00010920F02109212021092110280931302C2
:1028D0008093140281EC80930E020E949F03FC01FE
:1028E000818190910802482F490F5527551F483084
:1028F00051059CF5A281B381109709F524E032E0DF
:1029000033832283208120930602809307028091E3
:102910000902820F808320910A02A22FB0910B023C
:102920008A2F821B8917C8F481813D91C82FD0E07E
:10293000C050DF4F38838F5F8183F2CFD901189663
:102940002D913C91199721153105C1F724E032E012
:1029500019963C932E931897D5CF81E0809315025A
:1029600084E092E0DF91CF9108950F931F93CF936E
:10297000DF93EB018A010E9443149801AE0161E0EC
:10298000DF91CF911F910F910C946D13CF93DF9333
:10299000EC010E944314AE014C5F5F4F28E030E031
:1029A00062E0DF91CF910C946D1390E080E0089588
:1029B0000F931F93CF93DF93EB018A010E9443147F
:1029C0009801AE0164E0DF91CF911F910F910C94BB
:1029D0006D13CF93DF93FB0122813381DC011396CA
:1029E0003C932E931297448155816681778114968A
:1029F0004D935D936D937C931797408551856285C8
:102A0000738518964D935D936D937C931B971C96DD
:102A1000EF012C969C01275E3F4F49914D93A217E1
:102A2000B307D9F7218D328DFC01328F218FDF91D1
:102A3000CF910895DC01ED91FD918081ED91FD91A3
:102A40009081ED91FD916C9163708E2309F064602B
:102A50009F2309F06860E7E3F5E1E60FF11D659556
:102A600065956D936D917D918D919D91099423C094
:102A70001AC012C016C010C01EC009C014C013C0B6
:102A800006C019C009C00DC007C00DC014C06250F7
:102A90007040804090400BC061507040804090403A
:102AA00006C06E5F01C06F5F7F4F8F4F9F4F9E9339
:102AB0008E937E936E93089580912F0590913005AB
:102AC0000C941A1580913105909132050C941A15C9
:102AD00080913305909134050C941A158091350539
:102AE000909136050C941A15809137059091380510
:102AF0000C941A15FC019C01285F3F4F90E080E088
:102B000044814111019614823196E217F307C1F70F
:102B100008958BE095E00E947A15892B21F08BE0D7
:102B200095E00C94C6140895CF93DF93DC0190E2F6
:102B3000960F9830B0F414968C91149721E030E001
:102B400001C0220F9A95EAF7442341F0282B1496EE
:102B50002C9381E090E0DF91CF9108952095282378
:102B6000F6CFFD0136964423D1F0CD010C96EF014E
:102B70002991621771F3C817D907D1F790E080E067
:102B80002191211105C0A80FB91F16966C93E1CFB2
:102B9000019686309105A1F790E080E0DCCF90E0CF
:102BA00080E02191621305C0A80FB91F16961C92F0
:102BB000D0CF019686309105A1F7EECFCF92DF926C
:102BC000FF920F931F93CF93DF9367FF10C021E015
:102BD00030E0FC013383228310E000E0C801DF9184
:102BE000CF911F910F91FF90DF90CF900895F42E19
:102BF000EC01E62FF0E0EE0FFF1FE455FF4FC5900C
:102C0000D490E881F9810484F585E02D6C2DCE0106
:102C100009958C01892B11F4F110E0CFD0FE0BC087
:102C2000E881F9810484F585E02D4F2D60EECE0119
:102C30000995082B192BD1FE0BC0E881F98104847A
:102C4000F585E02D4F2D61EECE010995082B192B4E
:102C5000D2FE0BC0E881F9810484F585E02D4F2D6B
:102C600062EECE010995082B192BD3FE0BC0E8812B
:102C7000F9810484F585E02D4F2D63EECE01099591
:102C8000082B192BD4FE0BC0E881F9810484F5854B
:102C9000E02D4F2D64EECE010995082B192BD5FEA2
:102CA0000BC0E881F9810484F585E02D4F2D65EE98
:102CB000CE010995082B192BD6FE0BC0E881F981AE
:102CC0000484F585E02D4F2D66EECE010995082B85
:102CD000192BD7FE83CFE881F9810484F585E02D97
:102CE0004F2D67EECE010995082B192B77CF0F9347
:102CF0001F93CF93DF93EC0140E00E94DE158C011F
:102D0000892B39F0E881F9810284F385E02DCE0129
:102D10000995C801DF91CF911F910F9108950F93ED
:102D20001F93CF93DF93EC0141E00E94DE158C01ED
:102D3000892B39F0E881F9810284F385E02DCE01F9
:102D40000995C801DF91CF911F910F910895FF92CE
:102D50000F931F93CF93DF938C01F62E0E948F1653
:102D6000EC01892B21F06F2DC8010E947716CE014E
:102D7000DF91CF911F910F91FF9008950F931F93B3
:102D8000CF93DF93EC0180E2689FF0011124EF5AAA
:102D9000FD4F6A8B8091230190912401A091250120
:102DA000B09126018E879F87A88BB98B04891589DE
:102DB00030E020E09801112700270F8B188F298F12
:102DC0003A8F828D938DB0E0A0E0AC01BD01402B25
:102DD000512B622B732B4F8B588F698F7A8F838582
:102DE0008871A9F4848D958DA68DB78D8B8B9C8B66
:102DF000AD8BBE8B81E08D8381E08C831E821F8230
:102E0000188619861A861B861C861D8603C080318B
:102E100031F080E0DF91CF911F910F9108959E01D5
:102E20002D5E3F4F8B8D9C8D0E947C0B882389F3F8
:102E300084E0E1CFAF92BF92CF92DF92EF92FF9208
:102E40000F931F93CF93DF93CDB7DEB72B970FB6BA
:102E5000F894DEBF0FBECDBF6C01FE013196CE01EE
:102E60000C967F0120E22193E817F907E1F7DA01D8
:102E700020E037E09D91B92E9923A9F19E32B9F453
:102E80003A3091F480E02B960FB6F894DEBF0FBE77
:102E9000CDBFDF91CF911F910F91FF90EF90DF9009
:102EA000CF90BF90AF90089528E03AE0E3CFEBECED
:102EB000F3E08491882321F031969813FACFE2CF82
:102EC000321700F38FED890F8E35E0F68FE9890F09
:102ED0008A3118F440EEB42EB90EF701E20FF11D5D
:102EE000B0822F5FC7CF8981803261F28B01FB01F5
:102EF000838D948DF601948F838FFB011682178248
:102F0000108611861286138614861586F80182852E
:102F10009385A485B5854389548965897689841705
:102F20009507A607B70708F0ADCF25E0B695A7959A
:102F3000979587952A95D1F7F82FFF70AF2EF80156
:102F40008581823008F49ECFC8010E94FC1197FD54
:102F500099CFF80182859385A485B5854F96A11DEB
:102F6000B11D82879387A487B587F0E2AF9EB00139
:102F700011246F5A7D4F6115710509F483CFFB0150
:102F80008081882309F1853E19F4B11032C01EC03A
:102F90004BE050E0C7010E947831892B09F0B6CF91
:102FA0006A2DC6012B960FB6F894DEBF0FBECDBFBB
:102FB000DF91CF911F910F91FF90EF90DF90CF9015
:102FC000BF90AF900C94BE16B1105CCFF601A28AF0
:102FD0008091230190912401A0912501B0912601B7
:102FE00086879787A08BB18BFB018081882309F4AA
:102FF00049CFBB24B3948ACFFB0101900020E9F7AD
:103000003197AF01461B570BDC01ED91FC9102801B
:10301000F381E02D0994CF93DF930E94FA03EC0132
:1030200068EA71E081E594E00E94FC178C0F9D1F17
:10303000DF91CF910895CF93DF93FC0144815581B7
:103040006081718181E594E00E945C06EC0168EA90
:1030500071E081E594E00E94FC178C0F9D1FDF91C9
:10306000CF910895CF93DF93BC0181E594E00E9456
:10307000FC17EC0168EA71E081E594E00E94FC171E
:103080008C0F9D1FDF91CF910895AF92BF92CF9289
:10309000DF92EF92FF920F931F93CF93DF93FC0188
:1030A00024813581FB0144815581E901C41BD50B85
:1030B0004115510541F12115310529F12417350735
:1030C00010F1C217D30710F0E90121975B01FC0151
:1030D000C080D180C6010FEF1FEF7601EC0EFD1E00
:1030E000E816F90690F0F501608171810E94B8310F
:1030F000009759F09C012C193D09C217D30708F01D
:1031000089010196EDCF0FEF1FEFC801DF91CF913D
:103110001F910F91FF90EF90DF90CF90BF90AF90F5
:103120000895CF93DF93DC0114962D913C91159770
:10313000232B79F0FB01CD91DC9160817181CE016F
:103140000E94B831009729F08C1B9D0BDF91CF9125
:1031500008958FEF9FEFFACFCF93DF93EC01A88113
:10316000B981EB01E881F9811097F1F03097B1F462
:10317000EC018C819D81892BC9F08C9190E00BC072
:10318000DB0114968D919C91892B81F0808190E0D8
:10319000919581959109DF91CF910895BF01CD015E
:1031A000DF91CF910C949931309751F790E080E006
:1031B000F2CF0F931F93CF93DF938C01EB01FC01B0
:1031C000808191810097E1F06881798161157105B5
:1031D000A9F0428153812C813D814217530770F041
:1031E0000E94A2318C819D81F801958384831D8288
:1031F0001C82DF91CF911F910F9108950E94323070
:1032000088819981F801918380838A819B8193834E
:1032100082838C819D8195838483198218821B828D
:103220001A82E5CFCF93DF93EC01888199810097D3
:1032300011F00E943230198218821D821C821B827A
:103240001A82DF91CF910895FC01808191810C94C5
:103250003230CF93DF93EC01898D9A8D009741F046
:103260000E94730E898D9A8D0E9432301A8E198EAB
:10327000DF91CF9108950F931F93CF93DF93EC01CC
:1032800088819981009759F02A813B812617370759
:1032900030F081E0DF91CF911F910F9108958B0164
:1032A0006F5F7F4F0E94BB30009759F099838883EE
:1032B0001B830A832C813D81232B59F7FC0110824B
:1032C000E8CF80E0E7CFEF92FF920F931F93CF9369
:1032D000DF936115710541F480E0DF91CF911F917B
:1032E0000F91FF90EF90089541155105B1F07B01CA
:1032F000EC010C811D81040F151FB8010E943B19C0
:10330000882351F3288139818C819D81B701820FF7
:10331000931F0E94A2311D830C8381E0DECFCF93E7
:10332000DF9300D0CDB7DEB769831A8241E050E069
:10333000BE016F5F7F4F0E9463190F900F90DF9166
:10334000CF910895FB0144815581608171810C9476
:103350006319EF92FF920F931F93CF93DF93EC01CA
:103360007B018A01BA010E943B1981110BC0CE0179
:103370000E941219CE01DF91CF911F910F91FF9002
:10338000EF9008951D830C83B701888199810E9475
:10339000A231F0CFFB0101900020E9F73197AF0196
:1033A000461B570B0C94A919FB01DC0111961C92CA
:1033B0001E9213961C921E92129715961C921E92A4
:1033C00014978617970749F060817181611571051F
:1033D00021F0448155810C94A9190895FC011182B2
:1033E00010821382128215821482FB010190002048
:1033F000E9F73197AF01461B570B0C94A919AF920F
:10340000BF92CF92DF92EF92FF920F931F93CF93D1
:10341000DF936C015B017A0189012417350720F4E1
:103420008F2D7901042F182F6AEA71E0C6010E94DE
:10343000EE19D5011496CD91DC91EC16FD06E0F461
:103440000C171D0708F4E801D501ED91FC911197C7
:10345000EC0FFD1F108110826D917C916E0D7F1D10
:10346000C60161157105A1F00E94CA19F50180819C
:103470009181C80FD91F1883C601DF91CF911F9189
:103480000F91FF90EF90DF90CF90BF90AF90089595
:103490000E941219EBCFEF92FF920F931F93CF93DD
:1034A000DF93EC018B01198218821B821A821D8224
:1034B0001C82CB010E94E02E7C01BC01CE010E9447
:1034C0003B19811109C0CE01DF91CF911F910F915E
:1034D000FF90EF900C941219FD82EC82B801888164
:1034E0009981DF91CF911F910F91FF90EF900C94F4
:1034F000D92EAF92BF92CF92DF92EF92FF920F93AD
:103500001F93CF93DF9300D000D000D0CDB7DEB7AC
:103510008C01EDB6FEB669EC73E0CE0101960E9417
:103520004B1ABE016F5F7F4FC8010E9491186C015A
:10353000CE0101960E942419D7FC5EC0ADB6BEB67E
:10354000F801248135812150310942E050E0B80171
:10355000CE0101960E94FF19CD80DE80C601019642
:103560002DB73EB7281B390B0FB6F8943EBF0FBEE0
:103570002DBF0DB71EB70F5F1F4F892B29F0C11448
:10358000D10441F4F8011082B8018BE095E00E946B
:10359000FC1713C069817A81A601C8010E94A93174
:1035A000F801EC0DFD1D1082CA94CD2869F7F801D1
:1035B00060818BE095E00E948F16CE0101960E94FB
:1035C00024190FB6F894BEBE0FBEADBE0FB6F89468
:1035D000FEBE0FBEEDBE26960FB6F894DEBF0FBE40
:1035E000CDBFDF91CF911F910F91FF90EF90DF90B2
:1035F000CF90BF90AF900895F8018081918110E045
:1036000070E0009719F00E94B22E162F812F972F8D
:10361000883EF3E09F07DCF18C01085E1340E7E28F
:10362000F5E090E080E0219131910196232B59F54E
:10363000880F991FFC01EB5DFA4F1183008348E06E
:1036400050E067E275E085E295E00E94D814E5E27B
:10365000F5E08DE295E0228133810217130711F422
:103660001382128232968E179F07A9F748E050E026
:1036700067E275E085E295E00E94D8148BEA91E05C
:103680000E943218A3CF8430910569F6D8CF41E06B
:10369000612F8BE095E00E949415892B81F08BE0DF
:1036A00095E00E94C61440E0612F8BE095E00E94F7
:1036B0009415892B21F08BE095E00E94C61484EBD1
:1036C00091E0DECF0F931F93CF93DF93CDB7DEB79B
:1036D00062970FB6F894DEBF0FBECDBFBC01CE011E
:1036E0000D960E94D4196DEB71E0CE0101960E94F7
:1036F000EE19BE016F5F7F4FCE010D960E944518F7
:103700008C01CE0101960E94241917FD4DC06DEB6E
:1037100071E0CE0101960E94EE19BE016F5F7F4FEE
:10372000CE010D960E9491189C0150E040E0BE0130
:10373000635F7F4FCE0107960E94FF19CE01079667
:103740000E94791ACE0107960E942419CE01019693
:103750000E94241909891A896DEB71E0CE01019646
:103760000E94EE19BE016F5F7F4FCE010D960E9441
:103770009118AC014F5F5F4F9801BE01635F7F4FAF
:10378000CE0107960E94FF19BE01695F7F4FCE01EF
:103790000D960E94D918CE0107960E942419CE01D9
:1037A00001960E9424199FCFBE01635F7F4FCE0117
:1037B00001960E94D419CE0101960E94791ACE0179
:1037C00001960E942419CE010D960E94241962963A
:1037D0000FB6F894DEBF0FBECDBFDF91CF911F9122
:1037E0000F910895EF92FF920F931F93CF93DF9362
:1037F00000D000D000D0CDB7DEB7182F8091C6051D
:103800009091C7058230910509F45EC0833091051F
:1038100021F10197A9F4812F012E000C990B9093AF
:10382000200180931F0110924802612F81E594E0EE
:103830000E94E40368EA71E081E594E00E94FC17CD
:1038400026960FB6F894DEBF0FBECDBFDF91CF91A5
:103850001F910F91FF90EF90089580910202909137
:103860000302892B61F56FEB71E081E594E00E9422
:10387000FC1726E01202C00111249C01215A3A4F84
:103880007901C9010E941B18612F8BE095E00E940D
:103890007716B701CE0101960E94D41961E0CE01DE
:1038A00001960E94621BCE0101960E9424190E947B
:1038B00089158FEF9FEF9093200180931F01109245
:1038C000030210920202BCCF80914B0290914C02F5
:1038D0000197D1F481E08093480280913F05909157
:1038E0004005A0914105B091420580934402909318
:1038F0004502A0934602B093470281E090E0909386
:103900000302809302029CCF6CEC71E081E594E0AD
:103910000E94FC17212F110F330B2A5F3F4F86E0C7
:10392000829F8001839F100D1124015A1A4FC801F4
:103930000E941B18B801CE0101960E94D41961E0C3
:10394000CE0101960E94621BCE0101960E942419AD
:103950000E948915D2CFEF92FF920F931F93CF93BE
:10396000DF93EC017B018A011B821A8288EE93E0CF
:10397000A0E0B0E08C839D83AE83BF8384E591E0BB
:10398000998388838DE190E00E94962F9A8F898F8A
:10399000009779F02DE1F701DC0101900D922A9555
:1039A000E1F74CE050E0B801CE010C960E94A9313D
:1039B000188EDF91CF911F910F91FF90EF90089596
:1039C0002F923F924F925F926F927F928F929F922F
:1039D000AF92BF92CF92DF92EF92FF920F931F931D
:1039E000CF93DF93CDB7DEB7C656D1090FB6F894A3
:1039F000DEBF0FBECDBF6C015B0119A218A288E724
:103A000091E09F8F8E8F1BA21C821B829A838983D9
:103A10001E824E018EE1880E911CC4010E94E70BAC
:103A200075018E010F5F1F4F240118016FE270E0D6
:103A3000C7010E948E31009709F45CC0F701208114
:103A40002F3271F4FFEFEF1AFF0A902F812F8201BE
:103A5000492E582E942D852D2801092F182FE6CF99
:103A60008E198D3008F08CE0682E712CA301B701FF
:103A7000CE01885A9F4F0E94A931E8E5F0E0EC0F93
:103A8000FD1FE60DF71D1082C8010E94730EF8019C
:103A90008581882301F11EAE1DAE88E791E09CAFC1
:103AA0008BAF21961FAE2197A796EEADFFADA797DE
:103AB000AE0EBF1EF5018081811129C0BE01655C7B
:103AC0007F4FC1010E94401143ED51E0B101C60199
:103AD0000E94AB1C3AC0AE01485A5F4FB201C80108
:103AE0000E941A178823B9F2E60CF71CC2010E9443
:103AF000730EB0CFC7018A199B09A7969FAF8EAFEF
:103B0000A797B201CE01CB960E944011CDCF19A24A
:103B100018A288E791E09F8F8E8F1BA221968FAD10
:103B2000219781112DC0F6011382128288EE93E055
:103B3000A0E0B0E084839583A683B78384E591E019
:103B400091838083128E118E1486C601CA59DF4F6D
:103B50000FB6F894DEBF0FBECDBFDF91CF911F919E
:103B60000F91FF90EF90DF90CF90BF90AF909F901C
:103B70008F907F906F905F904F903F902F9008951F
:103B8000A501BE01655C7F4FC4010E941A178823FE
:103B900051F2CE01CB960E94730EB401C1010E9476
:103BA0004011A50193CFDF92EF92FF920F931F93E5
:103BB000CF93DF93CDB7DEB7C254D1090FB6F894D7
:103BC000DEBF0FBECDBF7C018B016AEA71E0CE0182
:103BD000CD960E94EE191F8E1E8E88EE93E0A0E017
:103BE000B0E088A399A3AAA3BBA384E591E09D8F2D
:103BF0008C8F1EAA1DAA18A665ED71E0CE01019654
:103C00000E94E01CBE016F5F7F4FCE014C960E9468
:103C1000E914EDA9FEA9309709F492C085818823A3
:103C200009F48EC0CE014C960E949911892B09F49B
:103C30008BC0CE014C960E941C138F3239F4CE01FA
:103C40004C960E941C138A30D1F7ECCF8A3009F0D1
:103C500071C06DED71E0CE0101960E94EE19BE01BA
:103C60006F5F7F4FCE01CD960E9491189C0150E06E
:103C700040E0BE01635C7F4FCE01C7960E94FF19F2
:103C8000F801248135818BAD9CAD2817390751F49B
:103C9000BE01695C7F4FC8010E94AC18DD24D3943B
:103CA000892B09F0D12CCE01C7960E942419CE0190
:103CB00001960E942419DD20B1F1CE014C960E949C
:103CC00029196DED71E0CE0101960E94EE19BE0139
:103CD0006F5F7F4FCE01CD960E94911823962EAD37
:103CE0003FAD2397AC014F5F5F4FBE01635C7F4FD9
:103CF000C7010E94FF19CE0101960E942419CE012E
:103D0000CD960E942419C701CE5BDF4F0FB6F89401
:103D1000DEBF0FBECDBFDF91CF911F910F91FF90FE
:103D2000EF90DF9008956AEA71E0CE01CD960E948F
:103D3000CA1978CF682FCE01CD960E948F1972CF05
:103D400085ED91E00E940B18CE014C960E94291936
:103D50006FED71E0CE0101960E94EE19F8014481E9
:103D6000558160817181CE0101960E946319811194
:103D700004C0CE0101960E94121941E050E062EEAB
:103D800071E0CE0101960E946319811104C0CE0139
:103D900001960E941219BE016F5F7F4FC7010E94FA
:103DA000D419CE0101960E942419A9CF8F929F9217
:103DB000AF92BF92CF92DF92EF92FF920F931F9339
:103DC000CF93DF93CDB7DEB7EC970FB6F894DEBF95
:103DD0000FBECDBF8C016B017A0159016AEA71E017
:103DE000CE01C7960E94EE191F8E1E8E88EE93E0BC
:103DF000A0E0B0E088A399A3AAA3BBA384E591E0C7
:103E00009D8F8C8F1EAA1DAA18A6F7016081718153
:103E1000CE0101960E94E01CBE016F5F7F4FCE0174
:103E20004C960E94E914EDA9FEA9309719F08581FE
:103E300081110DC08CEA91E00E94FA03C7010E9433
:103E40001B1864EE71E0C8010E94EE196EC08AE092
:103E5000E82E8AC06F2DCE01C7960E948F19EAE026
:103E6000FE1281C0B601CE01C7960E944518019688
:103E700009F473C0F601E480F58083EC91E00E94C0
:103E8000FA03B601CE01C7960E9445185C01AE0C3C
:103E9000BF1C8BAD9CADA816B90670F48FA898AC6A
:103EA0006AE070E0C4018A0D9B1D0E948E319C0166
:103EB00028193909892B11F42FEF3FEFA501BE0115
:103EC000695C7F4FCE0101960E94FF19CE010196D9
:103ED0000E941B18CE0101960E942419CE014C9617
:103EE0000E942919B601CE01C7960E944518E80E16
:103EF000F91E8BAD9CADE816F90670F4CFA8D8ACCE
:103F00006AE070E0C6018E0D9F1D0E948E319C01FB
:103F10002C193D09892B11F42FEF3FEFA701BE01AA
:103F2000695C7F4FC8010E94FF19CE01C7960E94AD
:103F30002419C801EC960FB6F894DEBF0FBECDBFB2
:103F4000DF91CF911F910F91FF90EF90DF90CF9075
:103F5000BF90AF909F908F9008956AEA71E0CE0174
:103F6000C7960E94CA19EF2CCE014C960E94991157
:103F7000892BA1F0CE014C960E941C13F82EFFE273
:103F80008F1368CF2AE0E21265CFCE014C960E94D3
:103F90001C13F82E8AE0F812F8CFE5CF6AE0CE01C4
:103FA000C7960E948F19CE014C960E942919F801DC
:103FB000118210821382128215821482B501C80107
:103FC0000E94D918B2CFCF92DF92EF92FF920F9357
:103FD0001F93CF93DF93CDB7DEB762970FB6F894F8
:103FE000DEBF0FBECDBF8C017B016A016AEA71E0C2
:103FF000CE010D960E94EE19B601CE0107960E94E1
:10400000D419B701CE0101960E94D4199E01235FF5
:104010003F4FAE01495F5F4FBE016F5F7F4FC801E9
:104020000E94D61ECE0101960E942419CE01079649
:104030000E942419CE010D960E942419C80162968F
:104040000FB6F894DEBF0FBECDBFDF91CF911F91A9
:104050000F91FF90EF90DF90CF9008956F927F9235
:104060008F929F92AF92BF92CF92DF92EF92FF9288
:104070000F931F93CF93DF93CDB7DEB768970FB63B
:10408000F894DEBF0FBECDBF5C017B01DB016D90FC
:104090007C9011976114710439F014960D911C9164
:1040A00063010115110511F5F701848195816AEA13
:1040B00071E0892B09F054C0C5010E94EE19C501B9
:1040C00068960FB6F894DEBF0FBECDBFDF91CF91DB
:1040D0001F910F91FF90EF90DF90CF90BF90AF9026
:1040E0009F908F907F906F90089564014601BFEF7D
:1040F0008B1A9B0AF6018081082E000C990B0E94F6
:10410000232F892B91F701501109060D171DD80196
:104110008C91082E000C990B0E94232F892B31F0D3
:104120000C151D0518F001501109F1CF0F5F1F4F3D
:10413000A8014C195D09F701558344836C147D0473
:1041400020F4B601C3010E948531D701ED91FC91A5
:10415000119714968D919C91E80FF91F1082A4CFAE
:10416000CE0143960E94EE196DEB71E0CE010196EF
:104170000E94EE19BE016F5F7F4FC7010E94451874
:104180008C01CE0101960E94241917FD5BC06DEBD6
:1041900071E0CE0101960E94EE19BE016F5F7F4F64
:1041A000C7010E9491189C0150E040E0B701CE0188
:1041B00007960E94FF19BE01695F7F4FCE010D96E1
:1041C0000E94D31DBE01635F7F4FCE0143960E94C4
:1041D000A219CE010D960E942419CE0107960E94C5
:1041E0002419CE0101960E9424196BE2CE01439658
:1041F0000E948F19D70114960D911C916DEB71E0FF
:10420000CE0101960E94EE19BE016F5F7F4FC7017C
:104210000E949118AC014F5F5F4F9801B701CE012A
:1042200007960E94FF19BE01695F7F4FC7010E9478
:10423000D918CE0107960E942419CE0101960E943A
:10424000241992CFB701CE0101960E94D419BE0164
:104250006F5F7F4FCE0107960E94D31DBE01695F3D
:104260007F4FCE0143960E94A219CE0107960E946D
:104270002419CE0101960E942419CE0143960E9472
:104280001B18F5011182108213821282158214828A
:10429000BE016D5E7F4FC5010E94D918CE014396C5
:1042A0000E9424190CCF1F93CF93DF93CDB7DEB7B5
:1042B000E6970FB6F894DEBF0FBECDBF83EA93E05A
:1042C0000E94FA030E94800E81110CC08CE893E0DA
:1042D0000E940B180E94800E811104C085E793E0B4
:1042E0000E940B1880E693E00E940B1865E573E0CE
:1042F000CE01C1960E944B1ABE016F5C7F4FCE016A
:104300000D960E94D4196DE473E0CE0143960E948D
:104310004B1AAE01435F5F4FBE016D5E7F4FCE0112
:1043200007960E94E31FBE01695F7F4FCE01019691
:104330000E942E20BE016F5F7F4F87E495E00E94B0
:10434000D918CE0101960E942419CE0107960E9429
:104350002419CE0143960E942419CE010D960E9485
:104360002419BE016F5C7F4FCE010D960E94D419B7
:1043700064E473E0CE0143960E944B1AAE01435FA2
:104380005F4FBE016D5E7F4FCE0107960E94E31F17
:10439000BE01695F7F4FCE0101960E942E20BE01B3
:1043A0006F5F7F4F8DE495E00E94D918CE01019692
:1043B0000E942419CE0107960E942419CE0143962B
:1043C0000E942419CE010D960E942419BE016F5C33
:1043D0007F4FCE010D960E94D4196BE373E0CE019E
:1043E00043960E944B1AAE01435F5F4FBE016D5E64
:1043F0007F4FCE0107960E94E31FBE01695F7F4F8A
:10440000CE0101960E942E20BE016F5F7F4F8FE587
:1044100095E00E94D918CE0101960E942419CE0180
:1044200007960E942419CE0143960E942419CE01BA
:104430000D960E942419BE016F5C7F4FCE010D9630
:104440000E94D41962E373E0CE0143960E944B1A96
:10445000AE01435F5F4FBE016D5E7F4FCE01079699
:104460000E94E31FBE01695F7F4FCE0101960E944B
:104470002E20BE016F5F7F4F85E695E00E94D91820
:10448000CE0101960E942419CE0107960E9424199C
:10449000CE0143960E942419CE010D960E94241944
:1044A000BE016F5C7F4FCE010D960E94D41969E268
:1044B00073E0CE0143960E944B1AAE01435F5F4FFB
:1044C000BE016D5E7F4FCE0107960E94E31FBE01C5
:1044D000695F7F4FCE0101960E942E20BE016F5F63
:1044E0007F4F8BE695E00E94D918CE0101960E947D
:1044F0002419CE0107960E942419CE0143960E94EA
:104500002419CE010D960E942419BE016F5C7F4FC5
:10451000CE010D960E94D41960E273E0CE0143965D
:104520000E944B1AAE01435F5F4FBE016D5E7F4F2D
:10453000CE0107960E94E31FBE01695F7F4FCE0147
:1045400001960E942E20BE016F5F7F4F81E795E0AC
:104550000E94D918CE0101960E942419CE01079617
:104560000E942419CE0143960E942419CE010D9673
:104570000E942419BE016F5C7F4FCE010D960E94F0
:10458000D41967E173E0CE0143960E944B1AAE0145
:10459000435F5F4FBE016D5E7F4FCE0107960E9465
:1045A000E31FBE01695F7F4FCE0101960E942E205E
:1045B000BE016F5F7F4F87E795E00E94D918CE015B
:1045C00001960E942419CE0107960E942419CE015B
:1045D00043960E942419CE010D960E942419BE0113
:1045E0006F5C7F4FCE010D960E94D4196BE073E093
:1045F000CE0143960E944B1AAE01435F5F4FBE014E
:104600006D5E7F4FCE0107960E94E31FBE01695F7A
:104610007F4FCE0101960E942E20BE016F5F7F4F1B
:104620008DE795E00E94D918CE0101960E942419C9
:10463000CE0107960E942419CE0143960E942419A8
:10464000CE010D960E942419BE016F5C7F4FCE01F2
:104650000D960E94D4196EEF72E0CE0143960E942F
:104660004B1AAE01435F5F4FBE016D5E7F4FCE01BF
:1046700007960E94E31FBE01695F7F4FCE0101963E
:104680000E942E20BE016F5F7F4F83E895E00E945D
:10469000D918CE0101960E942419CE0107960E94D6
:1046A0002419CE0143960E942419CE010D960E9432
:1046B0002419BE016F5C7F4FCE010D960E94D41964
:1046C00061EF72E0CE0143960E944B1AAE01435F48
:1046D0005F4FBE016D5E7F4FCE0107960E94E31FC4
:1046E000BE01695F7F4FCE0101960E942E20BE0160
:1046F0006F5F7F4F89E895E00E94D918CE0101963F
:104700000E942419CE0107960E942419CE014396D7
:104710000E942419CE010D960E942419BE016F5CDF
:104720007F4FCE010D960E94D41964EE72E0CE0147
:1047300043960E944B1AAE01435F5F4FBE016D5E10
:104740007F4FCE0107960E94E31FBE01695F7F4F36
:10475000CE0101960E942E20BE016F5F7F4F8FE831
:1047600095E00E94D918CE0101960E942419CE012D
:1047700007960E942419CE0143960E942419CE0167
:104780000D960E942419BE016F5C7F4FCE010D96DD
:104790000E94D41967ED72E0CE0143960E944B1A35
:1047A000AE01435F5F4FBE016D5E7F4FCE01079646
:1047B0000E94E31FBE01695F7F4FCE0101960E94F8
:1047C0002E20BE016F5F7F4F85E995E00E94D918CA
:1047D000CE0101960E942419CE0107960E94241949
:1047E000CE0143960E942419CE010D960E942419F1
:1047F000BE016F5C7F4FCE010D960E94D4196AEC0A
:1048000072E0CE0143960E944B1AAE01435F5F4FA8
:10481000BE016D5E7F4FCE0107960E94E31FBE0171
:10482000695F7F4FCE0101960E942E20BE016F5F0F
:104830007F4F8BE995E00E94D918CE0101960E9426
:104840002419CE0107960E942419CE0143960E9496
:104850002419CE010D960E942419BE016F5C7F4F72
:10486000CE010D960E94D4196AEB72E0CE014396F8
:104870000E944B1AAE01435F5F4FBE016D5E7F4FDA
:10488000CE0107960E94E31FBE01695F7F4FCE01F4
:1048900001960E942E20BE016F5F7F4F81EA95E056
:1048A0000E94D918CE0101960E942419CE010796C4
:1048B0000E942419CE0143960E942419CE010D9620
:1048C0000E9424196FEE71E0CE0107960E94EE1946
:1048D000BE016F5C7F4FCE010D960E94D41969EA2C
:1048E00072E0CE0143960E944B1A9E01295F3F4F12
:1048F000AE01435F5F4FBE016D5E7F4FCE010196FB
:104900000E94D61E89819A81009709F49FC00E9457
:10491000B22E7093220160932101CE0101960E9474
:104920002419CE0143960E942419CE010D960E94AF
:104930002419CE0107960E942419BE016F5C7F4F97
:10494000CE0107960E94D4196FE972E0CE010D9650
:104950000E944B1AAE01495F5F4FBE01635F7F4FFC
:10496000CE0101960E94E31F62EF71E0CE014396F3
:104970000E94EE19BE016D5E7F4FCE0101960E942E
:10498000911811E018161906CCF1BE016F5C7F4F2B
:10499000CE014F960E94D41963E972E0CE0185964C
:1049A0000E944B1AAE01415E5F4FBE016B5D7F4FAF
:1049B000CE0149960E94E31F62EF71E0CE018B9613
:1049C0000E94EE19BE01655D7F4FCE0149960E949F
:1049D000911811E0181619060CF010E0CE018B9614
:1049E0000E942419CE0149960E942419CE01859671
:1049F0000E942419CE014F960E942419CE0143969D
:104A00000E942419CE0101960E942419CE010D9610
:104A10000E942419CE0107960E942419112331F017
:104A200081E090E090934C0280934B02CE01C196BE
:104A30000E94241981E090E0E6960FB6F894DEBF5C
:104A40000FBECDBFDF91CF911F91089560E070E060
:104A5000CB015FCF1F920F920FB60F9211248F934D
:104A60009F938091E1009091E100937F9093E1000A
:104A700083FF0FC01092E90091E09093EB00109239
:104A8000EC0092E39093ED0010924A0298E090932C
:104A9000F00082FF22C093E09093E9009091F20031
:104AA000992319F09AE39093E80090913D0299239D
:104AB00041F090913D02915090933D02911101C0BF
:104AC0005D9A90914902992341F090914902915049
:104AD00090934902911101C0289A84FF18C08091D7
:104AE000E2008E7E81608093E2008091E1008F7E03
:104AF0008093E10080913E028E7E806180933E0231
:104B00009F918F910F900FBE0F901F90189580FF6F
:104B1000F7CF8091E2008E7E80618093E2008091E9
:104B2000E1008E7E8093E10080913E028E7E816066
:104B3000E5CF1F920F920FB60F921124CF92DF9202
:104B4000EF92FF920F931F932F933F934F935F9397
:104B50006F937F938F939F93AF93BF93EF93FF9345
:104B6000CF93DF93CDB7DEB76C97DEBFCDBF10928A
:104B7000E9008091E80083FF25C068E0CE014596FA
:104B80000E94650382EF8093E8008D8987FF39C01A
:104B90009091E80090FFFCCF982F907609F034C1F7
:104BA0009E894F89588D2F89F88C911131C080389A
:104BB00061F580913F028093F1001092F1008EEF39
:104BC0008093E8006C960FB6F894DEBF0FBECDBFA1
:104BD000DF91CF91FF91EF91BF91AF919F918F9115
:104BE0007F916F915F914F913F912F911F910F9105
:104BF000FF90EF90DF90CF900F900FBE0F901F901F
:104C000018959EEF9093E800C7CF1092F100D5CF92
:104C1000913059F48111D3CF4130510581F6809103
:104C20003F028D7F80933F02CACF933049F48111B8
:104C3000C6CF4130510519F680913F028260F2CF14
:104C4000953041F48091E80080FFFCCF20682093EC
:104C5000E300B5CF963009F0A9C00B8D1C8D22E082
:104C60001092E90010923B0210923A02F2122EC00A
:104C700010923902109238020E94B3031F8299E009
:104C80009983FA8291E09E8390EA98879AEF9987B8
:104C900020913A0230913B02275F3F4F3C832B83A8
:104CA0008D831092E90010923B0210923A02109309
:104CB00039020093380249E050E0BE016F5F7F4F38
:104CC00080E00E942E030E94B30379CF1093390233
:104CD000009338020E949F03DC0112960D911C91F3
:104CE0000115110509F451C1D801ED91FC91048021
:104CF000F581E02DBE016B5E7F4FC80109950097DD
:104D000009F03EC1F80100851185EACFF3E0FF12FA
:104D10000EC08F89882309F440C0823061F440E8D6
:104D200060E182E892E00E94FB02811148CF81E2BB
:104D30008093EB0047CF813029F440E86BE086E7B1
:104D400092E0F1CF833099F70E949F03DC01129625
:104D5000ED90FC908E010F5F1F4F6801E114F1048C
:104D600079F0D701ED91FC910680F781E02DB80133
:104D7000C7010995080F111DF701E084F184EECFFA
:104D8000D8011C92F60101900020E9F73197BF018C
:104D90006C197D0940E0C601C6CF60E672E0FB01F8
:104DA000449150E080E80E942E0309CF973009F427
:104DB000BECF983021F481E08093F10000CF99308C
:104DC00009F0FDCE837009F0B2CFE1E0F1E081E0BF
:104DD00031E096E32191222371F08093E900309332
:104DE000EB00DF0111972C912093EC009093ED00E4
:104DF0008F5F873079F78EE78093EA001092EA00A0
:104E00008F8980934A02DBCE8B8D9C8D1092E900B6
:104E100010923B0210923A0290933902809338022A
:104E2000898D811192C08E899D89913A49F4813290
:104E300009F07DCF47E050E06BE071E080E0B3CF58
:104E4000913209F074CF833269F48F89988DB0E084
:104E5000A0E08093070190930801A0930901B0930B
:104E60000A01ADCE803269F48091E80082FFFCCF68
:104E700067E08BE091E00E9465038BEF8093E80090
:104E80009ECE823209F09BCE8F8980931201EEEF85
:104E9000FFE7859194918B3F9C4D51F1E0E0F8E064
:104EA00080910B0190910C01A0910D01B0910E0128
:104EB000803B9440A105B105F1F48091120180FD81
:104EC0001AC0EE3F8AE0F80789F587E797E79183F4
:104ED00080838091600080933C0288E19BE00FB664
:104EE000F894A895809360000FBE9093600067CE01
:104EF000EEEFFAE0D5CF808191818737974709F0AF
:104F00005ECEA8958091600088618093600080915A
:104F10003C0280936000EE3F2AE0F20789F0809126
:104F2000FE0A9091FF0A9183808349CE808191810E
:104F30008737980751F29093FF0A8093FE0AC5CFF6
:104F40001092FF0A1092FE0A3ACE0E949F03DC01E3
:104F500012960D911C910115110509F4E8CED801A6
:104F6000ED91FC910190F081E02DBE016B5E7F4FD1
:104F7000C8010995811123CEF80100851185EBCF79
:104F8000181619060CF41BCED2CEF1E0FF12BECEDD
:104F900064E672E004CF1F920F920FB60F921124B5
:104FA0002F933F938F939F93AF93BF93809124024E
:104FB00090912502A0912602B09127023091230200
:104FC00023E0230F2D3758F50196A11DB11D209325
:104FD00023028093240290932502A0932602B0938B
:104FE00027028091280290912902A0912A02B09173
:104FF0002B020196A11DB11D8093280290932902D6
:10500000A0932A02B0932B02BF91AF919F918F91F1
:105010003F912F910F900FBE0F901F90189526E88B
:10502000230F0296A11DB11DD2CF1F920F920FB672
:105030000F9211242F933F934F935F936F937F931E
:105040008F939F93AF93BF93EF93FF93E0912F01C3
:10505000F09130010995FF91EF91BF91AF919F9130
:105060008F917F916F915F914F913F912F910F9011
:105070000FBE0F901F9018951F920F920FB60F92B0
:1050800011242F933F934F935F936F937F938F934D
:105090009F93AF93BF93EF93FF93E0912D01F09116
:1050A0002E010995FF91EF91BF91AF919F918F9143
:1050B0007F916F915F914F913F912F910F900FBE14
:1050C0000F901F9018951F920F920FB60F921124F8
:1050D0002F933F934F935F936F937F938F939F9300
:1050E000AF93BF93EF93FF93E0912B01F0912C01CD
:1050F0000995FF91EF91BF91AF919F918F917F9112
:105100006F915F914F913F912F910F900FBE0F9034
:105110001F9018951F920F920FB60F9211242F9384
:105120003F934F935F936F937F938F939F93AF932F
:10513000BF93EF93FF93E0912901F0912A01099524
:10514000FF91EF91BF91AF919F918F917F916F915F
:105150005F914F913F912F910F900FBE0F901F9035
:1051600018951F920F920FB60F9211242F933F9311
:105170004F935F936F937F938F939F93AF93BF935F
:10518000EF93FF93E0912701F09128010995FF919A
:10519000EF91BF91AF919F918F917F916F915F91AF
:1051A0004F913F912F910F900FBE0F901F90189528
:1051B000FC01A385B485109771F474876387858596
:1051C0009685DB0114962D913C91820F931F968753
:1051D00085870895DC018D919C9111970097D1F7F7
:1051E0006D937C93ECCFCF93DF9310925404109285
:1051F000530488EE93E0A0E0B0E0809355049093D0
:105200005604A0935704B093580486E691E0909317
:105210005204809351048FEF9FEF90935E0480932C
:105220005D0480E58093A1041092A2041092A8046A
:105230001092A9041092AC041092AE0482E090E0A7
:10524000A0E0B0E08093AF049093B004A093B104C9
:10525000B093B2041092C6041092D0041092CF04FE
:1052600088E791E09093CE048093CD041092D2040D
:105270001092FC0484E891E09093FB048093FA047C
:105280008091F204811113C01092ED041092EC048D
:105290008BED93E09093EF048093EE048BE290E02B
:1052A0009093F1048093F00481E08093F2040E94D3
:1052B00043146CEE74E00E94D82810920E051092F0
:1052C0000D058AE891E090930C0580930B05809181
:1052D0000305811113C01092FE041092FD0486E0B4
:1052E00094E0909300058093FF048BE390E090930B
:1052F00002058093010581E0809303050E94431419
:105300006DEF74E00E94D8288CE991E09093260517
:105310008093250580911D05811113C010921805F9
:105320001092170581E494E090931A058093190573
:1053300089E190E090931C0580931B0581E08093A8
:105340001D050E94431467E175E00E94D828109261
:10535000A9051092AD051092AC051092AE0582EA37
:1053600091E09093A8058093A705E3ECF5E08FEF1B
:1053700095E0108214821382158236968E179F074D
:10538000C1F787E391E090930A068093090681E3D1
:1053900091E090930C0680930B0681E080930D06BC
:1053A00086E080930E0688E391E090930806809350
:1053B00007068AE090E09093100680930F0684EF32
:1053C00091E09093120680931106109215061092A8
:1053D000140610920306109204061092050610920D
:1053E0000606109213066AEA71E08FE595E00E94C6
:1053F000EE196AEA71E085E695E00E94EE196AEA24
:1054000071E08BE695E00E94EE196AEA71E081E7AF
:1054100095E00E94EE196AEA71E087E795E00E9444
:10542000EE196AEA71E08DE795E00E94EE196AEAEA
:1054300071E083E895E00E94EE196AEA71E089E87C
:1054400095E00E94EE196AEA71E08FE895E00E940B
:10545000EE196AEA71E085E995E00E94EE196AEAC0
:1054600071E08BE995E00E94EE196AEA71E081EA49
:1054700095E00E94EE1962E083E00E942B0562E055
:1054800084E00E942B05EAE8F4E0E491F0E0EE0FFE
:10549000FF1FE758FB4FA591B491B0935405A0931B
:1054A0005305EDE5F4E0449140935705EBE8F4E053
:1054B000E491F0E0EE0FFF1FE758FB4FC591D49148
:1054C000D0935605C0935505EEE5F4E0E491E093E2
:1054D000580510925A0510925B0510925C051092C7
:1054E0005D052BE33FE1C9010197F1F79C91842F02
:1054F000892391E009F490E08881E82309F0926023
:105500009093590583E595E09093300580932F059E
:105510008CE595E1909328018093270180916900A3
:105520008C7F816080936900E89A81E080935E05BA
:105530006AEA71E087E495E00E94EE196AEA71E098
:105540008DE495E00E94EE1980915E05823040F571
:10555000F89483E595E00E941A1580915A05909180
:105560005B05A0915C05B0915D057894809343053F
:1055700090934405A0934505B09346050E9472069A
:1055800060933F05709340058093410590934205D9
:105590006AEA71E089E395E0DF91CF910C94EE190E
:1055A000F894DBCFCF93DF93CDB7DEB76E970FB60E
:1055B000F894DEBF0FBECDBF789484B5826084BD01
:1055C00084B5816084BD85B5826085BD85B5816007
:1055D00085BD80916E00816080936E001092810085
:1055E0008091810082608093810080918100816040
:1055F0008093810080918000816080938000809101
:1056000091008260809391008091910081608093ED
:105610009100809190008160809390008091C10002
:1056200084608093C1008091C10082608093C1003A
:105630008091C10081608093C1008091C30081602E
:105640008093C3008091C00082608093C0008091ED
:10565000C20081608093C20080917A008460809350
:105660007A0080917A00826080937A0080917A003B
:10567000816080937A0080917A00806880937A00BC
:1056800010924A0210923F0210923E028091D7007F
:1056900081608093D70080EA8093D80089B58061CB
:1056A00089BD89B5826089BD09B400FEFDCF61E086
:1056B00070E080E090E00E9490058091D8008F7C9F
:1056C00080618093D8008091E000807F8093E0002B
:1056D0008091E1008E7E8093E1008DE08093E20076
:1056E000559A209A8FEF9FEF90935E0480935D040C
:1056F00060EA7FE080E090E00E9490050E945321E4
:105700008BE095E00E947A158BE095E00E94C6142C
:105710001092FC0419821A821B821C8244E050E021
:10572000BE016F5F7F4F8AEF94E00E94B51482EF55
:105730009BE1909315068093140662E083E00E943B
:105740002B0562E080E00E942B05412C512C320198
:10575000439488248A94982CCC24C394C092130632
:105760000E9472060091030610910406209105061E
:1057700030910606AB01BC01401B510B620B730B51
:1057800080910F0690911006B0E0A0E010E0841721
:105790009507A607B70708F469C1109213060E947F
:1057A000720660933F057093400580934105909386
:1057B000420580915E05823008F061C2F89483E56D
:1057C00095E00E941A15C0905A05D0905B05E090B4
:1057D0005C05F0905D0578948091430590914405B7
:1057E000A0914505B09146050396A11DB11D8C15EC
:1057F0009D05AE05BF052CF5C0924305D09244052A
:10580000E0924505F092460580914802811139C227
:1058100087EF91E00E9432188DE495E00E941B18FA
:105820006DE475E0CE0101960E94D41960E0CE01CE
:1058300001960E94621BCE0101960E9424190E94CB
:1058400089158091430590914405A0914505B0913B
:1058500046050397A109B109C816D906EA06FB0651
:105860002CF5C0924305D0924405E0924505F09294
:1058700046058091480281112BC267E475E0CE0194
:1058800001960E94D41960E0CE0101960E94621B2D
:10589000CE0101960E94241987E495E00E941B180E
:1058A0000E94891586EF91E00E94321880913F0591
:1058B00090914005A0914105B0914205409144026C
:1058C000509145026091460270914702841B950BEE
:1058D000A60BB70B893B9B40A105B10598F08091C1
:1058E0001F0190912001019669F080914802882360
:1058F00049F010924802CC24CA94DC2CD0922001AA
:10590000C0921F0193E1E92E91E0F92EF701DF012A
:105910008081918197FF02C01182108232968D9111
:105920009C918115944034F0DF0112978FEF93E042
:105930008D939C9391E0ED31F90749F780914B02EB
:1059400090914C02019709F087C06AEA71E0CE019C
:1059500049960E94EE1910E000E0F70181919191C3
:105960007F011C8A1B8A1E8A1D8A188E1F8A4AE0A4
:10597000BE016F5F7F4F0E94E92EBE016F5F7F4FB8
:10598000CE0143960E94CA19BE016D5E7F4FCE01C3
:1059900049960E94A219CE0143960E942419043010
:1059A000110589F06FEF71E0CE0101960E94EE19AA
:1059B000BE016F5F7F4FCE0149960E94A219CE01B2
:1059C00001960E9424190F5F1F4F0530110529F61B
:1059D0000E94720600914002109141022091420201
:1059E000309143026B017C01C01AD10AE20AF30A2A
:1059F000970186010B3011052105310548F16093AF
:105A000040027093410280934202909343022D8D95
:105A10003E8D80913D0590913E052817390741F450
:105A200069E375E0CE0149960E94AC18892B21F0FC
:105A3000CE0149960E941B18698D7A8D61157105FA
:105A400009F46EC14D8D5E8D89E395E00E94A91920
:105A5000CE0149960E94241980E0E82E80E0F82EBD
:105A6000EF2809F479CE0E94000076CE80910D06D1
:105A7000181760F4E0910906F0910A06E10FF11D94
:105A800062E080810E942B051F5FF0CF312C809156
:105A90000E06381608F061C0E32CF12CE0910B06DD
:105AA000F0910C06EE0DFF1D61E080810E942B0538
:105AB000E0910B06F0910C06EE0DFF1D60E0808179
:105AC0000E94F904D301C201032C04C0880F991F5E
:105AD000AA1FBB1F0A94D2F75C016C01C094D0943A
